:100000000C9409060C9431060C9431060C943106BC
:100010000C9431060C9431060C9431060C94310684
:100020000C9431060C9431060C94920F0C94011030
:100030000C9431060C9431060C9431060C94310664
:100040000C9431060C9444130C9431060C94310634
:100050000C9431060C9431060C9431060C94331236
:100060000C9431060C9431060C9431060C94310634
:100070000C9431060C9431060C9431060C94310624
:100080000C947D120C9431060C9431060C943106BC
:100090000C9431060C9431060C9431060C94310604
:1000A0000C9431060C9431060C94310600000000CB
:1000B000000000000000000000000000000100003F
:1000C000000000000000000100000000020000002D
:1000D000000000000000020000000003000000001B
:1000E0000000000000030000000004000000000009
:1000F00000000000040000000000000000000000FC
:1001000000000000000000000009000000000000E6
:1001100000000000000000010901000000000000D4
:1001200000000000000000030002000000000000CA
:1001300000000000000000020003000000000000BA
:10014000000000000000000409040000000000009E
:100150000000000000000009000000000000000096
:10016000000000000000000000000000000000008F
:100170000009000100040009000400000000000064
:100180000009000000090003000000000000000951
:10019000000900090001000000000000000000004C
:1001A0000009000000020000000000000009000239
:1001B000000300000000000000000000000100003B
:1001C000010000020000000000000000010000012A
:1001D000000002000000000000020204010302030C
:1001E0000203040200000000000002000001000001
:1001F00001000000000000000001000003000002F8
:1002000000000000000000000000000200000000EC
:1002100000000000000000000000000000000000DE
:1002200000000000000001030100010301000000C4
:1002300000000000000001000200010000000000BA
:1002400000000000000001000100000000000000AC
:10025000000000000000020000000000000000009C
:10026000000000000000000000000000000000008E
:10027000000900000000000900000000000000016B
:100280000000000000000004000000000000000268
:100290000000000000030000000000000000000358
:1002A0000000000200000000000000000000000448
:1002B0000001000000000000000000000009000034
:1002C0000009000900000000000000000009000013
:1002D0000000000000000000000001020102020016
:1002E000000000000000000000020000000200000A
:1002F00000000000000000000200000002000000FA
:1003000000000000000000020102010200000000E5
:1003100000000000000000000900000000000000D4
:1003200000000000000000000000000000000000CD
:1003300000000001000009000000090000010000A9
:1003400000000200000000070000000002000000A2
:100350000002000000000700000000030000000091
:100360000100000900000009000001000000000079
:10037000000000000000000000000000000000007D
:100380000000020001000000000000000700000063
:100390000400030000000000000000000000020054
:1003A0000100000000000000000000000003000445
:1003B0000000000000000000000700000001000332
:1003C0000000000000000000000000000003000129
:1003D0000000000000000900000000000000010211
:1003E00003020100000907090000000000020000EC
:1003F00000020000090000000000000003000102EC
:1004000003000009000000000000000200020000DC
:1004100000000907090000000000010003020100BC
:1004200000090000000000000000000000000000C3
:1004300000000000003E5B4F5B3E3E6B4F6B3E1C7E
:100440003E7C3E1C183C7E3C181C577D571C1C5E95
:100450007F5E1C00183C1800FFE7C3E7FF0018246C
:100460001800FFE7DBE7FF30483A060E2629792916
:1004700026407F050507407F05253F5A3CE73C5A4B
:100480007F3E1C1C08081C1C3E7F14227F22145F28
:100490005F005F5F06097F017F006689956A606083
:1004A00060606094A2FFA29408047E040810207E7D
:1004B000201008082A1C08081C2A08081E10101002
:1004C000100C1E0C1E0C30383E3830060E3E0E0648
:1004D000000000000000005F00000007000700149B
:1004E0007F147F14242A7F2A12231308646236495A
:1004F0005620500008070300001C22410000412242
:100500001C002A1C7F1C2A08083E08080080703046
:1005100000080808080800006060002010080402B5
:100520003E5149453E00427F4000724949494621BB
:1005300041494D331814127F1027454545393C4A2F
:100540004949314121110907364949493646494946
:10055000291E00001400000040340000000814228E
:1005600041141414141400412214080201590906FC
:100570003E415D594E7C1211127C7F494949363EFD
:10058000414141227F4141413E7F494949417F09E3
:100590000909013E414151737F0808087F00417FEE
:1005A00041002040413F017F081422417F404040EC
:1005B000407F021C027F7F0408107F3E4141413E84
:1005C0007F090909063E4151215E7F091929462606
:1005D0004949493203017F01033F4040403F1F200A
:1005E00040201F3F4038403F6314081463030478E1
:1005F00004036159494D43007F4141410204081001
:1006000020004141417F040201020440404040403B
:10061000000307080020545478407F2844443838A9
:1006200044444428384444287F385454541800081B
:100630007E090218A4A49C787F0804047800447DF5
:1006400040002040403D007F1028440000417F4092
:10065000007C047804787C080404783844444438E6
:10066000FC1824241818242418FC7C0804040848C6
:100670005454542404043F44243C4040207C1C2017
:1006800040201C3C4030403C44281028444C909072
:10069000907C4464544C44000836410000007700CC
:1006A00000004136080002010204023C2623263CD9
:1006B0001EA1A161123A4040207A38545455592164
:1006C000555579412154547841215554784020544E
:1006D0005579400C1E52721239555555593954549A
:1006E000545939555454580000457C410002457D09
:1006F000420001457C40F0292429F0F0282528F00B
:100700007C545545002054547C547C0A097F49325E
:10071000494949323248484832324A4848303A41D9
:1007200041217A3A42402078009DA0A07D3944447E
:1007300044393D4040403D3C24FF2424487E494309
:10074000662B2FFC2F2BFF0929F620C0887E09037A
:1007500020545479410000447D413048484A3238A1
:100760004040227A007A0A0A727D0D19317D2629CD
:10077000292F28262929292630484D4020380808C5
:10078000080808080808382F10C8ACBA2F102834F9
:10079000FA00007B000008142A142222142A1408EC
:1007A0009500220095AA005500AAAA55AA55AA00AC
:1007B0000000FF00101010FF00141414FF001010B0
:1007C000FF00FF1010F010F0141414FC001414F7C4
:1007D00000FF0000FF00FF1414F404FC14141710B1
:1007E0001F10101F101F1414141F00101010F00001
:1007F0000000001F101010101F10101010F010003B
:100800000000FF101010101010101010FF1000004A
:1008100000FF140000FF00FF00001F10170000FC85
:1008200004F414141710171414F404F40000FF0057
:10083000F714141414141414F700F71414141714E0
:1008400010101F101F141414F4141010F010F000E6
:10085000001F101F0000001F14000000FC14000007
:10086000F010F01010FF10FF141414FF14101010EB
:100870001F00000000F010FFFFFFFFFFF0F0F0F09E
:10088000F0FFFFFF0000000000FFFF0F0F0F0F0F32
:1008900038444438447C2A2A3E147E02020606026A
:1008A0007E027E0263554941633844443C04407EE5
:1008B000201E2006027E020299A5E7A5991C2A495E
:1008C0002A1C4C7201724C304A4D4D3030487848E9
:1008D00030BC625A463D3E494949007E0101017ED5
:1008E0002A2A2A2A2A44445F444440514A44404028
:1008F000444A51400000FF0103E080FF0000080867
:100900006B6B083612362436060F090F06000018E6
:10091000180000001010003040FF0101001F01010D
:100920001E00191D1712003C3C3C3C00000000005A
:1009300006011501260137014A015D017201880196
:100940009F01B801D201EE010B022A024B026E0296
:100950009302BA02E40210033F037003A403DC0312
:10096000170455049704DD0427057505C8052006FE
:100970007D06E0064907B8072D08A9082D09B90921
:100980004D0AEA0A900B400CFA0CC00D910E6F0F45
:100990005A1053115B1272139A14D4152017801831
:1009A000F519801B231DDE1EB420A622B524E426E3
:1009B0003429A72B402E0031EA330037453ABC3D9D
:1009C00068414C456B49C84D68524F57805C006286
:1009D00010111213151617181A1C1D1F2123252775
:1009E000292C2E3134373A3E4145494E52575C62EC
:1009F000686E757B838B939CA5AFB9C4D0DCE9F797
:100A00000000000200090F0000030401000C0000B8
:100A1000000000000000000000000000000000F0E6
:100A2000F89C8E8783878E9CF8F00000FEFF0303FE
:100A3000030303070EFCF80000FEFF030303030398
:100A4000070EFCF80000FFFF00000000000000FFA0
:100A5000FF0000FEFF8383838383C7EE7C380000A2
:100A6000F8FC0E07030303070EFCF800003F7FE0CD
:100A7000C08080C0E07F3FFFFF0101010101010153
:100A8000FFFF0000FFFF0C0C0C0C1C3E77E3C100C5
:100A9000007FFFC0C0C0C0C0E0703F1F00001F3F0C
:100AA00070E0C0C0C0E0703F1F00007FFFC1C1C147
:100AB000C1C1E3773E1C00001F3F70E0C0C0C0E032
:100AC000703F1F000000000001FFFF010000000058
:100AD000000000240027002A002D003000D5F08DF2
:100AE00014A1C881CFD9F1AF200014021302120261
:100AF00015020702080204010C0106010018244235
:100B00004A52422418007E7E7E7E7E7E00FF81BD9A
:100B1000A5ADA1BF80FF81B9F3E7FFE7FFFFF3EBCE
:100B2000DBBB81FBFFFFC1FDE1FDFDC1FFFFC3DBBF
:100B3000FBC3DFC3FFFFE7F7F7F7F7F7FF7E81A5FA
:100B4000817E3C24661E3F7EFCFC7E3F1E080B001F
:100B50000202020000090400000102020000052454
:100B600000100105240101010424020605240600E9
:100B7000010705810310004009040100020A00007A
:100B80000007050202400000070583024000000440
:100B900003090412010002EF0201404123368000E4
:100BA000010102030141726475696E6F204C4C4370
:100BB0000041726475696E6F204C656F6E6172647E
:100BC0006F000408020110408040102040804080E7
:100BD00008020401804020100201108010204040D3
:100BE0002000000000250028002B002E003100040A
:100BF00004040404030405020202020403020202C4
:100C000002060606060606040402020204040301A4
:100C1000AF1311241FBECFEFDAE0DEBFCDBF12E06D
:100C2000A0E0B1E0E4E9FCE302C005900D92A03F32
:100C3000B107D9F727E0A0EFB2E001C01D92AF3BAA
:100C4000B207E1F716E0C9E0D6E004C02197FE0143
:100C50000E94221EC830D107C9F70E94E2130C94EB
:100C6000481E0C94000089EB93E020E0B22FB111F4
:100C7000BFEFFC010024B193B193B193B1930394FE
:100C8000D1F70895FC0180914D03882311F13FB7FE
:100C9000F89482E08093E9002091F200822F90E0A6
:100CA0001816190614F481E090E0882339F028988A
:100CB00044E640934C034091F1004083222339F0F5
:100CC0002091F200211103C02BE62093E8003FBFE2
:100CD00008958FEF9FEF08952FB7F89483E08093E6
:100CE000E9009091E800892F807295FF04C09091EF
:100CF000F20080E4891B2FBF089580914403811185
:100D00000DC082E08093400384E080934103109201
:100D100043031092420381E08093440380E493E014
:100D20000895CF93DF931F92CDB7DEB76983DC01BF
:100D3000ED91FC910280F381E02D41E050E0BE0195
:100D40006F5F7F4F09950F90DF91CF91089583E0FA
:100D50008093E9008091F200882319F08AE3809360
:100D6000E80008950E946C0690E00895CF93DF9309
:100D70001F92CDB7DEB7FC018485958597FD08C02D
:100D80002FEF3FEF358724870F90DF91CF910895A4
:100D9000CE0101960E944206019719F4898190E0E4
:100DA000F3CF8FEF9FEFF0CF0F931F93CF93DF938E
:100DB0001F92CDB7DEB78C01FC018485958597FF26
:100DC0000BC0CE0101960E944206019771F4898101
:100DD00090E0F80195878487F801848595850F90C8
:100DE000DF91CF911F910F9108958FEF9FEFF1CF7A
:100DF000FC018485958597FD0BC09FB7F89482E030
:100E00008093E9008091F2009FBF90E001960895E1
:100E10009FB7F89482E08093E9008091F2009FBF31
:100E200090E0089540913A0350913B03209138039C
:100E30003091390342175307B4F49091E80095704C
:100E4000E1F39091E80092FD19C08093F100809148
:100E50003A0390913B0301968F739927892B19F4DC
:100E60008EEF8093E80080913A0390913B030196C6
:100E700090933B0380933A0381E0089580E00895C6
:100E8000EF92FF920F931F93CF93DF93F82E192FBA
:100E9000E62E042F81E0860F880F0E94120783E060
:100EA0000E941207CF2DD12FEC0EFD2EF11CCE1576
:100EB000DF05B9F007FF13C0FE0184910E941207FD
:100EC000182F80E00E941207812321968111EFCF15
:100ED000DF91CF911F910F91FF90EF90089588813E
:100EE000EDCF81E0F5CFDF92EF92FF920F931F934A
:100EF000CF93DF93D82E8A01EB017B01E40EF51E20
:100F0000CE15DF0559F0D7FE12C0FE0184910E9474
:100F1000120721968111F4CF0FEF1FEFC801DF9167
:100F2000CF911F910F91FF90EF90DF9008958881EE
:100F3000EECF0F931F93CF93DF931F92CDB7DEB702
:100F400082E0898342E450E06DE47BE080E80E9427
:100F500073070E947D06DC0112960D911C9101150C
:100F6000110589F0D801ED91FC910280F381E02D0B
:100F7000BE016F5F7F4FC801099597FD04C0F8015E
:100F800000851185ECCF89810F90DF91CF911F9162
:100F90000F910895615030F02091F100FC01208301
:100FA0000196F8CF289884E680934C030895AF9279
:100FB000BF92CF92DF92EF92FF920F931F93CF9346
:100FC000DF936C017B018B01040F151FEB015E01A8
:100FD000AE18BF08C017D10759F06991D601ED913D
:100FE000FC910190F081E02DC6010995892B79F7DC
:100FF000C501DF91CF911F910F91FF90EF90DF908E
:10100000CF90BF90AF900895282F30E0F901E050C5
:10101000F64F9491F901EE53F44F84912151344FDE
:10102000F9012491222309F430C09923E9F0915069
:101030009F30D0F4E92FF0E0E05EF74F0C94221ED1
:101040004E0852082F0846084A0834083408340865
:1010500055085B085F086308690834086D089091BB
:1010600080009F7790938000E22FF0E0EE0FFF1F4B
:10107000EF51F44FA591B4919FB7F894EC916111A1
:1010800032C080958E238C939FBF089590918000ED
:101090009F7DE8CF90918000977FE4CF94B59F77B4
:1010A00094BDE2CF94B59F7DFBCF909190009F7748
:1010B00090939000D9CF909190009F7DF9CF90911F
:1010C0009000977FF5CF9091C0009F779093C000DC
:1010D000CBCF9091C0009F7DF9CF9091C200977FB8
:1010E0009093C200C1CF8E2BCECFCF93DF9390E0F1
:1010F000FC01EE53F44F24918151944FFC018491F3
:101100008823C9F090E0880F991FFC01E153F54F47
:10111000A591B491FC01EF51F44FC591D4916111A7
:101120000DC09FB7F8948C91209582238C93888171
:10113000282328839FBFDF91CF910895623051F417
:101140009FB7F8943C91822F809583238C93E881FC
:101150002E2BEFCF8FB7F894EC912E2B2C938FBFC3
:10116000EACF1F93CF93DF93182FEB0161E00E942A
:101170007508209739F460E0812FDF91CF911F919E
:101180000C940408CF3FD10511F461E0F5CFE12FB5
:10119000F0E0E050F64FE491E150EF3008F07FC00E
:1011A000F0E0EB52F74F0C94221EE408EC08F10833
:1011B000FB0805094F094F094F090F0919092309B0
:1011C0002D093A094F09420984B5806884BDC7BD1D
:1011D000DF91CF911F91089584B5806284BDC8BD11
:1011E000F7CF80918000806880938000D093890041
:1011F000C0938800EDCF8091800080628093800052
:10120000D0938B00C0938A00E3CF809180008860E8
:1012100080938000D0938D00C0938C00D9CF8091B3
:101220009000806880939000D0939900C0939800BC
:10123000CFCF80919000806280939000D0939B00EC
:10124000C0939A00C5CF80919000886080939000F1
:10125000D0939D00C0939C00BBCF8091C00080685C
:101260008093C0008091C0008F7B8093C000C093AA
:10127000CF00AECF8091C00080628093C000C09349
:10128000D000A6CF8091C20088608093C200809178
:10129000C2008B7F8093C200C093D20099CFC03828
:1012A000D1050CF072CF67CF3FB7F8948091FA0266
:1012B0009091FB02A091FC02B091FD0226B5A89B83
:1012C00005C02F3F19F00196A11DB11D3FBFBA2FD8
:1012D000A92F982F8827BC01CD01620F711D811D98
:1012E000911D42E0660F771F881F991F4A95D1F71D
:1012F00008958F929F92AF92BF92CF92DF92EF921A
:10130000FF924B015C010E9454096B017C010E9419
:1013100054096C197D098E099F09683E7340810547
:101320009105A8F321E0821A9108A108B10888EE7E
:10133000C80E83E0D81EE11CF11C81149104A104A5
:10134000B10429F7FF90EF90DF90CF90BF90AF905E
:101350009F908F9008958F929F92AF92BF92CF925D
:10136000DF92EF92FF920F931F93CF93DF936C0165
:101370007B018A0180917902882309F45CC0809105
:101380004D03882309F457C080913F0380FF05C0B7
:101390008091E00082608093E000E801B12C8AEF48
:1013A000A82E93E0892E2AE3922E209711F4BB20D9
:1013B000D9F10E946C0681110AC0AA94AA20D9F121
:1013C00061E070E080E090E00E947909EECF8C1738
:1013D0001D0611F00CF08C2F9FB7F8948092E90055
:1013E0002091E80025FD02C09FBFDFCF282F30E00D
:1013F000C21BD30BF701815020F041914093F100C3
:10140000FACFE20EF31EBB2021F09092E800B12C3F
:10141000EBCF8091E80085FDE7CF9092E800BB24F8
:10142000B394209709F3F3CF5D9884E680933E034D
:10143000101611063CF081E090E0F6019383828360
:1014400010E000E0C801DF91CF911F910F91FF9054
:10145000EF90DF90CF90BF90AF909F908F900895C6
:101460004FB18CB123B190E08095909533E0959584
:1014700087953A95E1F7887030E02095309535955D
:101480002795359527952470822B942F9095907FE2
:10149000892B0895FC0121912EBD9C5F21910DB4F3
:1014A00007FEFDCF2EBDE817F907C1F70DB407FE03
:1014B000FDCF0895CF92DF92EF92FF920F931F938B
:1014C000CF93E82FF0E0E25FF34FC491E62FF0E016
:1014D000603398F5E053F64FE4910E2F10E0F12CB5
:1014E000E12C60E074E284EF90E0A70198010E9493
:1014F0004C1C215031094109510991E02115310558
:1015000081E0480751056CF060E970ED83E090E000
:10151000A70198010E944C1C215031094109510931
:1015200093E0C13089F0C330F9F0CF911F910F9152
:10153000FF90EF90DF90CF900895EE0FFF1FE053E4
:10154000F74F05911491CBCF80918100887F892B33
:1015500080938100309389002093880080916F00F0
:10156000826080936F00E1CF80919100887F892B0A
:101570008093910030939900209398001093F80283
:101580000093F70281E08093F602809171008260FF
:1015900080937100CACFE82FF0E0E25FF34FE4914F
:1015A000E13019F0E33089F0089580916F008D7F6C
:1015B00080936F0080915103E0915203F0915303A7
:1015C000908180958923808308951092F6028091FE
:1015D0004E03E0914F03F0915003F2CFCF93DF938E
:1015E00090915403923081F0C82FE92FF0E0E25F30
:1015F000F34FD4919F5F9093540361E00E9475086C
:10160000D13029F0D33049F1DF91CF910895109274
:101610008000109281008091810088608093810019
:10162000809181008160809381008C2F90E0FC018B
:10163000E151F44FE491F0E0EE0FFF1FEF51F44F52
:101640002591349130935303209352038E53944F3A
:10165000FC01849180935103D7CF10929000109297
:101660009100809191008860809391008091910019
:101670008160809391008C2F90E0FC01E151F44F48
:10168000E491F0E0EE0FFF1FEF51F44F25913491FC
:101690003093500320934F038E53944FFC01849159
:1016A00080934E0380915403882321F06CE380E003
:1016B0000E945A0A80E0DF91CF910C94CB0A6038E7
:1016C0007105E8F440345105D0F4342F3695369541
:1016D0003695A0E83A9FF0011124E60FF71FE80FB6
:1016E000F91F3489CA018770992741E050E001C091
:1016F000440F8A95EAF7222319F0432B448B08956F
:1017000040954323FBCF8F929F92AF92BF92CF928F
:10171000DF92EF92FF920F931F93CF93DF939C0181
:10172000285F3F4F28383105B8F58B019B01285FB2
:101730003F4F2834310580F56C01EA015A0188E0F9
:10174000A80EB11C80E8882E912CF12CE12CFE0112
:101750008491282F30E0C4010E2C02C09595879506
:101760000A94E2F782239323892B49F021E0A80110
:10177000B7016C0D7D1D85EA93E00E945F0BFFEFC2
:10178000EF1AFF0A88E0E816F10409F721960F5FC7
:101790001F4FCA15DB05C9F6DF91CF911F910F913D
:1017A000FF90EF90DF90CF90BF90AF909F908F9081
:1017B00008952F923F924F925F926F927F928F92F5
:1017C0009F92AF92BF92CF92DF92EF92FF920F93D0
:1017D0001F93CF93DF93CDB7DEB72D970FB6F89455
:1017E000DEBF0FBECDBF6A3069F5FC01EA5EFB4F7C
:1017F000DC01A85EBB4F2C9148E0249F900111248E
:1018000040815181240F351F3183208314971D920D
:101810001C922D960FB6F894DEBF0FBECDBFDF91A0
:10182000CF911F910F91FF90EF90DF90CF90BF90DD
:10183000AF909F908F907F906F905F904F903F9070
:101840002F9008956D3029F39D878C878C5E9B4F78
:101850009A838983FC01808091802C853D85285E58
:101860003B4F3C832B8330E8831691040CF071C00E
:10187000EC85FD85EA5EFB4F6080718040E4641674
:1018800071040CF066C0AB81BC814C9045E09401C2
:10189000449E200D311D1124121613060CF059C060
:1018A000242C312C910153E0220F331F5A95E1F77C
:1018B000260D371D121613060CF04BC0649FB001A5
:1018C000112410E000E0FB01E05DFB4FFB87EA879D
:1018D000E0E0053029F0EA85FB85E00FF11FE49197
:1018E000530198E0592E2E2F30E03E832D83E17076
:1018F000EF83F12CE12CE414D8F4C4018E0D9F1D6C
:1019000099878887D12CC12CC41470F4A6014A0D84
:101910005B1D2F81688579858C859D850E945F0B75
:101920009FEFC91AD90AF0CFAFEFEA1AFA0AE3CF4C
:10193000ED81FE81F595E7955A94A20CB31C5110E8
:10194000D2CF0F5F1F4F820C931C0630110509F098
:10195000BFCFEB81FC812081422F50E0A981BA8169
:101960008D919C91B6E02B9F800D911D1124E981F2
:10197000FA8191838083EC85FD85E75EFB4F2081B2
:10198000222309F446CF6AEF64039001659F300D6E
:10199000112420583F4F281739070CF03ACFAC8557
:1019A000BD85ED91FC9111970190F081E02D6AE0E9
:1019B000CD012D960FB6F894DEBF0FBECDBFDF91DF
:1019C000CF911F910F91FF90EF90DF90CF90BF903C
:1019D000AF909F908F907F906F905F904F903F90CF
:1019E0002F900994089590E080E008950F931F933D
:1019F000CF93DF938C018CE0809FE001819FD00D1D
:101A00001124CF5FDE4F20E030E0A90168817981A9
:101A10008A819B810E941C1D87FF04C01882198245
:101A20001A821B828CE0809FE001819FD00D1124DF
:101A3000CF5FDE4F20E030E040EF52E468817981F3
:101A40008A819B810E94091E181644F480E090E070
:101A5000A0EFB2E488839983AA83BB838CE0809F44
:101A6000E001819FD00D1124CF5FDE4F20E030E0F8
:101A700040E851E46C817D818E819F810E941C1D14
:101A800087FF08C080E090E0A0E8B1E48C839D83EC
:101A9000AE83BF838CE0809FE001819FD00D112435
:101AA000CF5FDE4F20E030E040E652E46C817D8184
:101AB0008E819F810E94091E181644F480E090E0F8
:101AC000A0E6B2E48C839D83AE83BF83DF91CF9188
:101AD0001F910F9108952F923F924F925F926F92B4
:101AE0007F928F929F92AF92BF92CF92DF92EF92AE
:101AF000FF920F931F93CF93DF9300D01F92CDB728
:101B0000DEB71092690210926A028F31910514F0CB
:101B10008EE190E080936B02E1E0F1E030E020E0C4
:101B20008217930729F011862F5F3F4F3C96F8CF1D
:101B300080916C0290916D0201972AE5289F200107
:101B4000299F500C112400E110E0F12CE12C88E0D9
:101B5000682E712CD12CC12CC20184559F4F1C01C1
:101B60004801012E000CAA08BB08F101EC0DFD1D77
:101B700094919983892F90E00097A9F107972CF40D
:101B800080916A028F5F80936A022CE02E9DF001A3
:101B90002F9DF00D1124EF5FFE4FFB83EA83B3010D
:101BA000072C000C880B990B0E94591DEA81FB81C0
:101BB0006083718382839383C501B4010E94591DA0
:101BC000EA81FB816483758386839783C7010E94C2
:101BD000F60C2981EA81FB812287138681E08187C7
:101BE0009FEFE91AF90AEFEFCE1ADE0AF8E06F0E5E
:101BF000711C2FE0C216D10409F0B7CF8FE0480E58
:101C0000511C085F1F4F0034110509F0A0CF0F9041
:101C10000F900F90DF91CF911F910F91FF90EF9058
:101C2000DF90CF90BF90AF909F908F907F906F90FC
:101C30005F904F903F902F90089583E090E09093B5
:101C400032038093310381E08093000188E7809321
:101C50002A0388E3809329038EE190E00C946B0DB6
:101C60008F929F92AF92BF920F931F93CF93DF9368
:101C7000CDB7DEB7A1970FB6F894DEBF0FBECDBFCC
:101C800019A2423008F44AE08E010F5D1F4F842EE6
:101C9000912CB12CA12CA50194010E947E1CE62F51
:101CA000B901CA01EA3044F5E05DD801EE938D0137
:101CB000232B242B252B79F790E080E0109769F0F7
:101CC000FD0101900020E9F73197AF014A1B5B0B42
:101CD000BD0185EA93E00E94D707A1960FB6F8945C
:101CE000DEBF0FBECDBFDF91CF911F910F91BF908F
:101CF000AF909F908F900895E95CD7CFCF92DF92FD
:101D0000EF92FF92CF93DF936B017C016DE285EA46
:101D100093E00E94D90BEC0166277727CB016C1961
:101D20007D098E099F094AE00E94300E8C0F9D1F8D
:101D3000DF91CF91FF90EF90DF90CF900895FC015D
:101D400001900020E9F73197AF01481B590BBC0106
:101D500085EA93E00C94D7072F923F924F925F92BF
:101D60006F927F928F929F92AF92BF92CF92DF92AB
:101D7000EF92FF920F931F93CF93DF930E941D0E5C
:101D8000D0E0C0E004E110E082E0282E9AE2E92EE3
:101D9000F12C3324339426E4422E512C32E3632E6B
:101DA000712C4EE1C42ED12C56E3A52EB12C6EE140
:101DB00070E080E090E00E9479090E943306109361
:101DC000BA070093B90781E090E09093BC07809335
:101DD000BB072092BD0783EA92E00E949F0E1093FA
:101DE000BA070093B9071093BC070093BB07209272
:101DF000BD078AEA92E00E949F0E1093BA070093F3
:101E0000B907F092BC07E092BB073092BD0781EBA7
:101E100092E00E949F0E3092BD075092BA07409206
:101E2000B907F092BC07E092BB0789EB92E00E94F1
:101E30009F0E60916C0270916D02072E000C880B52
:101E4000990B97FF69C00E947E0ECE010196B301E7
:101E50000E940E1EEC01499774F4D092BA07C0920A
:101E6000B907B092BC07A092BB073092BD0780ECC7
:101E700092E00E949F0E80906C0290906D029AE01A
:101E8000891691048CF40E94300A87FF0DC08FEFF1
:101E9000881A980A90926D0280926C0264EF71E049
:101EA00080E090E00E94790980906C0290906D0231
:101EB00092E0891691048CF00E94300A84FF0DC0D4
:101EC00081E0881A910890926D0280926C0264EF12
:101ED00071E080E090E00E94790989EB93E00E9434
:101EE0004A0A0E94300A83FD04C00E94300A82FF21
:101EF0005ECFDF91CF911F910F91FF90EF90DF9018
:101F0000CF90BF90AF909F908F907F906F905F9099
:101F10004F903F902F9008954AE00E94300E95CF49
:101F20000E943C1E1F920F920FB60F9211248F93A6
:101F30009F938091E1009091E100937F9093E10065
:101F400083FF0FC01092E90091E09093EB00109294
:101F5000EC0092E39093ED0010924D0398E0909383
:101F6000F00082FF22C093E09093E9009091F2008C
:101F7000992319F09AE39093E80090913E039923F6
:101F800041F090913E03915090933E03911101C016
:101F90005D9A90914C03992341F090914C0391509C
:101FA00090934C03911101C0289A84FF18C080912E
:101FB000E2008E7E81608093E2008091E1008F7E5E
:101FC0008093E10080913F038E7E806180933F0388
:101FD0009F918F910F900FBE0F901F90189580FFCB
:101FE000F7CF8091E2008E7E80618093E200809145
:101FF000E1008E7E8093E10080913F038E7E8160C0
:10200000E5CF1F920F920FB60F921124CF92DF925D
:10201000EF92FF920F931F932F933F934F935F93F2
:102020006F937F938F939F93AF93BF93EF93FF93A0
:10203000CF93DF93CDB7DEB76C97DEBFCDBF1092E5
:10204000E9008091E80083FF25C068E0CE01459655
:102050000E94CA0782EF8093E8008D8987FF39C00C
:102060009091E80090FFFCCF982F907609F034C152
:102070009E894F89588D2F89F88C911131C08038F5
:1020800061F580913D038093F1001092F1008EEF95
:102090008093E8006C960FB6F894DEBF0FBECDBFFC
:1020A000DF91CF91FF91EF91BF91AF919F918F9170
:1020B0007F916F915F914F913F912F911F910F9160
:1020C000FF90EF90DF90CF900F900FBE0F901F907A
:1020D00018959EEF9093E800C7CF1092F100D5CFEE
:1020E000913059F48111D3CF4130510581F680915F
:1020F0003D038D7F80933D03CACF933049F4811116
:10210000C6CF4130510519F680913D038260F2CF70
:10211000953041F48091E80080FFFCCF2068209347
:10212000E300B5CF963009F0A9C00B8D1C8D22E0DD
:102130001092E90010923B0310923A03F2122EC063
:1021400010923903109238030E9499071F8299E078
:102150009983FA8291E09E8390EA98879AEF998713
:1021600020913A0330913B03275F3F4F3C832B8301
:102170008D831092E90010923B0310923A03109362
:1021800039030093380349E050E0BE016F5F7F4F91
:1021900080E00E9473070E94990779CF109339035A
:1021A000009338030E947D06DC0112960D911C916C
:1021B0000115110509F451C1D801ED91FC9104807C
:1021C000F581E02DBE016B5E7F4FC8010995009738
:1021D00009F03EC1F80100851185EACFF3E0FF1256
:1021E0000EC08F89882309F440C0823061F440E832
:1021F00060E181EB9BE00E944007811148CF81E2C2
:102200008093EB0047CF813029F440E86BE085EA0A
:102210009BE0F1CF833099F70E947D06DC01129696
:10222000ED90FC908E010F5F1F4F6801E114F104E7
:1022300079F0D701ED91FC910680F781E02DB8018E
:10224000C7010995080F111DF701E084F184EECF55
:10225000D8011C92F60101900020E9F73197BF01E7
:102260006C197D0940E0C601C6CF6FE87BE0FB0139
:10227000449150E080E80E94730709CF973009F439
:10228000BECF983021F481E08093F10000CF9930E7
:1022900009F0FDCE837009F0B2CFEFE7F2E081E004
:1022A00031E096E32191222371F08093E90030938D
:1022B000EB00DF0111972C912093EC009093ED003F
:1022C0008F5F873079F78EE78093EA001092EA00FB
:1022D0008F8980934D03DBCE8B8D9C8D1092E9000E
:1022E00010923B0310923A03909339038093380382
:1022F000898D811192C08E899D89913A49F48132EC
:1023000009F07DCF47E050E062E772E080E0B3CFB4
:10231000913209F074CF833269F48F89988DB0E0DF
:10232000A0E080936E0290936F02A0937002B0932E
:102330007102ADCE803269F48091E80082FFFCCF5B
:1023400067E082E792E00E94CA078BEF8093E80083
:102350009ECE823209F09BCE8F8980937902EEEF78
:10236000FFE7859194918B3F9C4D51F1E0E0F8E0BF
:102370008091720290917302A0917402B0917502E3
:10238000803B9440A105B105F1F48091790280FD74
:102390001AC0EE3F8AE0F80789F587E797E791834F
:1023A00080838091600080933C0388E19BE00FB6BE
:1023B000F894A895809360000FBE9093600067CE5C
:1023C000EEEFFAE0D5CF808191818737974709F00A
:1023D0005ECEA895809160008861809360008091B6
:1023E0003C0380936000EE3F2AE0F20789F0809181
:1023F000FE0A9091FF0A9183808349CE808191816A
:102400008737980751F29093FF0A8093FE0AC5CF51
:102410001092FF0A1092FE0A3ACE0E947D06DC015D
:1024200012960D911C910115110509F4E8CED80101
:10243000ED91FC910190F081E02DBE016B5E7F4F2C
:10244000C8010995811123CEF80100851185EBCFD4
:10245000181619060CF41BCED2CEF1E0FF12BECE38
:1024600063E97BE004CF1F920F920FB60F92112405
:102470002F933F938F939F93AF93BF938091330399
:1024800090913403A0913503B09136033091F90255
:1024900023E0230F2D3758F50196A11DB11D209380
:1024A000F9028093330390933403A0933503B093E0
:1024B00036038091FA029091FB02A091FC02B09148
:1024C000FD020196A11DB11D8093FA029093FB02BB
:1024D000A093FC02B093FD02BF91AF919F918F91A9
:1024E0003F912F910F900FBE0F901F90189526E8E7
:1024F000230F0296A11DB11DD2CF1F920F920FB6CE
:102500000F9211242F933F934F935F936F937F9379
:102510008F939F93AF93BF93EF93FF938091F602B6
:10252000882349F080914E03E0914F03F0915003CE
:102530009081892780838091FE02882309F456C008
:102540008091F2029091F302A091F402B091F50211
:10255000892B8A2B8B2B09F449C08091F202909130
:10256000F302A091F402B091F5020197A109B1091B
:102570008093F2029093F302A093F402B093F502D9
:10258000892B8A2B8B2B91F5E091F002F091F102CF
:10259000BF016F5F7F4F7093F1026093F00224914F
:1025A000922F907F822F8F70903819F40E94CB0A5F
:1025B000EBCF903981F43296F093F102E093F00280
:1025C000FB016491909154038917F0F667FDDCCF0D
:1025D0000E945A0AD9CF903E29F41092F10210922B
:1025E000F002D2CF903F99F41092FE02FF91EF914A
:1025F000BF91AF919F918F917F916F915F914F911B
:102600003F912F910F900FBE0F901F90189597FD3F
:10261000BBCF3296F093F102E093F002FB0164919C
:10262000A091F702B091F802322F262F0E94A01C31
:102630006C507E4F8F4F9F4F28EE33E040E050E0CC
:102640000E947E1C2093F2023093F3024093F40226
:102650005093F5028091F2029091F302A091F4025E
:10266000B091F502892B8A2B8B2B09F0BFCF81E02B
:1026700090E0A0E0B0E08093F2029093F302A09388
:10268000F402B093F502B2CF1F920F920FB60F92E1
:1026900011248F939F93AF93BF93EF93FF938091F8
:1026A0002F03882309F452C080912B0390912C03AF
:1026B000A0912D03B0912E03892B8A2B8B2BA1F196
:1026C00090915103E0915203F09153038081892747
:1026D000808380912B0390912C03A0912D03B091C6
:1026E0002E03181619061A061B069CF480912B035C
:1026F00090912C03A0912D03B0912E030197A10975
:10270000B10980932B0390932C03A0932D03B093D6
:102710002E03FF91EF91BF91AF919F918F910F90F9
:102720000FBE0F901F90189510922F0380916F008D
:102730008D7F80936F0080915103E0915203F0915F
:1027400053039081809589238083E3CF9091510337
:10275000E0915203F091530380818927F5CFE5E59D
:10276000F3E01382128288EE93E0A0E0B0E084836D
:102770009583A683B78389E892E0918380838FEF66
:102780009FEF95878487E5EAF3E0138212828BE955
:1027900092E0918380838CE3868380E18187108639
:1027A000178216861786108A118A128A1092BA0723
:1027B0001092B9071092BC071092BB0781E080937A
:1027C000BD070895CF93DF93CDB7DEB72A970FB635
:1027D000F894DEBF0FBECDBF789484B5826084BD0F
:1027E00084B5816084BD85B5826085BD85B5816015
:1027F00085BD80916E00816080936E001092810093
:10280000809181008260809381008091810081604D
:10281000809381008091800081608093800080910E
:1028200091008260809391008091910081608093FB
:102830009100809190008160809390008091C10010
:1028400084608093C1008091C10082608093C10048
:102850008091C10081608093C1008091C30081603C
:102860008093C3008091C00082608093C0008091FB
:10287000C20081608093C20080917A00846080935E
:102880007A0080917A00826080937A0080917A0049
:10289000816080937A0080917A00806880937A00CA
:1028A00010924D0310923D0310923F038091D70088
:1028B00081608093D70080EA8093D80089B58061D9
:1028C00089BD89B5826089BD09B400FEFDCF61E094
:1028D00070E080E090E00E9479098091D8008F7CC0
:1028E00080618093D8008091E000807F8093E00039
:1028F0008091E1008E7E8093E1008DE08093E20084
:10290000559A209A2FB72983F8948091FF0281115C
:1029100027C0E0E0FCE08491E3EDFBE09491E82F38
:10292000F0E0EE0FFF1FE153F54FA591B491EC914C
:10293000E92321F461E081E10E94040861E081E182
:102940000E9475088CB580618CBD8CB580648CBD8F
:1029500061E08FE00E94750861E080E10E947508E7
:102960008091FF028F5F8093FF0239813FBF4AEE63
:102970005AE05A83498369817A81FB0184916F5FB0
:102980007F4F3296FA83E983FB016491882319F023
:102990000E947508F0CF61E086E00E94040861E0C3
:1029A00070E080E090E00E94790960E086E00E949B
:1029B00004086AE070E080E090E00E94790961E03C
:1029C00086E00E940408EBEFFBE0E491F0E0EE0FFC
:1029D000FF1FEF51F44F85919491909305038093DD
:1029E0000403EEECFBE0E491E0930303E3EFFBE090
:1029F000E491F0E0EE0FFF1FEF51F44F85919491B9
:102A00009093020380930103E6ECFBE0E491E093F2
:102A100000038CB58C7F8CBD8DB581608DBDE09140
:102A20000403F0910503908180910303982B908318
:102A3000A0910103B09102032C9190910003909515
:102A400092239C939081809589238083EDEDFAE019
:102A50002AE0EA3EF20749F084918EBD00000DB4F1
:102A600007FEFDCF8EB53196F3CFE0910103F091D3
:102A70000203808190910003892B8083E0910403FD
:102A8000F0910503908180910303809589238083D1
:102A90008091640081608093640080916400826012
:102AA00080936400809164008068809364008091CA
:102AB00064008064809364008091650081608093ED
:102AC00065000E94300A87FF1AC080E094E01EBCB7
:102AD00000000DB407FEFDCF2EB50197C1F770E0E1
:102AE00060E08AE00E94B10870E060E08BE00E9444
:102AF000B10870E060E089E00E94B108FFCF6EEE9F
:102B0000462E55245A9408E010E0B20169517F4FD7
:102B10008AE00E94B1086FEF70E08BE00E94B1087C
:102B20006FEF70E089E00E94B1080E943306742CB8
:102B300030EF43160CF46DC0920157FE04C02227FB
:102B400033272419350927703327C20157FC07960C
:102B500053E0959587955A95E1F757FE05C0019783
:102B6000A801421B530B9A01BC017695762F66276C
:102B7000779567956B557C4FB0E0A0E04801821ACD
:102B8000930A8F3F5FEF95070CF43AC050E040E0A6
:102B9000FD01E15EF54F7F015B01F0E8AF0EB11C76
:102BA0008F3F980791F0F701E40FF51FE4916B0157
:102BB000C40ED51EF0E01F01022E01C0220C0A94A3
:102BC000EAF7F60160A4262820A62115310599F020
:102BD000F701E40FF51FE4916501C40ED51EF0E086
:102BE0001F01082C02C0359427940A94E2F7F601DD
:102BF00060A4262820A64F5F5F4F4835510581F617
:102C00000196A85ABF4F60587F4FA03BB10509F00D
:102C1000B8CF89EB93E00E944A0A6BE170E080E054
:102C200090E00E947909F0EF7F1206C06AEF70E031
:102C300080E090E00E9479092FEF421A520A39E1B0
:102C40004316510409F061CF6EEE72E080E090E02F
:102C50000E9479096FEF70E08AE00E94B1086FEF7F
:102C600070E08BE00E94B1086FEF70E089E00E9495
:102C7000B10885E00E94EE0A8DE00E94EE0A1092F3
:102C8000FE0282E090E00E94441C882351F0809173
:102C90006400877F8093640080916500877F8093C4
:102CA00065000E94AC0E8FB7F894409133035091A9
:102CB000340360913503709136038FBF8FB7F8945A
:102CC0004091330350913403609135037091360382
:102CD0008FBF88E28093AB0389E18093AE0380913C
:102CE00064008E7F8093640087EC80937C0080E298
:102CF00080937B0062E070E080E090E00E947909C0
:102D000080917A00806480937A0080917A0086FDB9
:102D1000FCCF4091780050917900409550955A83AE
:102D200049838EE580937C0062E070E080E090E073
:102D30000E94790980917A00806480937A00809162
:102D40007A0086FDFCCF00917800109179000E94F6
:102D5000540900951095E981FA810E9FD0010F9FCB
:102D6000B00D1E9FB00D11249B01AC012095309534
:102D7000409550950E946B1C6B017C010E94540988
:102D80006C0D7D1D8E1D9F1D6115710581059105C1
:102D900011F00E943B1C809164008160809364006C
:102DA0003324339488E7282E8091370381113BC068
:102DB0002FB7F8948091330390913403A091350399
:102DC000B09136032FBF2091B703222391F02091B9
:102DD000AF03F82FF21BF093B8032091AC033091AE
:102DE000AD032F5F3F4F3093AD032093AC031092A0
:102DF000B7034091B3035091B4036091B503709150
:102E0000B60384179507A607B707ACF4481B4230F2
:102E100050F083B7817F83BF83B7816083BF88957C
:102E200083B78E7F83BF80E090E0892B09F4BCCF0D
:102E30000E940000B5CF2091AE03AC01BD01420F4E
:102E4000511D611D711D4093B3035093B4036093F2
:102E5000B5037093B6038093AF039093B003A09330
:102E6000B103B093B2033092B7038FB7F894409197
:102E700033035091340360913503709136038FBF53
:102E80000E9433063092BD071A82198210E000E0DA
:102E900021E0A80169817A8185EA93E00E945F0BB5
:102EA0000F5F1F4F0A30110599F729813A812F5F73
:102EB0003F4F3A8329832F37310541F7E0903103A3
:102EC000F09032038BE090E070E060E06E157F05DB
:102ED0000CF03DC088389105A8F4AC014850510968
:102EE000DC01A656BC4F30E020E04038510554F4D8
:102EF00057FF0CC02F5F3F4F4F5F5F4F1196283039
:102F0000310599F76F5F7F4F0A96E0CFF901EB5BD0
:102F1000F44F049110E0000F111F00951095579683
:102F20001C915797012357960C935797E4918D0165
:102F300009561F4FF0E0EE0FEF2FEE1FFF0B6F0152
:102F4000C094D094F801D080CD20C082D3CF2CE3A0
:102F500030E03093BA072093B90741E050E0509336
:102F6000BC074093BB0760E285EA93E00E94D90B5F
:102F700063E585EA93E00E94D90B64E585EA93E076
:102F80000E94D90B61E485EA93E00E94D90B67E4C3
:102F900085EA93E00E94D90B65E485EA93E00E94FC
:102FA000D90B60E285EA93E00E94D90B60916C0234
:102FB00070916D02072E000C880B990B97FF38C19A
:102FC0000E947E0E60E285EA93E00E94D90B81E0C8
:102FD00091E09A8389839A8789871C821B828091DA
:102FE0006B02E82FF0E0F887EF832B813C812E17EE
:102FF0003F070CF074C1A985BA8519968C91199771
:10300000882309F40AC11B968C911B97882309F425
:1030100004C11A968C911A97873010F01B961C9257
:10302000E985FA85308680809180A280B3804480D3
:103030005580668077808385803209F422C108F04C
:10304000FBC0803109F40EC121E031E03E832D83C5
:1030500010E000E04B815C810417150709F430C1D2
:10306000AD81BE8119968C911997882309F428C1E6
:10307000E985FA8520813181428153816D917D916D
:103080008D919C910E94AF1C6B017C0120E030E08F
:10309000A9010E94091E181624F0F7FAF094F7F817
:1030A000F09420E030E040E051E4C701B6010E9416
:1030B0001C1D87FF05C1A985BA8514962D913D91E8
:1030C0004D915C911797ED81FE81648175818681B8
:1030D00097810E94AF1C6B017C0120E030E0A901C8
:1030E0000E94091E181624F0F7FAF094F7F8F094ED
:1030F00020E030E040E051E4C701B6010E941C1D11
:1031000087FFDEC030922F0380918100887F81602D
:103110008093810027EB3FE430938900209388005F
:103120008EE390E0A0E0B0E080932B0390932C031B
:10313000A0932D03B0932E0380916F008260809343
:103140006F00A985BA851B961C921B9718961C9236
:10315000C501B4010E94211D072E000C880B990B9C
:103160000E94591DE985FA85608371838283938368
:10317000C301B2010E94211D072E000C880B990B80
:103180000E94591DA985BA8514966D937D938D93E0
:103190009C931797BCE0B09FF001B19FF00D1124F4
:1031A000EF5FFE4F8285873039F0E985FA85928599
:1031B000983000F589131EC0A985BA8519961C920E
:1031C000BCE0B09FF001B19FF00D1124EF5FFE4F06
:1031D0001186E985FA859285973028F490916A02E4
:1031E000915090936A02873028F480916A0281504E
:1031F00080936A028B819C810E94F60C80916A0206
:1032000081110BC080916C0290916D020196909398
:103210006D0280936C02309230038B819C81019609
:103220009C838B83A985BA851C96BA87A987D7CE3C
:103230004AE00E94300EC6CE803499F1803809F001
:1032400003CF20E030E040E85FE3C301B2010E9419
:10325000AF1CA985BA8514966D937D938D939C932D
:103260001797F2CE20E030E040E85FE3C301B201FF
:103270000E94B01CE985FA856483758386839783F1
:10328000E3CE20E030E040E85FE3C501B4010E94F6
:10329000AF1CA985BA856D937D938D939C931397ED
:1032A000D3CE20E030E040E85FE3C501B4010E94E6
:1032B000B01CE985FA856083718382839383C4CED1
:1032C0000F5F1F4F2D813E81245F3F4F3E832D8333
:1032D0004F815885041715070CF4BCCE8BCFB091E5
:1032E0002A03BB83E0912903ED838B2F8E2B8770FC
:1032F00009F06FC00E94300A87FF3BC080E88093CE
:1033000028038093270380910001FD81F81B8F2FF4
:103310008093290380912A03893708F47BC0209287
:103320002A030E94300A83FF82C00E94330689EB81
:1033300093E00E944A0A64EF71E080E090E00E940E
:103340007909809131039091320301979093320370
:10335000809331031816190614F030922603209238
:103360002A0388E3809329038EE190E00E946B0D8D
:1033700062C00E94300A84FF0AC080E18093280363
:1033800080932703809100012D81820FC1CF0E947D
:10339000300A85FF10C03B81332309F4DAC080E294
:1033A000809328038093270380910001381B832F8B
:1033B00080932A03AFCF0E94300A86FFABCF80E410
:1033C0008093280380932703809100014B81840F11
:1033D000EFCF80912803803831F4809100015D8126
:1033E000581B852F95CF803129F4809100019D8154
:1033F000890F8ECF803231F480910001AB81A81B00
:103400008A2FD6CF803409F085CF80910001BB810F
:103410008B0FCECF80912903803120F480E18093FF
:1034200029037FCF893308F47CCF88E3F8CF0E944B
:10343000300A82FD7ACF01E011E0F12CE12C80917D
:103440006B028E151F0409F00CF483C0F80181850E
:10345000882309F478C060912A0370E090E080E04E
:103460000E94591D9B01AC01D8016D917D918D91F8
:103470009C910E94AF1C4B015C0120E030E0A9014F
:103480000E94091E181624F0B7FAB094B7F8B09449
:1034900020E030E040E051E4C501B4010E941C1D71
:1034A00087FF51C06091290370E090E080E00E94A6
:1034B000591D9B01AC01F80164817581868197815A
:1034C0000E94AF1C4B015C0120E030E0A9010E948A
:1034D000091E181624F0B7FAB094B7F8B09420E09B
:1034E00030E040E051E4C501B4010E941C1D87FF9B
:1034F0002AC030922F0380918100887F8160809361
:10350000810027EB3FE430938900209388008EE30D
:1035100090E0A0E0B0E080932B0390932C03A09365
:103520002D03B0932E0380916F00826080936F0013
:1035300080912703D8011B968C93BB81B0932A03FB
:10354000ED81E0932903FFEFEF1AFF0A045F1F4F9D
:1035500076CF609129036450770B80912A034DE365
:103560005BE090E00E94830B1C821B8280916B02C7
:103570002B813C818217130609F00CF457C0A981F6
:10358000BA8119968C911997882379F16D917D9163
:103590008D919C910E94211D6B0120E030E040E85C
:1035A00050E4E981FA8164817581868197810E9466
:1035B000AF1C0E94211DA981BA811A96EC91E1509D
:1035C000E93088F5F0E0E951F54E0C94221EF01A2E
:1035D000011B041B071B131B131B0A1B0D1B101BBA
:1035E00045E35BE0C6010E94830BEB81FC813196D1
:1035F000FC83EB8329813A81245F3F4F3A832983FF
:10360000B5CF4DE25BE0EECF45E25BE0EBCF4DE1C5
:103610005BE0E8CF45E15BE0E5CF4DE05BE0E2CF8A
:1036200045E05BE0DFCF4DEF5AE0DCCF8091300327
:10363000882309F43FC01092300330923703809101
:103640006C0290916D020A970CF471C06EEC72E0FE
:1036500086E093E00E94411E0E94330644E150E060
:103660005093BA074093B90782E190E09093BC076A
:103670008093BB073092BD0786E093E00E949F0EC7
:1036800089EB93E00E944A0A68EB7BE080E090E0DF
:103690000E9479091092370380916C0290916D021B
:1036A0000A9744F0A1E0B0E0B0936D02A0936C02E1
:1036B0000E94AC0E809126038823A1F1109226036C
:1036C00030923703E1E0F0E0F0936D02E0936C029A
:1036D0000E941D0E62EE72E086E093E00E94411EA1
:1036E0000E94330624E130E03093BA072093B907F3
:1036F00042E150E05093BC074093BB073092BD07B6
:1037000086E093E00E949F0E89EB93E00E944A0AB4
:1037100068EB7BE080E090E00E947909109237032B
:103720000E94AC0E89EB93E00E944A0A7CCB62EDCA
:1037300072E086E093E00E94411E0E941D0E8CCF35
:103740008F929F92AF92BF92CF92DF92EF92FF92B1
:10375000CF93DF93EC01688179818A819B81611528
:1037600071058105910521F464E279ED8BE597E01F
:103770002DE133EF41E050E00E944C1C49015A0119
:103780009B01AC01A7EAB1E40E946B1C6B017C01B8
:10379000ACEEB4EFA50194010E94791CC60ED71EB1
:1037A000E81EF91EF7FE06C081E0C81AD108E1083C
:1037B00080E8F80AC882D982EA82FB82C701B60192
:1037C0009F77DF91CF91FF90EF90DF90CF90BF90E8
:1037D000AF909F908F9008958F929F92AF92BF92DB
:1037E000CF92DF92EF92FF9260917A0270917B020A
:1037F00080917C0290917D02611571058105910592
:1038000021F464E279ED8BE597E02DE133EF41E0BF
:1038100050E00E944C1C49015A019B01AC01A7EAEF
:10382000B1E40E946B1C6B017C01ACEEB4EFA5010E
:1038300094010E94791CC60ED71EE81EF91EF7FEE1
:1038400006C081E0C81AD108E10880E8F80AC092F1
:103850007A02D0927B02E0927C02F0927D02C70154
:10386000B6019F77FF90EF90DF90CF90BF90AF9021
:103870009F908F90089560937A0270937B0280935B
:103880007C0290937D020895F999FECF92BD81BD8F
:10389000F89A992780B50895052E97FB1EF4009499
:1038A0000E94631C57FD07D00E947E1C07FC03D0BA
:1038B0004EF40C94631C50954095309521953F4FE4
:1038C0004F4F5F4F089590958095709561957F4F0C
:1038D0008F4F9F4F08950E94A01CA59F900DB49FED
:1038E000900DA49F800D911D11240895B7FF0C9495
:1038F0006B1C0E946B1C821B930B0895A1E21A2E75
:10390000AA1BBB1BFD010DC0AA1FBB1FEE1FFF1F83
:10391000A217B307E407F50720F0A21BB30BE40BD3
:10392000F50B661F771F881F991F1A9469F760951A
:103930007095809590959B01AC01BD01CF010895D4
:10394000A29FB001B39FC001A39F700D811D1124E0
:10395000911DB29F700D811D1124911D0895505825
:10396000BB27AA270E94C71C0C94CF1D0E94C11D13
:1039700038F00E94C81D20F039F49F3F19F426F456
:103980000C94BE1D0EF4E095E7FB0C94B81DE92FD6
:103990000E94E01D58F3BA17620773078407950762
:1039A00020F079F4A6F50C94021E0EF4E0950B2E8F
:1039B000BA2FA02D0B01B90190010C01CA01A00181
:1039C0001124FF27591B99F0593F50F4503E68F1DC
:1039D0001A16F040A22F232F342F4427585FF3CF1D
:1039E000469537952795A795F0405395C9F77EF4EE
:1039F0001F16BA0B620B730B840BBAF09150A1F037
:103A0000FF0FBB1F661F771F881FC2F70EC0BA0FBC
:103A1000621F731F841F48F4879577956795B79544
:103A2000F7959E3F08F0B0CF9395880F08F099273F
:103A3000EE0F9795879508950E94941D08F481E0F4
:103A400008950E94281D6894B1110C94031E0895D6
:103A50000E94E81D88F09F5798F0B92F9927B75119
:103A6000B0F0E1F0660F771F881F991F1AF0BA9522
:103A7000C9F714C0B13091F00E94021EB1E0089560
:103A80000C94021E672F782F8827B85F39F0B93F52
:103A9000CCF3869577956795B395D9F73EF49095D5
:103AA0008095709561957F4F8F4F9F4F0895E89453
:103AB00009C097FB3EF490958095709561957F4F76
:103AC0008F4F9F4F9923A9F0F92F96E9BB27939524
:103AD000F695879577956795B795F111F8CFFAF434
:103AE000BB0F11F460FF1BC06F5F7F4F8F4F9F4F65
:103AF00016C0882311F096E911C0772321F09EE8C3
:103B0000872F762F05C0662371F096E8862F70E028
:103B100060E02AF09A95660F771F881FDAF7880F02
:103B20009695879597F90895990F0008550FAA0B58
:103B3000E0E8FEEF16161706E807F907C0F01216C0
:103B40001306E407F50798F0621B730B840B950BC3
:103B500039F40A2661F0232B242B252B21F4089518
:103B60000A2609F4A140A6958FEF811D811D0895B5
:103B700097F99F6780E870E060E008959FEF80EC20
:103B8000089500240A9416161706180609060895C3
:103B900000240A9412161306140605060895092E29
:103BA0000394000C11F4882352F0BB0F40F4BF2B98
:103BB00011F460FF04C06F5F7F4F8F4F9F4F0895D8
:103BC00057FD9058440F551F59F05F3F71F04795CE
:103BD000880F97FB991F61F09F3F79F087950895B3
:103BE000121613061406551FF2CF4695F1DF08C0D2
:103BF000161617061806991FF1CF869571056105EF
:103C000008940895E894BB2766277727CB0197F996
:103C100008950E94941D08F48FEF089597FB072ED6
:103C200016F4009407D077FD09D00E94281E07FCE7
:103C300005D03EF4909581959F4F089570956195BC
:103C40007F4F0895EE0FFF1F0590F491E02D09942A
:103C5000AA1BBB1B51E107C0AA1FBB1FA617B707B2
:103C600010F0A61BB70B881F991F5A95A9F78095CE
:103C70009095BC01CD01089581E090E0F8940C94FA
:103C8000481EFB01DC0101900D920020E1F7089530
:043C9000F894FFCFD6
:103C9400010000804200008041000000000000801C
:103CA40042000080410000000000008042000080CB
:103CB400410000000000008042000080410000003C
:103CC40000000080420000804100000000000080ED
:103CD400420000804100000000000080420000809B
:103CE400410000000000008042000080410000000C
:103CF40000000080420000804100000000000080BD
:103D0400420000804100000000000080420000806A
:103D140041000000000000804200008041000000DB
:103D2400000000804200008041000000000000808C
:103D3400420000804100000000000080420000803A
:103D440041000000000000804200008041000000AB
:103D5400000000804200008041000000000000805C
:103D6400420000804100000000000080420000800A
:103D7400410000000000008042000080410000007B
:103D8400000000804200008041000000000000802C
:103D940042000080410000000000008042000080DA
:103DA400410000000000008042000080410000004B
:103DB40000000080420000804100000000000080FC
:103DC40042000080410000000000008042000080AA
:103DD400410000000000008042000080410000001B
:103DE40000000080420000804100000000000080CC
:103DF40042000080410000000000001E0100FFFF9F
:103E0400FFFF00E10000000000000100000000C10D
:103E14008081000000000000009106AB09B206A7F3
:103E240006F806B606D40600000000D90BD707F33F
:103E34000CF20C4E756D6265720050757A7A6C6581
:103E44000076657220312E3100737461676520003D
:103E540050726573732041206F7220422000416CC0
:103E64006C20537461676520436C65617221212164
:103E7400210047616D65204F766572212121210063
:00000001FF
