:100000000C94D1050C94F9050C94F9050C94F905A0
:100010000C94F9050C94F9050C94F9050C94F90568
:100020000C94F9050C94F9050C944F0F0C94BE0F29
:100030000C94F9050C94F9050C94F9050C94F90548
:100040000C94F9050C9401130C94F9050C94F90522
:100050000C94F9050C94F9050C94F9050C94F01125
:100060000C94F9050C94F9050C94F9050C94F90518
:100070000C94F9050C94F9050C94F9050C94F90508
:100080000C943A120C94F9050C94F9050C94F905AA
:100090000C94F9050C94F9050C94F9050C94F905E8
:1000A0000C94F9050C94F9050C94F9050000000076
:1000B000000000000000000000000100000000003F
:1000C000000000000100000200000000000000002D
:1000D0000002000003000000000000000000030018
:1000E0000004000000000000000000040000000008
:1000F00000000000000000000000000009000000F7
:1001000000000000000000000109010000000000E4
:1001100000000000000003000200000000000000DA
:1001200000000000020003000000000000000000CA
:1001300000000409040000000000000000000000AE
:1001400009000000000000000000000000000000A6
:100150000000000000000900010004000900040084
:10016000000000000900000009000300000000007A
:100170000900090009000100000000000000000063
:100180000900000002000000000009000200030056
:10019000000000000000000001000001000002005B
:1001A000000000000001000001000002000000004B
:1001B0000202040103020302030402000000000221
:1001C0000000010000010000000000000100000329
:1001D000000002000000000000000000020000001B
:1001E000000000000000000000000000000000000F
:1001F00000000001030100010301000000000000F5
:1002000000010002000100000000000000000001E9
:1002100000010000000000000000000000020000DB
:1002200000000000000000000000000000000000CE
:1002300000000000090000000000090000000000AC
:1002400001000000000000000400000000000200A7
:100250000000000003000000000000000300000098
:100260000200000000000000000004000100000087
:100270000000000000000900000009000900000063
:100280000000000009000000000000000000000164
:100290000201020200000000000000000200000055
:1002A0000200000000000000000200000002000048
:1002B0000000000000000201020102000000000036
:1002C0000000000000090000000000000000000025
:1002D0000000000000000000000000000100000914
:1002E00000000009000001000002000000000700FB
:1002F00000000002000002000000000700000000F3
:1003000003000001000009000000090000010000D6
:1003100000000000000000000000000000000000DD
:1003200000020001000000000007000000040003BC
:1003300000000000000000000002000100000000BA
:1003400000000000000003000400000000000000A6
:100350000700000001000300000000000000000092
:100360000000030001000000000000000000000089
:100370000001020302010007090000000000020062
:100380000000020000000000000000030001020362
:100390000000000000000000020002000000070949
:1003A0000000000000010003020100000000000046
:1003B000000000000000000000000000003E5B4F55
:1003C0005B3E3E6B4F6B3E1C3E7C3E1C183C7E3CB5
:1003D000181C577D571C1C5E7F5E1C00183C1800C3
:1003E000FFE7C3E7FF0018241800FFE7DBE7FF3053
:1003F000483A060E2629792926407F050507407FC1
:1004000005253F5A3CE73C5A7F3E1C1C08081C1C33
:100410003E7F14227F22145F5F005F5F06097F0129
:100420007F006689956A606060606094A2FFA29414
:1004300008047E040810207E201008082A1C0808E2
:100440001C2A08081E101010100C1E0C1E0C303830
:100450003E3830060E3E0E06000000000000005F31
:1004600000000007000700147F147F14242A7F2A4D
:10047000122313086462364956205000080703000F
:10048000001C2241000041221C002A1C7F1C2A085B
:10049000083E0808008070300008080808080000BE
:1004A00060600020100804023E5149453E00427F32
:1004B000400072494949462141494D331814127F81
:1004C0001027454545393C4A494931412111090721
:1004D0003649494936464949291E000014000000A2
:1004E0004034000000081422411414141414004174
:1004F00022140802015909063E415D594E7C121131
:10050000127C7F494949363E414141227F41414168
:100510003E7F494949417F090909013E41415173E3
:100520007F0808087F00417F41002040413F017F54
:10053000081422417F404040407F021C027F7F041C
:1005400008107F3E4141413E7F090909063E415165
:10055000215E7F09192946264949493203017F0155
:10056000033F4040403F1F2040201F3F4038403F56
:10057000631408146303047804036159494D43006C
:100580007F4141410204081020004141417F0402A3
:10059000010204404040404000030708002054543A
:1005A00078407F2844443838444444283844442818
:1005B0007F385454541800087E090218A4A49C786B
:1005C0007F0804047800447D40002040403D007FC7
:1005D0001028440000417F40007C047804787C08A7
:1005E0000404783844444438FC182424181824247B
:1005F00018FC7C08040408485454542404043F4460
:10060000243C4040207C1C2040201C3C4030403C8E
:1006100044281028444C9090907C4464544C4400EE
:100620000836410000007700000041360800020152
:100630000204023C2623263C1EA1A161123A40403E
:10064000207A3854545559215555794121545478BC
:1006500041215554784020545579400C1E52721255
:1006600039555555593954545459395554545800DD
:1006700000457C410002457D420001457C40F02957
:100680002429F0F0282528F07C54554500205454A6
:100690007C547C0A097F49324949493232484848EA
:1006A00032324A4848303A4141217A3A4240207831
:1006B000009DA0A07D39444444393D4040403D3C2C
:1006C00024FF2424487E4943662B2FFC2F2BFF094F
:1006D00029F620C0887E0903205454794100004443
:1006E0007D413048484A32384040227A007A0A0A2E
:1006F000727D0D19317D2629292F282629292926A1
:1007000030484D4020380808080808080808382FE5
:1007100010C8ACBA2F102834FA00007B000008146F
:100720002A142222142A14089500220095AA0055A2
:1007300000AAAA55AA55AA000000FF00101010FF39
:1007400000141414FF001010FF00FF1010F010F040
:10075000141414FC001414F700FF0000FF00FF1431
:1007600014F404FC141417101F10101F101F14147D
:10077000141F00101010F0000000001F10101010C7
:100780001F10101010F010000000FF1010101010BB
:1007900010101010FF10000000FF140000FF00FFF9
:1007A00000001F10170000FC04F414141710171495
:1007B00014F404F40000FF00F714141414141414B7
:1007C000F700F7141414171410101F101F1414142A
:1007D000F4141010F010F000001F101F0000001F94
:1007E00014000000FC140000F010F01010FF10FFC7
:1007F000141414FF141010101F00000000F010FF5C
:10080000FFFFFFFFF0F0F0F0F0FFFFFF000000003F
:1008100000FFFF0F0F0F0F0F38444438447C2A2A83
:100820003E147E02020606027E027E0263554941A4
:10083000633844443C04407E201E2006027E0202AF
:1008400099A5E7A5991C2A492A1C4C7201724C30C3
:100850004A4D4D303048784830BC625A463D3E499A
:100860004949007E0101017E2A2A2A2A2A44445F3E
:10087000444440514A444040444A51400000FF0132
:1008800003E080FF000008086B6B08361236243640
:10089000060F090F060000181800000010100030A5
:1008A00040FF0101001F01011E00191D1712003C2D
:1008B0003C3C3C0000000000060115012601370108
:1008C0004A015D01720188019F01B801D201EE0168
:1008D0000B022A024B026E029302BA02E4021003D8
:1008E0003F037003A403DC03170455049704DD04DD
:1008F00027057505C80520067D06E0064907B807E7
:100900002D08A9082D09B9094D0AEA0A900B400CD7
:10091000FA0CC00D910E6F0F5A1053115B12721327
:100920009A14D41520178018F519801B231DDE1E7C
:10093000B420A622B524E4263429A72B402E00316A
:10094000EA330037453ABC3D68414C456B49C84DD8
:1009500068524F57805C0062101112131516171859
:100960001A1C1D1F21232527292C2E3134373A3EEE
:100970004145494E52575C62686E757B838B939CF0
:10098000A5AFB9C4D0DCE9F70000000200090F00F0
:1009900000030401000C0000000000000000000043
:1009A00000000000000000F0F89C8E8783878E9C7A
:1009B000F8F00000FEFF0303030303070EFCF8003A
:1009C00000FEFF0303030303070EFCF80000FFFF14
:1009D00000000000000000FFFF0000FEFF83838393
:1009E0008383C7EE7C380000F8FC0E07030303077F
:1009F0000EFCF800003F7FE0C08080C0E07F3FFF3A
:100A0000FF01010101010101FFFF0000FFFF0C0CCC
:100A10000C0C1C3E77E3C100007FFFC0C0C0C0C00B
:100A2000E0703F1F00001F3F70E0C0C0C0E0703F9B
:100A30001F00007FFFC1C1C1C1C1E3773E1C0000A0
:100A40001F3F70E0C0C0C0E0703F1F00000000000A
:100A500001FFFF0100000000000000240027002A21
:100A6000002D003000D5F08D14A1C881CFD9F1AF91
:100A700020001402130212021502070208020401E8
:100A80000C010601001824424A52422418007E7EBE
:100A90007E7E7E7E00FF81BDA5ADA1BF80FF81B9B6
:100AA000F3E7FFE7FFFFF3EBDBBB81FBFFFFC1FDDC
:100AB000E1FDFDC1FFFFC3DBFBC3DFC3FFFFE7F7C2
:100AC000F7F7F7F7FFFF81A995A99581FF7E81A52B
:100AD000817E3C24661E3F7EFCFC7E3F1E080B0090
:100AE00002020200000904000001020200000524C5
:100AF000001001052401010104240206052406005A
:100B0000010705810310004009040100020A0000EA
:100B100000070502024000000705830240000004B0
:100B200003090412010002EF020140412336800054
:100B3000010102030141726475696E6F204C4C43E0
:100B40000041726475696E6F204C656F6E617264EE
:100B50006F00040802011040804010204080408057
:100B60000802040180402010020110801020404043
:100B70002000000000250028002B002E003100047A
:100B80000404040403040502020202040302020234
:100B90000206060606060604040202020404030115
:100BA0006C1311241FBECFEFDAE0DEBFCDBF12E021
:100BB000A0E0B1E0E0E4FCE302C005900D92AC3EA1
:100BC000B107D9F727E0ACEEB2E001C01D92AB3B14
:100BD000B207E1F715E0C1EDD5E004C02197FE01B1
:100BE0000E94F81DC03DD107C9F70E949F130C94C5
:100BF0001E1E0C94000085EB93E020E0B22FB11193
:100C0000BFEFFC010024B193B193B193B19303946E
:100C1000D1F70895FC0180914903882311F13FB772
:100C2000F89482E08093E9002091F200822F90E016
:100C30001816190614F481E090E0882339F02898FA
:100C400044E6409348034091F1004083222339F069
:100C50002091F200211103C02BE62093E8003FBF52
:100C600008958FEF9FEF08952FB7F89483E0809356
:100C7000E9009091E800892F807295FF04C090915F
:100C8000F20080E4891B2FBF0895809140038111F9
:100C90000DC082E080933C0384E080933D0310927A
:100CA0003F0310923E0381E0809340038CE393E086
:100CB0000895CF93DF931F92CDB7DEB76983DC0130
:100CC000ED91FC910280F381E02D41E050E0BE0106
:100CD0006F5F7F4F09950F90DF91CF91089583E06B
:100CE0008093E9008091F200882319F08AE38093D1
:100CF000E80008950E94340690E00895CF93DF93B2
:100D00001F92CDB7DEB7FC018485958597FD08C09D
:100D10002FEF3FEF358724870F90DF91CF91089514
:100D2000CE0101960E940A06019719F4898190E08C
:100D3000F3CF8FEF9FEFF0CF0F931F93CF93DF93FE
:100D40001F92CDB7DEB78C01FC018485958597FF96
:100D50000BC0CE0101960E940A06019771F48981A9
:100D600090E0F80195878487F801848595850F9038
:100D7000DF91CF911F910F9108958FEF9FEFF1CFEA
:100D8000FC018485958597FD0BC09FB7F89482E0A0
:100D90008093E9008091F2009FBF90E00196089552
:100DA0009FB7F89482E08093E9008091F2009FBFA2
:100DB00090E0089540913603509137032091340319
:100DC0003091350342175307B4F49091E8009570C1
:100DD000E1F39091E80092FD19C08093F1008091B9
:100DE00036039091370301968F739927892B19F455
:100DF0008EEF8093E800809136039091370301963F
:100E0000909337038093360381E0089580E008953E
:100E1000EF92FF920F931F93CF93DF93F82E192F2A
:100E2000E62E042F81E0860F880F0E94DA0683E009
:100E30000E94DA06CF2DD12FEC0EFD2EF11CCE151F
:100E4000DF05B9F007FF13C0FE0184910E94DA06A6
:100E5000182F80E00E94DA06812321968111EFCFBE
:100E6000DF91CF911F910F91FF90EF9008958881AE
:100E7000EDCF81E0F5CFDF92EF92FF920F931F93BA
:100E8000CF93DF93D82E8A01EB017B01E40EF51E90
:100E9000CE15DF0559F0D7FE12C0FE0184910E94E5
:100EA000DA0621968111F4CF0FEF1FEFC801DF9111
:100EB000CF911F910F91FF90EF90DF90089588815F
:100EC000EECF0F931F93CF93DF931F92CDB7DEB773
:100ED00082E0898342E450E06DED7AE080E80E9490
:100EE0003B070E944506DC0112960D911C910115ED
:100EF000110589F0D801ED91FC910280F381E02D7C
:100F0000BE016F5F7F4FC801099597FD04C0F801CE
:100F100000851185ECCF89810F90DF91CF911F91D2
:100F20000F910895615030F02091F100FC01208371
:100F30000196F8CF289884E6809348030895AF92ED
:100F4000BF92CF92DF92EF92FF920F931F93CF93B6
:100F5000DF936C017B018B01040F151FEB015E0118
:100F6000AE18BF08C017D10759F06991D601ED91AD
:100F7000FC910190F081E02DC6010995892B79F74C
:100F8000C501DF91CF911F910F91FF90EF90DF90FE
:100F9000CF90BF90AF900895282F30E0F901E85727
:100FA000F64F9491F901EE5AF44F84912158344F41
:100FB000F9012491222309F430C09923E9F09150DA
:100FC0009F30D0F4E92FF0E0E851F84F0C94F81D71
:100FD00016081A08F7070E081208FC07FC07FC079A
:100FE0001D08230827082B083108FC0735089091B5
:100FF00080009F7790938000E22FF0E0EE0FFF1FBC
:10100000EF58F44FA591B4919FB7F894EC9161110A
:1010100032C080958E238C939FBF0895909180005D
:101020009F7DE8CF90918000977FE4CF94B59F7724
:1010300094BDE2CF94B59F7DFBCF909190009F77B8
:1010400090939000D9CF909190009F7DF9CF90918F
:101050009000977FF5CF9091C0009F779093C0004C
:10106000CBCF9091C0009F7DF9CF9091C200977F28
:101070009093C200C1CF8E2BCECFCF93DF9390E061
:10108000FC01EE5AF44F24918158944FFC01849155
:101090008823C9F090E0880F991FFC01E95AF54FA9
:1010A000A591B491FC01EF58F44FC591D491611111
:1010B0000DC09FB7F8948C91209582238C938881E2
:1010C000282328839FBFDF91CF910895623051F488
:1010D0009FB7F8943C91822F809583238C93E8816D
:1010E0002E2BEFCF8FB7F894EC912E2B2C938FBF34
:1010F000EACF1F93CF93DF93182FEB0161E00E949B
:101100003D08209739F460E0812FDF91CF911F9146
:101110000C94CC07CF3FD10511F461E0F5CFE12F5E
:10112000F0E0E857F64FE491E150EF3008F07FC06F
:10113000F0E0E356F74F0C94F81DAC08B408B9087A
:10114000C308CD08170917091709D708E108EB08E4
:10115000F508020917090A0984B5806884BDC7BD6E
:10116000DF91CF911F91089584B5806284BDC8BD81
:10117000F7CF80918000806880938000D0938900B1
:10118000C0938800EDCF80918000806280938000C2
:10119000D0938B00C0938A00E3CF80918000886059
:1011A00080938000D0938D00C0938C00D9CF809124
:1011B0009000806880939000D0939900C09398002D
:1011C000CFCF80919000806280939000D0939B005D
:1011D000C0939A00C5CF8091900088608093900062
:1011E000D0939D00C0939C00BBCF8091C0008068CD
:1011F0008093C0008091C0008F7B8093C000C0931B
:10120000CF00AECF8091C00080628093C000C093B9
:10121000D000A6CF8091C20088608093C2008091E8
:10122000C2008B7F8093C200C093D20099CFC03898
:10123000D1050CF072CF67CF3FB7F8948091F602DA
:101240009091F702A091F802B091F90226B5A89BFF
:1012500005C02F3F19F00196A11DB11D3FBFBA2F48
:10126000A92F982F8827BC01CD01620F711D811D08
:10127000911D42E0660F771F881F991F4A95D1F78D
:1012800008958F929F92AF92BF92CF92DF92EF928A
:10129000FF924B015C010E941C096B017C010E94C2
:1012A0001C096C197D098E099F09683E73408105F0
:1012B0009105A8F321E0821A9108A108B10888EEEF
:1012C000C80E83E0D81EE11CF11C81149104A10416
:1012D000B10429F7FF90EF90DF90CF90BF90AF90CF
:1012E0009F908F9008958F929F92AF92BF92CF92CE
:1012F000DF92EF92FF920F931F93CF93DF936C01D6
:101300007B018A0180917902882309F45CC0809175
:101310004903882309F457C080913B0380FF05C02F
:101320008091E00082608093E000E801B12C8AEFB8
:10133000A82E93E0892E2AE3922E209711F4BB2049
:10134000D9F10E94340681110AC0AA94AA20D9F1C9
:1013500061E070E080E090E00E944109EECF8C17E0
:101360001D0611F00CF08C2F9FB7F8948092E900C5
:101370002091E80025FD02C09FBFDFCF282F30E07D
:10138000C21BD30BF701815020F041914093F10033
:10139000FACFE20EF31EBB2021F09092E800B12CB0
:1013A000EBCF8091E80085FDE7CF9092E800BB2469
:1013B000B394209709F3F3CF5D9884E680933A03C2
:1013C000101611063CF081E090E0F60193838283D1
:1013D00010E000E0C801DF91CF911F910F91FF90C5
:1013E000EF90DF90CF90BF90AF909F908F90089537
:1013F0004FB18CB123B190E08095909533E09595F5
:1014000087953A95E1F7887030E0209530953595CD
:101410002795359527952470822B942F9095907F52
:10142000892B0895FC0121912EBD9C5F21910DB463
:1014300007FEFDCF2EBDE817F907C1F70DB407FE73
:10144000FDCF0895CF92DF92EF92FF920F931F93FB
:10145000CF93E82FF0E0E256F44FC491E62FF0E08E
:10146000603398F5E85AF64FE4910E2F10E0F12C16
:10147000E12C60E074E284EF90E0A70198010E9403
:10148000221C215031094109510991E021153105F2
:1014900081E0480751056CF060E970ED83E090E071
:1014A000A70198010E94221C2150310941095109CC
:1014B00093E0C13089F0C330F9F0CF911F910F91C3
:1014C000FF90EF90DF90CF900895EE0FFF1FE85A46
:1014D000F74F05911491CBCF80918100887F892BA4
:1014E00080938100309389002093880080916F0061
:1014F000826080936F00E1CF80919100887F892B7B
:101500008093910030939900209398001093F402F7
:101510000093F30281E08093F20280917100826077
:1015200080937100CACFE82FF0E0E256F44FE491C7
:10153000E13019F0E33089F0089580916F008D7FDC
:1015400080936F0080914D03E0914E03F0914F0323
:10155000908180958923808308951092F202809172
:101560004A03E0914B03F0914C03F2CFCF93DF930A
:1015700090915003923081F0C82FE92FF0E0E256AD
:10158000F44FD4919F5F9093500361E00E943D0817
:10159000D13029F0D33049F1DF91CF9108951092E5
:1015A000800010928100809181008860809381008A
:1015B000809181008160809381008C2F90E0FC01FC
:1015C000E158F44FE491F0E0EE0FFF1FEF58F44FB5
:1015D0002591349130934F0320934E038E5A944FAC
:1015E000FC01849180934D03D7CF1092900010920C
:1015F000910080919100886080939100809191008A
:101600008160809391008C2F90E0FC01E158F44FB1
:10161000E491F0E0EE0FFF1FEF58F44F2591349165
:1016200030934C0320934B038E5A944FFC018491CA
:1016300080934A0380915003882321F06CE380E07B
:101640000E94220A80E0DF91CF910C94930A6038C7
:101650007105E8F440345105D0F4342F36953695B1
:101660003695A0E83A9FF0011124E60FF71FE80F26
:10167000F91F3489CA018770992741E050E001C001
:10168000440F8A95EAF7222319F0432B448B0895DF
:1016900040954323FBCF8F929F92AF92BF92CF9200
:1016A000DF92EF92FF920F931F93CF93DF939C01F2
:1016B000285F3F4F28383105B8F58B019B01285F23
:1016C0003F4F2834310580F56C01EA015A0188E06A
:1016D000A80EB11C80E8882E912CF12CE12CFE0183
:1016E0008491282F30E0C4010E2C02C09595879577
:1016F0000A94E2F782239323892B49F021E0A80181
:10170000B7016C0D7D1D81EA93E00E94270BFFEF6E
:10171000EF1AFF0A88E0E816F10409F721960F5F37
:101720001F4FCA15DB05C9F6DF91CF911F910F91AD
:10173000FF90EF90DF90CF90BF90AF909F908F90F1
:1017400008952F923F924F925F926F927F928F9265
:101750009F92AF92BF92CF92DF92EF92FF920F9340
:101760001F93CF93DF93CDB7DEB72D970FB6F894C5
:10177000DEBF0FBECDBF6A3069F5FC01EA5EFB4FEC
:10178000DC01A85EBB4F2C9148E0249F90011124FE
:1017900040815181240F351F3183208314971D927E
:1017A0001C922D960FB6F894DEBF0FBECDBFDF9111
:1017B000CF911F910F91FF90EF90DF90CF90BF904E
:1017C000AF909F908F907F906F905F904F903F90E1
:1017D0002F9008956D3029F39D878C878C5E9B4FE9
:1017E0009A838983FC01808091802C853D85285EC9
:1017F0003B4F3C832B8330E8831691040CF071C07F
:10180000EC85FD85EA5EFB4F6080718040E46416E4
:1018100071040CF066C0AB81BC814C9045E0940132
:10182000449E200D311D1124121613060CF059C0D0
:10183000242C312C910153E0220F331F5A95E1F7EC
:10184000260D371D121613060CF04BC0649FB00115
:10185000112410E000E0FB01E854FC4FFB87EA870D
:10186000E0E0053029F0EA85FB85E00FF11FE49107
:10187000530198E0592E2E2F30E03E832D83E170E6
:10188000EF83F12CE12CE414D8F4C4018E0D9F1DDC
:1018900099878887D12CC12CC41470F4A6014A0DF5
:1018A0005B1D2F81688579858C859D850E94270B1E
:1018B0009FEFC91AD90AF0CFAFEFEA1AFA0AE3CFBD
:1018C000ED81FE81F595E7955A94A20CB31C511059
:1018D000D2CF0F5F1F4F820C931C0630110509F009
:1018E000BFCFEB81FC812081422F50E0A981BA81DA
:1018F0008D919C91B6E02B9F800D911D1124E98163
:10190000FA8191838083EC85FD85E75EFB4F208122
:10191000222309F446CF6AEF64039001659F300DDE
:10192000112420583F4F281739070CF03ACFAC85C7
:10193000BD85ED91FC9111970190F081E02D6AE059
:10194000CD012D960FB6F894DEBF0FBECDBFDF914F
:10195000CF911F910F91FF90EF90DF90CF90BF90AC
:10196000AF909F908F907F906F905F904F903F903F
:101970002F900994089590E080E008950F931F93AD
:10198000CF93DF938C018CE0809FE001819FD00D8D
:101990001124CF5FDE4F20E030E040E051E4688169
:1019A00079818A819B810E94F21C87FF08C080E0B8
:1019B00090E0A0E0B1E488839983AA83BB838CE0A4
:1019C000809FE001819FD00D1124CF5FDE4F20E08A
:1019D00030E040EE52E4688179818A819B810E94E7
:1019E000DF1D181644F480E090E0A0EEB2E4888396
:1019F0009983AA83BB838CE0809FE001819FD00DF7
:101A00001124CF5FDE4F20E030E040E851E46C81EC
:101A10007D818E819F810E94F21C87FF08C080E03B
:101A200090E0A0E8B1E48C839D83AE83BF838CE01B
:101A3000809FE001819FD00D1124CF5FDE4F20E019
:101A400030E040E452E46C817D818E819F810E9470
:101A5000DF1D181644F480E090E0A0E6B2E48C8329
:101A60009D83AE83BF83DF91CF911F910F91089526
:101A70002F923F924F925F926F927F928F929F929E
:101A8000AF92BF92CF92DF92EF92FF920F931F938C
:101A9000CF93DF9300D01F92CDB7DEB710926902CB
:101AA00010926A028F31910514F08EE190E08093DC
:101AB0006B02E1E0F1E030E020E08217930729F0CB
:101AC00011862F5F3F4F3C96F8CF80916C0290912A
:101AD0006D0201972EE4289F2001299F500C1124AC
:101AE00000E110E0F12CE12C88E0682E712CD12C63
:101AF000C12CC20184559F4F1C014801012E000CCE
:101B0000AA08BB08F101EC0DFD1D94919983892F62
:101B100090E00097A9F107972CF480916A028F5FFB
:101B200080936A022CE02E9DF0012F9DF00D112470
:101B3000EF5FFE4FFB83EA83B301072C000C880B99
:101B4000990B0E942F1DEA81FB8160837183828340
:101B50009383C501B4010E942F1DEA81FB81648338
:101B6000758386839783C7010E94BE0C2981EA8111
:101B7000FB812287138681E081879FEFE91AF90AAA
:101B8000EFEFCE1ADE0AF8E06F0E711C2DE0C216E0
:101B9000D10409F0B7CF8DE0480E511C085F1F4FEC
:101BA0000034110509F0A0CF0F900F900F90DF9136
:101BB000CF911F910F91FF90EF90DF90CF90BF904A
:101BC000AF909F908F907F906F905F904F903F90DD
:101BD0002F90089583E090E090932E0380932D033F
:101BE00081E08093000188E78093260388E3809357
:101BF00025038EE190E00C94380D8F929F92AF9266
:101C0000BF920F931F93CF93DF93CDB7DEB7A1970A
:101C10000FB6F894DEBF0FBECDBF19A2423008F454
:101C20004AE08E010F5D1F4F842E912CB12CA12C08
:101C3000A50194010E94541CE62FB901CA01EA30A3
:101C400044F5E05DD801EE938D01232B242B252B49
:101C500079F790E080E0109769F0FD010190002095
:101C6000E9F73197AF014A1B5B0BBD0181EA93E0B5
:101C70000E949F07A1960FB6F894DEBF0FBECDBF9E
:101C8000DF91CF911F910F91BF90AF909F908F9058
:101C90000895E95CD7CFCF92DF92EF92FF92CF9376
:101CA000DF936B017C016DE281EA93E00E94A10B5E
:101CB000EC0166277727CB016C197D098E099F09F6
:101CC0004AE00E94FD0D8C0F9D1FDF91CF91FF9088
:101CD000EF90DF90CF900895FC0101900020E9F78C
:101CE0003197AF01481B590BBC0181EA93E00C947A
:101CF0009F072F923F924F925F926F927F928F92A7
:101D00009F92AF92BF92CF92DF92EF92FF920F938A
:101D10001F93CF93DF930E94EA0DD0E0C0E004E16F
:101D200010E082E0282E9AE2E92EF12C332433943D
:101D300024E6422E512C32E3632E712C4EE1C42E48
:101D4000D12C56E3A52EB12C6EE170E080E090E03E
:101D50000E9441090E94FB051093B6070093B50746
:101D600081E090E09093B8078093B7072092B9077D
:101D700083EA92E00E946C0E1093B6070093B507B9
:101D80001093B8070093B7072092B9078AEA92E048
:101D90000E946C0E1093B6070093B507F092B80737
:101DA000E092B7073092B90781EB92E00E946C0E87
:101DB0003092B9075092B6074092B507F092B80733
:101DC000E092B70760916C0270916D02072E000CD3
:101DD000880B990B97FF5DC00E944B0ECE010196B8
:101DE000B3010E94E41DEC01499774F4D092B60748
:101DF000C092B507B092B807A092B7073092B90762
:101E00008BEB92E00E946C0E80906C0290906D02C1
:101E10009AE0891691045CF40E94F80987FF07C0D4
:101E20008FEF881A980A90926D0280926C028090CF
:101E30006C0290906D0292E0891691045CF00E9411
:101E4000F80984FF07C081E0881A910890926D021A
:101E500080926C0285EB93E00E94120A0E94F809BE
:101E600083FD04C00E94F80982FF6ECFDF91CF91FD
:101E70001F910F91FF90EF90DF90CF90BF90AF90A8
:101E80009F908F907F906F905F904F903F902F909A
:101E900008954AE00E94FD0DA1CF0E94121E1F92DC
:101EA0000F920FB60F9211248F939F938091E100B0
:101EB0009091E100937F9093E10083FF0FC0109217
:101EC000E90091E09093EB001092EC0092E3909384
:101ED000ED001092490398E09093F00082FF22C039
:101EE00093E09093E9009091F200992319F09AE31E
:101EF0009093E80090913A03992341F090913A032E
:101F0000915090933A03911101C05D9A90914803CA
:101F1000992341F090914803915090934803911177
:101F200001C0289A84FF18C08091E2008E7E8160F3
:101F30008093E2008091E1008F7E8093E1008091A8
:101F40003B038E7E806180933B039F918F910F9026
:101F50000FBE0F901F90189580FFF7CF8091E20081
:101F60008E7E80618093E2008091E1008E7E80937E
:101F7000E10080913B038E7E8160E5CF1F920F923E
:101F80000FB60F921124CF92DF92EF92FF920F9330
:101F90001F932F933F934F935F936F937F938F93F1
:101FA0009F93AF93BF93EF93FF93CF93DF93CDB7FF
:101FB000DEB76C97DEBFCDBF1092E9008091E800DC
:101FC00083FF25C068E0CE0145960E94920782EF0C
:101FD0008093E8008D8987FF39C09091E80090FFD9
:101FE000FCCF982F907609F034C19E894F89588D87
:101FF0002F89F88C911131C0803861F580913903B7
:102000008093F1001092F1008EEF8093E8006C96BF
:102010000FB6F894DEBF0FBECDBFDF91CF91FF9119
:10202000EF91BF91AF919F918F917F916F915F9150
:102030004F913F912F911F910F91FF90EF90DF9063
:10204000CF900F900FBE0F901F9018959EEF90931A
:10205000E800C7CF1092F100D5CF913059F481112B
:10206000D3CF4130510581F6809139038D7F809324
:102070003903CACF933049F48111C6CF413051059D
:1020800019F6809139038260F2CF953041F4809146
:10209000E80080FFFCCF20682093E300B5CF9630A6
:1020A00009F0A9C00B8D1C8D22E01092E90010925E
:1020B000370310923603F2122EC01092350310929D
:1020C00034030E9461071F8299E09983FA8291E0AC
:1020D0009E8390EA98879AEF9987209136033091F2
:1020E0003703275F3F4F3C832B838D831092E9009A
:1020F0001092370310923603109335030093340384
:1021000049E050E0BE016F5F7F4F80E00E943B07D7
:102110000E94610779CF10933503009334030E9426
:102120004506DC0112960D911C910115110509F46B
:1021300051C1D801ED91FC910480F581E02DBE01E3
:102140006B5E7F4FC8010995009709F03EC1F80109
:1021500000851185EACFF3E0FF120EC08F89882336
:1021600009F440C0823061F440E860E181E49BE022
:102170000E940807811148CF81E28093EB0047CF8E
:10218000813029F440E86BE085E39BE0F1CF8330B8
:1021900099F70E944506DC011296ED90FC908E01A5
:1021A0000F5F1F4F6801E114F10479F0D701ED9141
:1021B000FC910680F781E02DB801C7010995080F51
:1021C000111DF701E084F184EECFD8011C92F601D5
:1021D00001900020E9F73197BF016C197D0940E0BB
:1021E000C601C6CF6FE17BE0FB01449150E080E87F
:1021F0000E943B0709CF973009F4BECF983021F4F5
:1022000081E08093F10000CF993009F0FDCE83701A
:1022100009F0B2CFEFE7F2E081E031E096E32191FF
:10222000222371F08093E9003093EB00DF011197D6
:102230002C912093EC009093ED008F5F873079F71D
:102240008EE78093EA001092EA008F898093490319
:10225000DBCE8B8D9C8D1092E9001092370310928B
:1022600036039093350380933403898D811192C096
:102270008E899D89913A49F4813209F07DCF47E0FA
:1022800050E062E772E080E0B3CF913209F074CFA2
:10229000833269F48F89988DB0E0A0E080936E025C
:1022A00090936F02A0937002B0937102ADCE803212
:1022B00069F48091E80082FFFCCF67E082E792E05A
:1022C0000E9492078BEF8093E8009ECE823209F045
:1022D0009BCE8F8980937902EEEFFFE785919491F1
:1022E0008B3F9C4D51F1E0E0F8E0809172029091BB
:1022F0007302A0917402B0917502803B9440A105D5
:10230000B105F1F48091790280FD1AC0EE3F8AE0B8
:10231000F80789F587E797E79183808380916000CC
:102320008093380388E19BE00FB6F894A8958093DA
:1023300060000FBE9093600067CEEEEFFAE0D5CF5D
:10234000808191818737974709F05ECEA89580916B
:102350006000886180936000809138038093600002
:10236000EE3F2AE0F20789F08091FE0A9091FF0A81
:102370009183808349CE808191818737980751F27C
:102380009093FF0A8093FE0AC5CF1092FF0A109225
:10239000FE0A3ACE0E944506DC0112960D911C9170
:1023A0000115110509F4E8CED801ED91FC910190D9
:1023B000F081E02DBE016B5E7F4FC8010995811150
:1023C00023CEF80100851185EBCF181619060CF401
:1023D0001BCED2CEF1E0FF12BECE63E27BE004CF93
:1023E0001F920F920FB60F9211242F933F938F934A
:1023F0009F93AF93BF9380912F0390913003A0914F
:102400003103B09132033091F50223E0230F2D37D1
:1024100058F50196A11DB11D2093F50280932F035D
:1024200090933003A0933103B09332038091F6026E
:102430009091F702A091F802B091F9020196A11DC6
:10244000B11D8093F6029093F702A093F802B09327
:10245000F902BF91AF919F918F913F912F910F9072
:102460000FBE0F901F90189526E8230F0296A11D0E
:10247000B11DD2CF1F920F920FB60F9211242F933E
:102480003F934F935F936F937F938F939F93AF93FC
:10249000BF93EF93FF938091F202882349F08091DC
:1024A0004A03E0914B03F0914C039081892780838C
:1024B0008091FA02882309F456C08091EE0290912F
:1024C000EF02A091F002B091F102892B8A2B8B2BA5
:1024D00009F449C08091EE029091EF02A091F002C0
:1024E000B091F1020197A109B1098093EE02909396
:1024F000EF02A093F002B093F102892B8A2B8B2B71
:1025000091F5E091EC02F091ED02BF016F5F7F4F1A
:102510007093ED026093EC022491922F907F822FB2
:102520008F70903819F40E94930AEBCF903981F4A0
:102530003296F093ED02E093EC02FB0164919091EE
:1025400050038917F0F667FDDCCF0E94220AD9CF2D
:10255000903E29F41092ED021092EC02D2CF903FFF
:1025600099F41092FA02FF91EF91BF91AF919F9170
:102570008F917F916F915F914F913F912F910F902C
:102580000FBE0F901F90189597FDBBCF3296F0931A
:10259000ED02E093EC02FB016491A091F302B09193
:1025A000F402322F262F0E94761C6C507E4F8F4FE4
:1025B0009F4F28EE33E040E050E00E94541C2093EF
:1025C000EE023093EF024093F0025093F1028091BB
:1025D000EE029091EF02A091F002B091F102892BEE
:1025E0008A2B8B2B09F0BFCF81E090E0A0E0B0E018
:1025F0008093EE029093EF02A093F002B093F10269
:10260000B2CF1F920F920FB60F9211248F939F9308
:10261000AF93BF93EF93FF9380912B03882309F42B
:1026200052C08091270390912803A0912903B09173
:102630002A03892B8A2B8B2BA1F190914D03E091DA
:102640004E03F0914F038081892780838091270377
:1026500090912803A0912903B0912A031816190616
:102660001A061B069CF48091270390912803A091E1
:102670002903B0912A030197A109B1098093270387
:1026800090932803A0932903B0932A03FF91EF911D
:10269000BF91AF919F918F910F900FBE0F901F90A0
:1026A000189510922B0380916F008D7F80936F009F
:1026B00080914D03E0914E03F0914F0390818095FE
:1026C00089238083E3CF90914D03E0914E03F091F5
:1026D0004F0380818927F5CFE1E5F3E01382128271
:1026E00088EE93E0A0E0B0E084839583A683B7836F
:1026F00089E892E0918380838FEF9FEF95878487AD
:10270000E1EAF3E0138212828BE992E09183808305
:102710008CE3868380E18187108617821686178670
:10272000108A118A128A1092B6071092B507109279
:10273000B8071092B70781E08093B9070895CF9347
:10274000DF93CDB7DEB72A970FB6F894DEBF0FBE82
:10275000CDBF789484B5826084BD84B5816084BD2A
:1027600085B5826085BD85B5816085BD80916E002F
:10277000816080936E001092810080918100826060
:10278000809381008091810081608093810080919D
:1027900080008160809380008091910082608093AE
:1027A00091008091910081608093910080919000D0
:1027B0008160809390008091C10084608093C1000B
:1027C0008091C10082608093C1008091C1008160CE
:1027D0008093C1008091C30081608093C300809189
:1027E000C00082608093C0008091C20081608093AD
:1027F000C20080917A00846080937A0080917A0090
:10280000826080937A0080917A00816080937A0060
:1028100080917A00806880937A0010924903109228
:10282000390310923B038091D70081608093D700D9
:1028300080EA8093D80089B5806189BD89B58260BE
:1028400089BD09B400FEFDCF61E070E080E090E05A
:102850000E9441098091D8008F7C80618093D800CC
:102860008091E000807F8093E0008091E1008E7E87
:102870008093E1008DE08093E200559A209A2FB773
:102880002983F8948091FB02811127C0E0E9FBE0E5
:102890008491E3E6FBE09491E82FF0E0EE0FFF1F58
:1028A000E95AF54FA591B491EC91E92321F461E047
:1028B00081E10E94CC0761E081E10E943D088CB576
:1028C00080618CBD8CB580648CBD61E08FE00E941E
:1028D0003D0861E080E10E943D088091FB028F5F2E
:1028E0008093FB0239813FBF42E75AE05A83498314
:1028F00069817A81FB0184916F5F7F4F3296FA8301
:10290000E983FB016491882319F00E943D08F0CF10
:1029100061E086E00E94CC0761E070E080E090E03A
:102920000E94410960E086E00E94CC076AE070E006
:1029300080E090E00E94410961E086E00E94CC07BF
:10294000EBE8FBE0E491F0E0EE0FFF1FEF58F44FEF
:10295000859194919093010380930003EEE5FBE051
:10296000E491E093FF02E3E8FBE0E491F0E0EE0F96
:10297000FF1FEF58F44F859194919093FE0280933E
:10298000FD02E6E5FBE0E491E093FC028CB58C7F70
:102990008CBD8DB581608DBDE0910003F091010388
:1029A00090818091FF02982B9083A091FD02B091BD
:1029B000FE022C919091FC02909592239C93908121
:1029C000809589238083E5E6FAE02AE0E237F20782
:1029D00049F084918EBD00000DB407FEFDCF8EB589
:1029E0003196F3CFE091FD02F091FE02808190914B
:1029F000FC02892B8083E0910003F0910103908118
:102A00008091FF028095892380838091640081609A
:102A10008093640080916400826080936400809160
:102A20006400806880936400809164008064809377
:102A30006400809165008160809365000E94F809C0
:102A400087FF1AC080E094E01EBC00000DB407FEB2
:102A5000FDCF2EB50197C1F770E060E08AE00E94DB
:102A6000790870E060E08BE00E94790870E060E037
:102A700089E00E947908FFCF6EEE462E55245A94C5
:102A800008E010E0B20169517F4F8AE00E947908A6
:102A90006FEF70E08BE00E9479086FEF70E089E0E3
:102AA0000E9479080E94FB05742C30EF43160CF449
:102AB0006DC0920157FE04C022273327241935091F
:102AC00027703327C20157FC079653E095958795E9
:102AD0005A95E1F757FE05C00197A801421B530B19
:102AE0009A01BC017695762F6627779567956F5585
:102AF0007C4FB0E0A0E04801821A930A8F3F5FEF5D
:102B000095070CF43AC050E040E0FD01E955F64F5E
:102B10007F015B01F0E8AF0EB11C8F3F980791F089
:102B2000F701E40FF51FE4916B01C40ED51EF0E030
:102B30001F01022E01C0220C0A94EAF7F60160A4DC
:102B4000262820A62115310599F0F701E40FF51F7D
:102B5000E4916501C40ED51EF0E01F01082C02C0EF
:102B6000359427940A94E2F7F60160A4262820A65B
:102B70004F5F5F4F4835510581F60196A85ABF4F08
:102B800060587F4FA03BB10509F0B8CF85EB93E0CB
:102B90000E94120A6BE170E080E090E00E9441091F
:102BA000F0EF7F1206C06AEF70E080E090E00E94D4
:102BB00041092FEF421A520A39E14316510409F034
:102BC00061CF6EEE72E080E090E00E9441096FEF0D
:102BD00070E08AE00E9479086FEF70E08BE00E945D
:102BE00079086FEF70E089E00E94790885E00E9423
:102BF000B60A8DE00E94B60A1092FA0282E090E0D6
:102C00000E941A1C882351F080916400877F809372
:102C1000640080916500877F809365000E94790E33
:102C20008FB7F89440912F03509130036091310396
:102C3000709132038FBF8FB7F89440912F0350915A
:102C4000300360913103709132038FBF88E280932B
:102C5000A70389E18093AA03809164008E7F80930B
:102C6000640087EC80937C0080E280937B0062E0CC
:102C700070E080E090E00E94410980917A008064D9
:102C800080937A0080917A0086FDFCCF4091780095
:102C900050917900409550955A8349838EE58093F1
:102CA0007C0062E070E080E090E00E944109809149
:102CB0007A00806480937A0080917A0086FDFCCF50
:102CC00000917800109179000E941C0900951095E0
:102CD000E981FA810E9FD0010F9FB00D1E9FB00DAC
:102CE00011249B01AC0120953095409550950E9490
:102CF000411C6B017C010E941C096C0D7D1D8E1D09
:102D00009F1D611571058105910511F00E94111C2F
:102D1000809164008160809364003324339488E35D
:102D2000282E8091330381113BC02FB7F8948091F6
:102D30002F0390913003A0913103B09132032FBF44
:102D40002091B303222391F02091AB03F82FF21BC3
:102D5000F093B4032091A8033091A9032F5F3F4F54
:102D60003093A9032093A8031092B3034091AF03BB
:102D70005091B0036091B1037091B203841795072D
:102D8000A607B707ACF4481B423050F083B7817FE9
:102D900083BF83B7816083BF889583B78E7F83BFEE
:102DA00080E090E0892B09F4BCCF0E940000B5CFF1
:102DB0002091AA03AC01BD01420F511D611D711D7F
:102DC0004093AF035093B0036093B1037093B20389
:102DD0008093AB039093AC03A093AD03B093AE0389
:102DE0003092B3038FB7F89440912F035091300382
:102DF00060913103709132038FBF0E94FB053092C6
:102E0000B9071A82198210E000E021E0A801698167
:102E10007A8181EA93E00E94270B0F5F1F4F0A30EF
:102E2000110599F729813A812F5F3F4F3A83298312
:102E30002F37310541F7E0902D03F0902E038BE002
:102E400090E070E060E06E157F050CF03DC08838C2
:102E50009105A8F4AC0148505109DC01AA56BC4FB9
:102E600030E020E04038510554F457FF0CC02F5F8C
:102E70003F4F4F5F5F4F11962830310599F76F5FD5
:102E80007F4F0A96E0CFF901EB52F54F049110E025
:102E9000000F111F0095109557961C91579701230D
:102EA00057960C935797E4918D0109561F4FF0E008
:102EB000EE0FEF2FEE1FFF0B6F01C094D094F801BF
:102EC000D080CD20C082D3CF2CE330E03093B60742
:102ED0002093B50741E050E05093B8074093B707FF
:102EE00060E281EA93E00E94A10B63E581EA93E04E
:102EF0000E94A10B64E581EA93E00E94A10B61E4CA
:102F000081EA93E00E94A10B67E481EA93E00E94CA
:102F1000A10B65E481EA93E00E94A10B60E281EAE3
:102F200093E00E94A10B60916C0270916D02072EDC
:102F3000000C880B990B97FF38C10E944B0E60E282
:102F400081EA93E00E94A10B81E091E09A8389835A
:102F50009A8789871E821D8280916B02E82FF0E09C
:102F6000F887EF832D813E812E173F070CF074C147
:102F7000A985BA8519968C911997882309F40AC1F5
:102F80001B968C911B97882309F404C11A968C9187
:102F90001A97873010F01B961C92E985FA853086C7
:102FA00080809180A280B380448055806680778045
:102FB0008385803209F422C108F0FBC0803109F416
:102FC0000EC121E031E03C832B8310E000E04D8115
:102FD0005E814017510709F430C1AB81BC8119965D
:102FE0008C911997882309F428C1E985FA852081F5
:102FF0003181428153816D917D918D919C910E948F
:10300000851C6B017C0120E030E0A9010E94DF1DDE
:10301000181624F0F7FAF094F7F8F09420E030E076
:1030200040E051E4C701B6010E94F21C87FF05C1D0
:10303000A985BA8514962D913D914D915C91179774
:10304000EB81FC8164817581868197810E94851C5A
:103050006B017C0120E030E0A9010E94DF1D181601
:1030600024F0F7FAF094F7F8F09420E030E040E034
:1030700051E4C701B6010E94F21C87FFDEC0309206
:103080002B0380918100887F81608093810027EBF2
:103090003FE430938900209388008EE390E0A0E025
:1030A000B0E08093270390932803A0932903B09363
:1030B0002A0380916F00826080936F00A985BA8592
:1030C0001B961C921B9718961C92C501B4010E9476
:1030D000F71C072E000C880B990B0E942F1DE98509
:1030E000FA856083718382839383C301B2010E9456
:1030F000F71C072E000C880B990B0E942F1DA98529
:10310000BA8514966D937D938D939C931797BCE02D
:10311000B09FF001B19FF00D1124EF5FFE4F82854B
:10312000873039F0E985FA859285983000F5891362
:103130001EC0A985BA8519961C92BCE0B09FF0010B
:10314000B19FF00D1124EF5FFE4F1186E985FA85DE
:103150009285973028F490916A02915090936A0278
:10316000873028F480916A02815080936A028D81B1
:103170009E810E94BE0C80916A0281110BC08091D9
:103180006C0290916D02019690936D0280936C0297
:1031900030922C038D819E8101969E838D83A9851B
:1031A000BA851C96BA87A987D7CE4AE00E94FD0D42
:1031B000C6CE803499F1803809F003CF20E030E0AA
:1031C00040E85FE3C301B2010E94851CA985BA856E
:1031D00014966D937D938D939C931797F2CE20E078
:1031E00030E040E85FE3C301B2010E94861CE9853C
:1031F000FA856483758386839783E3CE20E030E08D
:1032000040E85FE3C501B4010E94851CA985BA8529
:103210006D937D938D939C931397D3CE20E030E0F4
:1032200040E85FE3C501B4010E94861CE985FA8588
:103230006083718382839383C4CE0F5F1F4F2B8182
:103240003C81245F3F4F3C832B834F81588504177B
:1032500015070CF4BCCE8BCF1091260300912503EB
:10326000812F802B877009F063C00E94F80987FFC7
:1032700034C080E88093240380932303809100016D
:10328000B02FB81B8B2F809325030E94F80983FF72
:1032900066C00E94FB0585EB93E00E94120A64EF72
:1032A00071E080E090E00E94410980912D039091AF
:1032B0002E03019790932E0380932D031816190661
:1032C00014F03092220388E780932603209225038E
:1032D0008EE190E00E94380D46C00E94F80984FFFC
:1032E00009C080E18093240380932303809100012F
:1032F000800FC9CF0E94F80985FF0DC080E280933E
:1033000024038093230380910001E12FE81B8E2F7B
:1033100080932603BACF0E94F80986FFB6CF80E4D7
:10332000809324038093230380910001810FF0CFC9
:1033300080912403803831F480910001F02FF81B34
:103340008F2FA1CF803191F2803231F48091000132
:10335000212F281B822FDCCF803431F396CF0E949F
:10336000F80982FD96CF41E051E05C834B83D12C7C
:10337000C12CE0906B02F12C60912603CE14DF0487
:103380000CF089C0AB81BC8119968C91882309F41B
:1033900079C070E090E080E00E942F1D9B01AC019D
:1033A000EB81FC8160817181828193810E94851C07
:1033B0004B015C0120E030E0A9010E94DF1D1816DE
:1033C00024F0B7FAB094B7F8B09420E030E040E0D1
:1033D00051E4C501B4010E94F21C87FF53C0609103
:1033E000250370E090E080E00E942F1D9B01AC015E
:1033F000AB81BC8114966D917D918D919C911797B5
:103400000E94851C4B015C0120E030E0A9010E9474
:10341000DF1D181624F0B7FAB094B7F8B09420E086
:1034200030E040E051E4C501B4010E94F21C87FF86
:1034300029C030922B0380918100887F8160809326
:103440008100E7EBFFE4F0938900E09388002EE32E
:1034500030E040E050E0209327033093280340936E
:10346000290350932A0380916F00826080936F003C
:1034700080912303AB81BC811B968C931093260310
:1034800000932503BFEFCB1ADB0AEB81FC813C964E
:10349000FC83EB836ECF683018F488E080932603BA
:1034A00080912603813718F080E78093260380916E
:1034B0002503803118F480E1809325038091250352
:1034C000893310F020922503609125036450770B17
:1034D000809126034DEC5AE090E00E944B0B2CE0CB
:1034E00030E03C832B8345EC5AE06B817C8190E09B
:1034F00080E00E944B0B45EC5AE06B817C8188E7B1
:1035000090E00E944B0B4B815C81485F5F4F5C8376
:103510004B834C33510539F71C821B828B819C8174
:103520008E159F0509F457C0A981BA8119968C910F
:103530001997882379F16D917D918D919C910E94CD
:10354000F71C4B0120E030E040E850E4E981FA81CB
:1035500064817581868197810E94851C0E94F71C79
:10356000A981BA811A96EC91E150E93088F5F0E032
:10357000E454F54E0C94F81DC51AD61AD91ADC1A63
:10358000E81AE81ADF1AE21AE51A4DEB5AE0C4010C
:103590000E944B0BEB81FC813196FC83EB832981EC
:1035A0003A81245F3F4F3A832983B8CF45EB5AE0F5
:1035B000EECF4DEA5AE0EBCF45EA5AE0E8CF4DE9CD
:1035C0005AE0E5CF45E95AE0E2CF4DE85AE0DFCFD7
:1035D00045E85AE0DCCF80912C03882309F1109252
:1035E0002C033092330380916C0290916D020A9704
:1035F0000CF453C069EC72E082E093E00E94171E65
:1036000068EB7BE080E090E00E94410941E050E0FF
:1036100050936D0240936C02109233030E94790E16
:10362000809122038823A1F1109222033092330368
:10363000E1E0F0E0F0936D02E0936C020E94EA0D8D
:103640006DED72E082E093E00E94171E0E94FB0580
:1036500024E130E03093B6072093B50742E150E013
:103660005093B8074093B7073092B90782E093E0D0
:103670000E946C0E85EB93E00E94120A68EB7BE0DF
:1036800080E090E00E944109109233030E94790E7D
:1036900085EB93E00E94120A83CB6DEC72E082E02E
:1036A00093E00E94171E0E94EA0D0E94FB0584E130
:1036B00090E09093B6078093B507A2E1B0E0B09395
:1036C000B807A093B7073092B90782E093E00E9451
:1036D0006C0E85EB93E00E94120A68EB7BE080E0C1
:1036E00090E00E944109109233039ACF8F929F92EB
:1036F000AF92BF92CF92DF92EF92FF92CF93DF9380
:10370000EC01688179818A819B8161157105810550
:10371000910521F464E279ED8BE597E02DE133EF3B
:1037200041E050E00E94221C49015A019B01AC017A
:10373000A7EAB1E40E94411C6B017C01ACEEB4EF3E
:10374000A50194010E944F1CC60ED71EE81EF91E4B
:10375000F7FE06C081E0C81AD108E10880E8F80A3F
:10376000C882D982EA82FB82C701B6019F77DF91C6
:10377000CF91FF90EF90DF90CF90BF90AF909F9050
:103780008F9008958F929F92AF92BF92CF92DF92C7
:10379000EF92FF9260917A0270917B0280917C029D
:1037A00090917D02611571058105910521F464E216
:1037B00079ED8BE597E02DE133EF41E050E00E9499
:1037C000221C49015A019B01AC01A7EAB1E40E9405
:1037D000411C6B017C01ACEEB4EFA50194010E9489
:1037E0004F1CC60ED71EE81EF91EF7FE06C081E06C
:1037F000C81AD108E10880E8F80AC0927A02D0928B
:103800007B02E0927C02F0927D02C701B6019F77B5
:10381000FF90EF90DF90CF90BF90AF909F908F90F0
:10382000089560937A0270937B0280937C02909358
:103830007D020895F999FECF92BD81BDF89A99272E
:1038400080B50895052E97FB1EF400940E94391C44
:1038500057FD07D00E94541C07FC03D04EF40C9473
:10386000391C50954095309521953F4F4F4F5F4FF4
:10387000089590958095709561957F4F8F4F9F4FDC
:1038800008950E94761CA59F900DB49F900DA49F53
:10389000800D911D11240895B7FF0C94411C0E94C6
:1038A000411C821B930B0895A1E21A2EAA1BBB1B7D
:1038B000FD010DC0AA1FBB1FEE1FFF1FA217B307FC
:1038C000E407F50720F0A21BB30BE40BF50B661F12
:1038D000771F881F991F1A9469F7609570958095D6
:1038E00090959B01AC01BD01CF010895A29FB0014D
:1038F000B39FC001A39F700D811D1124911DB29F24
:10390000700D811D1124911D08955058BB27AA27C1
:103910000E949D1C0C94A51D0E94971D38F00E94CA
:103920009E1D20F039F49F3F19F426F40C94941D49
:103930000EF4E095E7FB0C948E1DE92F0E94B61D56
:1039400058F3BA17620773078407950720F079F4D4
:10395000A6F50C94D81D0EF4E0950B2EBA2FA02DD1
:103960000B01B90190010C01CA01A0011124FF272C
:10397000591B99F0593F50F4503E68F11A16F04027
:10398000A22F232F342F4427585FF3CF4695379526
:103990002795A795F0405395C9F77EF41F16BA0BEB
:1039A000620B730B840BBAF09150A1F0FF0FBB1F99
:1039B000661F771F881FC2F70EC0BA0F621F731FE2
:1039C000841F48F4879577956795B795F7959E3F3F
:1039D00008F0B0CF9395880F08F09927EE0F9795D0
:1039E000879508950E946A1D08F481E008950E9459
:1039F000FE1C6894B1110C94D91D08950E94BE1D3F
:103A000088F09F5798F0B92F9927B751B0F0E1F09F
:103A1000660F771F881F991F1AF0BA95C9F714C04F
:103A2000B13091F00E94D81DB1E008950C94D81DDA
:103A3000672F782F8827B85F39F0B93FCCF3869588
:103A400077956795B395D9F73EF4909580957095E5
:103A500061957F4F8F4F9F4F0895E89409C097FB62
:103A60003EF490958095709561957F4F8F4F9F4F55
:103A70009923A9F0F92F96E9BB279395F695879599
:103A800077956795B795F111F8CFFAF4BB0F11F45C
:103A900060FF1BC06F5F7F4F8F4F9F4F16C0882303
:103AA00011F096E911C0772321F09EE8872F762F39
:103AB00005C0662371F096E8862F70E060E02AF07A
:103AC0009A95660F771F881FDAF7880F9695879566
:103AD00097F90895990F0008550FAA0BE0E8FEEF3B
:103AE00016161706E807F907C0F012161306E407C2
:103AF000F50798F0621B730B840B950B39F40A26BB
:103B000061F0232B242B252B21F408950A2609F498
:103B1000A140A6958FEF811D811D089597F99F679C
:103B200080E870E060E008959FEF80EC0895002445
:103B30000A941616170618060906089500240A9412
:103B400012161306140605060895092E0394000C98
:103B500011F4882352F0BB0F40F4BF2B11F460FF27
:103B600004C06F5F7F4F8F4F9F4F089557FD905850
:103B7000440F551F59F05F3F71F04795880F97FB31
:103B8000991F61F09F3F79F08795089512161306EB
:103B90001406551FF2CF4695F1DF08C0161617061A
:103BA0001806991FF1CF869571056105089408954F
:103BB000E894BB2766277727CB0197F908950E94E1
:103BC0006A1D08F48FEF089597FB072E16F40094F2
:103BD00007D077FD09D00E94FE1D07FC05D03EF4FA
:103BE000909581959F4F0895709561957F4F0895A9
:103BF000EE0FFF1F0590F491E02D0994AA1BBB1B4B
:103C000051E107C0AA1FBB1FA617B70710F0A61BDC
:103C1000B70B881F991F5A95A9F780959095BC01FD
:103C2000CD01089581E090E0F8940C941E1EFB01F4
:103C3000DC0101900D920020E1F70895F894FFCF88
:103C40000100008042000080410000000000008070
:103C5000420000804100000000000080420000801F
:103C60004100000000000080420000804100000090
:103C70000000008042000080410000000000008041
:103C800042000080410000000000008042000080EF
:103C90004100000000000080420000804100000060
:103CA0000000008042000080410000000000008011
:103CB00042000080410000000000008042000080BF
:103CC0004100000000000080420000804100000030
:103CD00000000080420000804100000000000080E1
:103CE000420000804100000000000080420000808F
:103CF0004100000000000080420000804100000000
:103D000000000080420000804100000000000080B0
:103D1000420000804100000000000080420000805E
:103D200041000000000000804200008041000000CF
:103D30000000008042000080410000000000008080
:103D4000420000804100000000000080420000802E
:103D5000410000000000008042000080410000009F
:103D60000000008042000080410000000000008050
:103D700042000080410000000000008042000080FE
:103D8000410000000000008042000080410000006F
:103D90000000008042000080410000000000008020
:103DA00042000080410000000000001E0100FFFFF3
:103DB000FFFF00E10000000000000100000000C162
:103DC000808100000000000000590673097A066F28
:103DD00006C0067E069C0600000000A10B9F07BBE4
:103DE0000CBA0C4E756D6265720050757A7A6C650E
:103DF0000076657220312E302E310050726573735B
:103E00002041206F7220422000416C6C205374616D
:103E1000676520436C656172212121210047616D36
:0C3E200065204F766572212121210000F1
:00000001FF
