:100000000C94F8050C9420060C9420060C94200601
:100010000C9420060C9420060C9420060C942006C8
:100020000C9420060C9420060C94A80F0C94EB1052
:100030000C9420060C9420060C9420060C942006A8
:100040000C9420060C94E2080C9420060C942006D4
:100050000C9420060C9420060C9420060C94F507B2
:100060000C9420060C9420060C9420060C94200678
:100070000C9420060C9420060C9420060C94200668
:100080000C9480090C9420060C9420060C942006F5
:100090000C9420060C9420060C9420060C94200648
:1000A0000C9420060C9420060C942006751A781ADD
:1000B0007B1A7E1A8A1A8A1A811A841A871A7E066D
:1000C0008106700674067806A206A206A2068506B8
:1000D00089068D0693069706A2069D0619071E0738
:1000E00023072D07370781078107810741074B0742
:1000F00055075F076C0781077407F0F89C8E8783AC
:10010000878E9CF8F00000FEFF0303030303070E35
:10011000FCF80000FEFF0303030303070EFCF800D6
:1001200000FFFF00000000000000FFFF0000FEFFD6
:100130008383838383C7EE7C380000F8FC0E0703BB
:100140000303070EFCF800003F7FE0C08080C0E0A2
:100150007F3FFFFF01010101010101FFFF0000FFDF
:10016000FF0C0C0C0C1C3E77E3C100007FFFC0C0ED
:10017000C0C0C0E0703F1F00001F3F70E0C0C0C0A3
:10018000E0703F1F00007FFFC1C1C1C1C1E3773EE6
:100190001C00001F3F70E0C0C0C0E0703F1F0000A7
:1001A00000000001FFFF010000000000000024002B
:1001B00027002A002D003000D5F08D14A1C881CF72
:1001C000D9F1AF200014021302120215020702082F
:1001D0000204010C010601001824424A524224186C
:1001E000007E7E7E7E7E7E00FF81BDA5ADA1BF80AC
:1001F000FF81B9F3E7FFE7FFFFF3EBDBBB81FBFF19
:10020000FFC1FDE1FDFDC1FFFFC3DBFBC3DFC3FF9A
:10021000FFE7F7F7F7F7F7FFFF81A995A99581FFAA
:100220007E81A5817E3C24661E3F7EFCFC7E3F1EB7
:1002300000000000000000000000000000000100BD
:1002400000000000000000000100000200000000AB
:100250000000000000020000030000000000000099
:100260000000030000040000000000000000000483
:10027000000000000000000000000000000000007E
:10028000090000000000000000000000010901005A
:100290000000000000000000000003000200000059
:1002A0000000000000000000020003000000000049
:1002B000000000000000040904000000000000002D
:1002C0000000000009000000000000000000000025
:1002D0000000000000000000000009000100040010
:1002E00009000400000000000900000009000300EC
:1002F00000000000090009000900010000000000E2
:1003000000000000090000000200000000000900D9
:1003100002000300000000000000000001000001D6
:1003200000000200000000000001000001000002C7
:1003300000000000020204010302030203040200A1
:1003400000000002000001000001000000000000A9
:100350000100000300000200000000000000000097
:10036000020000000000000000000000000000008B
:100370000000000000000001030100010301000073
:100380000000000000010002000100000000000069
:10039000000000010001000000000000000000005B
:1003A000000200000000000000000000000000004B
:1003B000000000000000000009000000000009002B
:1003C0000000000001000000000000000400000028
:1003D0000000020000000000030000000000000018
:1003E0000300000002000000000000000000040004
:1003F00001000000000000000000090000000900EA
:1004000009000000000000000900000000000000DA
:1004100000000001020102020000000000000000D4
:1004200002000000020000000000000000020000C6
:1004300000020000000000000000020102010200B2
:1004400000000000000000000009000000000000A3
:10045000000000000000000000000000000000009C
:100460000100000900000009000001000002000076
:10047000000007000000000200000200000000076A
:100480000000000003000001000009000000090056
:10049000000100000000000000000000000000005B
:1004A0000000000000020001000000000007000042
:1004B0000004000300000000000000000002000132
:1004C0000000000000000000000003000400000025
:1004D0000000000007000000010003000000000011
:1004E0000000000000000300010000000000000008
:1004F00000000000000102030201000709000000E3
:1005000000000200000002000000000000000003E4
:1005100000010203000000000000000002000200D1
:1005200000000709000000000001000302010000B4
:1005300000000000000000000000000000000000BB
:10054000003E5B4F5B3E3E6B4F6B3E1C3E7C3E1C59
:10055000183C7E3C181C577D571C1C5E7F5E1C009F
:10056000183C1800FFE7C3E7FF0018241800FFE756
:10057000DBE7FF30483A060E2629792926407F0519
:100580000507407F05253F5A3CE73C5A7F3E1C1C2F
:1005900008081C1C3E7F14227F22145F5F005F5FEF
:1005A00006097F017F006689956A606060606094DB
:1005B000A2FFA29408047E040810207E20100808E0
:1005C0002A1C08081C2A08081E101010100C1E0CEB
:1005D0001E0C30383E3830060E3E0E06000000007D
:1005E0000000005F00000007000700147F147F1464
:1005F000242A7F2A122313086462364956205000A9
:1006000008070300001C2241000041221C002A1C94
:100610007F1C2A08083E080800807030000808087F
:100620000808000060600020100804023E5149459F
:100630003E00427F400072494949462141494D33BD
:100640001814127F1027454545393C4A4949314124
:10065000211109073649494936464949291E0000F2
:100660001400000040340000000814224114141447
:100670001414004122140802015909063E415D5933
:100680004E7C1211127C7F494949363E414141223C
:100690007F4141413E7F494949417F090909013E66
:1006A000414151737F0808087F00417F410020408D
:1006B000413F017F081422417F404040407F021C9F
:1006C000027F7F0408107F3E4141413E7F090909B6
:1006D000063E4151215E7F09192946264949493282
:1006E00003017F01033F4040403F1F2040201F3F48
:1006F0004038403F631408146303047804036159CD
:10070000494D43007F41414102040810200041410E
:10071000417F0402010204404040404000030708BA
:100720000020545478407F284444383844444428B6
:10073000384444287F385454541800087E0902185D
:10074000A4A49C787F0804047800447D40002040E5
:10075000403D007F1028440000417F40007C047829
:1007600004787C080404783844444438FC18242471
:100770001818242418FC7C080404084854545424F1
:1007800004043F44243C4040207C1C2040201C3C6E
:100790004030403C44281028444C9090907C446465
:1007A000544C4400083641000000770000004136F8
:1007B000080002010204023C2623263C1EA1A1617E
:1007C000123A4040207A38545455592155557941B0
:1007D0002154547841215554784020545579400C87
:1007E0001E52721239555555593954545459395568
:1007F0005454580000457C410002457D42000145AB
:100800007C40F0292429F0F0282528F07C54554517
:10081000002054547C547C0A097F493249494932AA
:100820003248484832324A4848303A4141217A3ABF
:1008300042402078009DA0A07D39444444393D4089
:1008400040403D3C24FF2424487E4943662B2FFC36
:100850002F2BFF0929F620C0887E090320545479E4
:10086000410000447D413048484A32384040227AB5
:10087000007A0A0A727D0D19317D2629292F282632
:100880002929292630484D4020380808080808083A
:100890000808382F10C8ACBA2F102834FA00007B93
:1008A000000008142A142222142A14089500220099
:1008B00095AA005500AAAA55AA55AA000000FF0053
:1008C000101010FF00141414FF001010FF00FF1090
:1008D00010F010F0141414FC001414F700FF0000C2
:1008E000FF00FF1414F404FC141417101F10101F41
:1008F000101F1414141F00101010F0000000001F2F
:10090000101010101F10101010F010000000FF1039
:100910001010101010101010FF10000000FF140035
:1009200000FF00FF00001F10170000FC04F4141467
:100930001710171414F404F40000FF00F714141433
:1009400014141414F700F7141414171410101F10B3
:100950001F141414F4141010F010F000001F101FD6
:100960000000001F14000000FC140000F010F01044
:1009700010FF10FF141414FF141010101F000000BB
:1009800000F010FFFFFFFFFFF0F0F0F0F0FFFFFFBF
:100990000000000000FFFF0F0F0F0F0F3844443816
:1009A000447C2A2A3E147E02020606027E027E0251
:1009B00063554941633844443C04407E201E200670
:1009C000027E020299A5E7A5991C2A492A1C4C72AD
:1009D00001724C304A4D4D303048784830BC625A34
:1009E000463D3E494949007E0101017E2A2A2A2AC4
:1009F0002A44445F444440514A444040444A5140A0
:100A00000000FF0103E080FF000008086B6B083660
:100A100012362436060F090F0600001818000000D1
:100A20001010003040FF0101001F01011E00191DC0
:100A30001712003C3C3C3C00000000000601150180
:100A4000260137014A015D01720188019F01B80149
:100A5000D201EE010B022A024B026E029302BA028D
:100A6000E40210033F037003A403DC0317045504DE
:100A70009704DD0427057505C80520067D06E006F8
:100A80004907B8072D08A9082D09B9094D0AEA0A2E
:100A9000900B400CFA0CC00D910E6F0F5A105311B1
:100AA0005B1272139A14D41520178018F519801B45
:100AB000231DDE1EB420A622B524E4263429A72B4C
:100AC000402E0031EA330037453ABC3D68414C4581
:100AD0006B49C84D68524F57805C00621011121369
:100AE000151617181A1C1D1F21232527292C2E31F6
:100AF00034373A3E4145494E52575C62686E757BC9
:100B0000838B939CA5AFB9C4D0DCE9F70000000249
:100B100000090F0000030401000C000000000000A9
:100B200000000000000000000000000408020110A6
:100B30004080401020408040800802040180402016
:100B4000100201108010204040200000000025000D
:100B500028002B002E0031000404040404030405C3
:100B6000020202020403020202020606060606064A
:100B7000040402020204040301080B000202020141
:100B80000009040000010202000005240010010514
:100B90002401010104240206052406000107058141
:100BA0000310004009040100020A000000070502CA
:100BB00002400000070583024000000403090412FC
:100BC000010002EF020140412336800001010203CF
:100BD0000141726475696E6F204C4C430041726430
:100BE00075696E6F204C656F6E6172646F00441B97
:100BF00011241FBECFEFDAE0DEBFCDBF11E0A0E0D1
:100C0000B1E0E0E3FCE302C005900D92A438B10727
:100C1000D9F727E0A4E8B1E001C01D92A83CB207D3
:100C2000E1F715E0C8EFD5E004C02197FE010E946E
:100C3000F01DC73FD107C9F70E941B130C94161E65
:100C40000C940000CF92DF92EF92FF920F931F93CC
:100C5000CF93DF936C017A018B01C0E0D0E0CE1519
:100C6000DF0589F0D8016D918D01D601ED91FC91E0
:100C70000190F081E02DC6010995892B11F47E01C8
:100C800002C02196ECCFC701DF91CF911F910F9148
:100C9000FF90EF90DF90CF900895089580E090E06E
:100CA00008950E940A1E362F90E0FC01E45FF44F85
:100CB0004491FC01E55DF44F2491FC01E85AF44FA6
:100CC0008491882309F451C04423E1F150E0FA01F2
:100CD0003197EF30F105B0F5E15AFF4F0C94F01D5C
:100CE000909180009F7707C0909180009F7D03C006
:100CF00090918000977F9093800024C094B59F7757
:100D000002C094B59F7D94BD1DC0909190009F77C7
:100D100007C0909190009F7D03C090919000977FB5
:100D2000909390000FC09091C0009F7703C0909166
:100D3000C0009F7D9093C00005C09091C200977F36
:100D40009093C200E82FF0E0EE0FFF1FE65BF44F38
:100D5000A591B4918FB7F894EC91311103C020950F
:100D60002E2301C02E2B2C938FBF0895CF93DF939A
:100D700090E0FC01E55DF44F2491FC01E85AF44F4A
:100D80008491882361F190E0880F991FFC01E6555A
:100D9000FE4FC591D491FC01E65BF44FA591B4914F
:100DA000611109C09FB7F8948881209582238883B8
:100DB000EC912E230BC0623061F49FB7F894388118
:100DC000822F809583238883EC912E2B2C939FBFB9
:100DD00006C08FB7F894E8812E2B28838FBFDF9150
:100DE000CF9108951F93CF93DF93182FEB0161E00C
:100DF0000E94B606209711F460E004C0CF3FD105F1
:100E000039F461E0812FDF91CF911F910C9453064B
:100E1000E12FF0E0E45FF44FE4914E2F50E0FA014F
:100E20003197EF30F10508F06CC0E259FF4F0C9498
:100E3000F01D84B5806884BDC7BD68C084B580627C
:100E400084BDC8BD63C080918000806880938000AD
:100E5000D0938900C093880059C08091800080623F
:100E600080938000D0938B00C0938A004FC0809104
:100E70008000886080938000D0938D00C0938C00A8
:100E800045C080919000806880939000D093990035
:100E9000C09398003BC08091900080628093900046
:100EA000D0939B00C0939A0031C0809190008860DD
:100EB00080939000D0939D00C0939C0027C08091A8
:100EC000C00080688093C0008091C0008F7B8093B9
:100ED000C000C093CF001AC08091C0008062809390
:100EE000C000C093D00012C08091C200886080937F
:100EF000C2008091C2008B7F8093C200C093D20059
:100F000005C0C038D1050CF07CCF76CFDF91CF91F2
:100F10001F9108953FB7F8948091D3019091D40127
:100F2000A091D501B091D60126B5A89B05C02F3F51
:100F300019F00196A11DB11D3FBFBA2FA92F982FFF
:100F40008827820F911DA11DB11DBC01CD0142E07A
:100F5000660F771F881F991F4A95D1F708958F92C2
:100F60009F92AF92BF92CF92DF92EF92FF926B016E
:100F70007C010E948A074B015C01C114D104E10489
:100F8000F104F1F00E948A07DC01CB01881999096C
:100F9000AA09BB09883E9340A105B10570F321E081
:100FA000C21AD108E108F10888EE880E83E0981E85
:100FB000A11CB11CC114D104E104F10419F7DDCF67
:100FC000FF90EF90DF90CF90BF90AF909F908F9069
:100FD00008952FB7F8946091CF017091D00180915E
:100FE000D1019091D2012FBF08951F920F920FB699
:100FF0000F9211242F933F938F939F93AF93BF939F
:101000008091CF019091D001A091D101B091D201F6
:101010003091CE0123E0230F2D3720F40196A11D3E
:10102000B11D05C026E8230F0296A11DB11D209316
:10103000CE018093CF019093D001A093D101B093C2
:10104000D2018091D3019091D401A091D501B091AA
:10105000D6010196A11DB11D8093D3019093D401B7
:10106000A093D501B093D601BF91AF919F918F917D
:101070003F912F910F900FBE0F901F9018958FB139
:101080002CB193B130E02095309520743327A9011D
:1010900023E0559547952A95E1F7292F30E02095D3
:1010A0003095207133273595279535952795242B35
:1010B0008095807F822B0895FC0121912EBD9C5F3D
:1010C00021910DB407FEFDCF2EBDE817F907C1F73A
:1010D0000DB407FEFDCF0895CF92DF92EF92FF92FD
:1010E0000F931F93CF93E82FF0E0E958F44FC4918A
:1010F000E62FF0E0603330F4E452F54FE4910E2F28
:1011000010E006C0EE0FFF1FE452F64F0591149158
:101110006801E12CF12C60E074E284EF90E0A7011B
:1011200096010E941A1CBA01A90141505109610996
:1011300071094115510581E06807710580F060E98A
:1011400070ED83E090E0A70196010E941A1CBA019D
:10115000A901415051096109710983E001C081E091
:10116000C130C9F0C33031F590919100987F892B3F
:101170008093910050939900409398001093CD0173
:101180000093CC0181E08093CB018091710082605B
:10119000809371000FC090918100987F892B80937C
:1011A0008100509389004093880080916F00826095
:1011B00080936F00CF911F910F91FF90EF90DF9080
:1011C000CF9008951F920F920FB60F9211242F9374
:1011D0003F938F939F93AF93BF93EF93FF93809130
:1011E0008B01882309F44DC080918701909188017B
:1011F000A0918901B0918A01892B8A2B8B2B51F107
:101200008091DD01E091DE01F091DF01908189277D
:1012100080838091870190918801A0918901B0918C
:101220008A01181619061A061B06A4F58091870173
:1012300090918801A0918901B0918A010197A1093B
:10124000B1098093870190938801A0938901B0939D
:101250008A0120C010928B0180916F008D7F809356
:101260006F009091DD01E091DE01F091DF0180815E
:10127000282F30E0892F90E080959095822393234A
:1012800008C08091DD01E091DE01F091DF019081E5
:1012900089278083FF91EF91BF91AF919F918F91AB
:1012A0003F912F910F900FBE0F901F901895E82F30
:1012B000F0E0E958F44FE491E13019F0E33069F0DF
:1012C000089580916F008D7F80936F009091DD0174
:1012D000E091DE01F091DF0108C01092CB01909106
:1012E000DA01E091DB01F091DC018081282F30E010
:1012F000892F90E080959095822393238083089591
:101300001F920F920FB60F9211242F933F934F937A
:101310005F936F937F938F939F93AF93BF93EF935D
:10132000FF938091CB01882349F08091DA01E0910D
:10133000DB01F091DC019081892780838091840119
:10134000882309F493C08091C7019091C801A091AE
:10135000C901B091CA01892B8A2B8B2B09F486C055
:101360008091C7019091C801A091C901B091CA01B3
:101370000197A109B1098093C7019093C801A09377
:10138000C901B093CA01892B8A2B8B2B09F06EC03F
:10139000E091C501F091C601BF016F5F7F4F70936F
:1013A000C6016093C5014491942F907F842F8F7064
:1013B000903819F40E945709EBCF903981F4329696
:1013C000F093C601E093C501FB0164919091E001A7
:1013D0008917F0F667FDDCCF0E946C08D9CF903EEC
:1013E00029F41092C6011092C501D2CF903F19F492
:1013F000109284013BC097FDCBCF3296F093C6018B
:10140000E093C501FB01249130E0342BA091CC0185
:10141000B091CD010E946E1C6C507E4F8F4F9F4F3C
:1014200028EE33E040E050E00E944C1C2093C701BE
:101430003093C8014093C9015093CA018091C701FC
:101440009091C801A091C901B091CA01892B8A2B42
:101450008B2B61F481E090E0A0E0B0E08093C701C5
:101460009093C801A093C901B093CA01FF91EF9175
:10147000BF91AF919F918F917F916F915F914F91AC
:101480003F912F910F900FBE0F901F9018956038CD
:10149000710518F54034510500F5A42FA695A695C1
:1014A000A695B0E047705527B695BA2FAA27B795ED
:1014B000A7956A0F7B1FFC01E60FF71F81E090E004
:1014C00001C0880F4A95EAF7222319F09489892BE5
:1014D00003C0809594898923848B08952F923F922D
:1014E0004F925F926F927F928F929F92AF92BF9234
:1014F000CF92DF92EF92FF920F931F93CF93DF93E0
:10150000CDB7DEB72A970FB6F894DEBF0FBECDBFBA
:101510006A3091F4FC01E85EFB4F408132972081F4
:10152000318158E0459F200D311D112431832083E6
:10153000329711821082C1C06D3009F4BEC09A8703
:101540008987885E9B4F9C838B83DC012C90E98587
:10155000FA85EA5EFB4F60807180E985FA85EC5E72
:10156000FB4FFA83E9830081118100381105D4F023
:10157000AB81BC812C91422F50E0E981FA818081BE
:101580009181F6E02F9F800D911D1124A981BA81D0
:101590008D939C93E985FA85E75EFB4F20812111AD
:1015A0005EC08BC0B0E46B16710414F7C801E5E0AF
:1015B0002E9E800D911D112418161906CCF6422C72
:1015C000512CC301F8E02F9E800D911D1124181697
:1015D000190674F655E0659F900111243F832E8310
:1015E000E12CF12C85E0E816F10441F0EE81FF8159
:1015F000EE0DFF1DE45CFA4F349001C0312C630105
:1016000038E0932D91709D834801882D801B8215B1
:10161000B0F456018A2D8C19821568F42D81A5012C
:10162000B40189859A8538870E94470AAFEFAA1AC4
:10163000BA0A3885EFCFBFEF8B1A9B0AE6CF3694F4
:101640003150C40CD51C3111DCCFEFEFEE1AFE0A7D
:10165000040D151DF6E0EF16F10421F689CF6AEFAF
:1016600064039001659F300D112420583F4F2817C7
:1016700039071CF5A985BA85ED91FC911197019068
:10168000F081E02D6AE0CD012A960FB6F894DEBF16
:101690000FBECDBFDF91CF911F910F91FF90EF90C3
:1016A000DF90CF90BF90AF909F908F907F906F9082
:1016B0005F904F903F902F9009942A960FB6F89420
:1016C000DEBF0FBECDBFDF91CF911F910F91FF9075
:1016D000EF90DF90CF90BF90AF909F908F907F90D2
:1016E0006F905F904F903F902F9008950F931F93AE
:1016F000CF93DF938C018CE0809FE001819FD00D20
:101700001124CF51DE4F20E030E040E051E4688109
:1017100079818A819B810E94EA1C87FF08C080E052
:1017200090E0A0E0B1E488839983AA83BB838CE036
:10173000809FE001819FD00D1124CF51DE4F20E02A
:1017400030E040EE52E4688179818A819B810E9479
:10175000D71D181644F480E090E0A0EEB2E4888330
:101760009983AA83BB838CE0809FE001819FD00D89
:101770001124CF51DE4F20E030E040E851E46C818D
:101780007D818E819F810E94EA1C87FF08C080E0D6
:1017900090E0A0E8B1E48C839D83AE83BF838CE0AE
:1017A000809FE001819FD00D1124CF51DE4F20E0BA
:1017B00030E040E452E46C817D818E819F810E9403
:1017C000D71D181644F480E090E0A0E6B2E48C83C4
:1017D0009D83AE83BF83DF91CF911F910F910895B9
:1017E0002F923F924F925F926F927F928F929F9231
:1017F000AF92BF92CF92DF92EF92FF920F931F931F
:10180000CF93DF9300D000D000D0CDB7DEB71092D9
:101810000101109202018F31910514F08EE190E0E8
:1018200080930301EAEEF1E020E030E099272817E9
:1018300039072CF410822F5F3F4F3C96F8CF8091F0
:101840000401909105012EE4289F1001299F300C7E
:10185000112490E1A92EB12CE12CF12CC12CD12C1A
:1018600051E088E0882E912C00E010E09701220DD5
:10187000331D2E54310925010B2C000C6608770806
:10188000F901E00FF11FE05DFD4F4491842F90E0DE
:101890000097E1F107972CF4809102018F5F80930C
:1018A00002018CE08C9DB0018D9D700D1124FB0117
:1018B000EF51FE4FFE83ED83B401092C000C880B21
:1018C000990B2A833B8349835C830E94271DED810A
:1018D000FE816083718382839383C301B2010E947E
:1018E000271DED81FE816483758386839783C601FE
:1018F0000E94760B4981ED81FE81428713865C81CF
:101900005187FFEFCF1ADF0A3B812A810F5F1F4FFC
:1019100088E0880E911C0D30110509F0B1CF9DE0D3
:10192000E90EF11CE8E0AE0EB11CFEE4EF16F10486
:1019300009F097CF26960FB6F894DEBF0FBECDBF45
:10194000DF91CF911F910F91FF90EF90DF90CF909B
:10195000BF90AF909F908F907F906F905F904F90CF
:101960003F902F90089583E090E090938D018093B5
:101970008C0181E08093000188E78093860188E3F1
:101980008093850180E88093C40180E28093C30145
:1019900082E0809306018EE190E00C94F00B4F9270
:1019A0005F926F927F928F929F92AF92BF92CF92EF
:1019B000DF92EF92FF920F931F93CF93DF930E94DA
:1019C000B30CC0E0D0E004E110E066246394712C15
:1019D00092E0592E2AE2E22EF12C4424439432E381
:1019E000C32ED12C4EE1A42EB12C56E3852E912C82
:1019F0006EE170E080E090E00E94AF070E94FB0E75
:101A000010935E0700935D077092600760925F0716
:101A1000509261078EE591E00E940A0F10935E07D5
:101A200000935D071093600700935F075092610772
:101A300085E691E00E940A0F10935E0700935D0710
:101A4000F0926007E0925F07409261078CE691E0B8
:101A50000E940A0FCE010196B6010E94DC1DEC0126
:101A6000499774F4B0925E07A0925D079092600768
:101A700080925F074092610786E791E00E940A0F1B
:101A80008DE593E00E945C080E943F0883FD04C03E
:101A90000E943F0882FFACCFDF91CF911F910F9141
:101AA000FF90EF90DF90CF90BF90AF909F908F907E
:101AB0007F906F905F904F900895FC018091D901C5
:101AC000811103C08FEF9FEF08959FB7F89482E0D4
:101AD0008093E9002091F20030E01216130614F40E
:101AE00021E030E02115310559F0289884E68093F3
:101AF000D8018091F10080838091F200882319F051
:101B00009FBFC90108958BE68093E800F9CF2FB7F6
:101B1000F89483E08093E9009091E800892F807227
:101B200095FF04C09091F20080E4891B2FBF0895B7
:101B3000CF93DF931F92CDB7DEB76983DC01ED91C0
:101B4000FC910280F381E02D41E050E0BE016F5F27
:101B50007F4F09950F90DF91CF91089583E0809397
:101B6000E9008091F200882319F08AE38093E8006D
:101B700008950E94870D90E00895CF93DF931F9200
:101B8000CDB7DEB7FC018485958597FD05C02FEFA5
:101B90003FEF358724870BC0CE0101960E945D0D73
:101BA000019719F4898190E002C08FEF9FEF0F90A9
:101BB000DF91CF9108950F931F93CF93DF931F92DF
:101BC000CDB7DEB78C01FC018485958597FF0EC0EB
:101BD000CE0101960E945D0D019719F4298130E034
:101BE00002C02FEF3FEFF80135872487F801848585
:101BF00095850F90DF91CF911F910F910895FC0172
:101C00008485958597FD0BC09FB7F89482E08093FB
:101C1000E9008091F2009FBF90E0019608959FB780
:101C2000F89482E08093E9008091F2009FBF90E0F9
:101C300008958F929F92AF92BF92CF92DF92EF92D0
:101C4000FF920F931F93CF93DF935C016B017A0197
:101C500080910E01882309F45BC08091D90188230B
:101C600009F456C08091D70180FF05C08091E00043
:101C700082608093E000E70110E00AEF83E0882EA5
:101C80009AE3992E2097D9F10E94870D81110AC0FD
:101C9000015009F43DC061E070E080E090E00E94F6
:101CA000AF07F0CF282F30E0C217D3070CF48C2FEA
:101CB0004FB7F8948092E9009091E80095FF1DC01D
:101CC000282F30E0C21BD30BF601982F915020F043
:101CD00081918093F100FACFC20ED31E112319F027
:101CE0009092E80009C08091E80085FD06C09092BE
:101CF000E80011E0209709F010E04FBFC3CF1111A9
:101D0000C3CF5D9884E6809363071E141F0444F0DC
:101D100081E090E0F5019383828380E090E001C050
:101D2000C701DF91CF911F910F91FF90EF90DF904E
:101D3000CF90BF90AF909F908F9008954F925F92F9
:101D40006F927F928F929F92AF92BF92CF92DF92CB
:101D5000EF92FF920F931F93CF93DF939C01285F25
:101D60003F4F28383105B0F59B01285F3F4F28349D
:101D7000310580F55A017B016C01C0E0D0E080E8BC
:101D8000882E912C00E010E025014C0E5D1E3E01D6
:101D90006E0C7F1CF201849190E09401002E02C031
:101DA000359527950A94E2F782239323892B49F0EE
:101DB00021E0A301B8016C0D7D1D89E493E00E9430
:101DC000470A0F5F1F4F0830110521F72196C830D1
:101DD000D105C1F6DF91CF911F910F91FF90EF9048
:101DE000DF90CF90BF90AF909F908F907F906F903B
:101DF0005F904F90089520E08DE593E0B22FB111F0
:101E0000BFEFFC010024B193B193B193B19303945C
:101E1000D1F70895009769F0FC0101900020E9F7DF
:101E20003197AF01481B590BBC0189E493E00C9436
:101E3000220680E090E00895CF93DF939091E00137
:101E4000923009F46EC0C82F292F30E0F901E9580B
:101E5000F44FD491F901E059F84F80839F5F90933C
:101E6000E00161E00E94B606D13019F0D33039F1BB
:101E700058C010928000109281008091810088608B
:101E800080938100809181008160809381008C2FFC
:101E900090E0FC01E85AF44FE491F0E0EE0FFF1FF0
:101EA000E65BF44F259134913093DF012093DE01FE
:101EB000FC01E55DF44F84918093DD0132C0109206
:101EC0009000109291008091910088608093910021
:101ED000809191008160809391008C2F90E0FC01B3
:101EE000E85AF44FE491F0E0EE0FFF1FE65BF44F89
:101EF000259134913093DC012093DB01FC01E55DF9
:101F0000F44F84918093DA018091E001882321F0DD
:101F10006CE380E00E946C0880E0DF91CF910C942C
:101F20005709DF91CF9108958091680781110DC005
:101F300082E08093640784E08093650710926707CE
:101F40001092660781E08093680784E697E0089521
:101F50001F920F920FB60F9211248F939F9380912F
:101F6000E1009091E100937F9093E10083FF0FC027
:101F70001092E90091E09093EB001092EC0092E354
:101F80009093ED001092D90198E09093F00082FFB9
:101F900020C093E09093E9009091F200992319F00A
:101FA0009AE39093E80090916307992339F0909118
:101FB0006307915090936307992389F19091D80119
:101FC000992339F09091D80191509093D801992399
:101FD00041F184FF10C08091E2008E7E8160809389
:101FE000E2008091E1008F7E8093E1008091D70133
:101FF0008E7E806111C080FF16C08091E2008E7ECF
:1020000080618093E2008091E1008E7E8093E10008
:102010008091D7018E7E81608093D70104C05D9A44
:10202000CDCF289AD6CF9F918F910F900FBE0F9052
:102030001F9018954091C6075091C7072091C4077B
:102040003091C50742175307B4F49091E80095709A
:10205000E1F39091E80092FD19C08093F100809126
:10206000C6079091C70701968F739927892B19F49A
:102070008EEF8093E8008091C6079091C707019684
:102080009093C7078093C60781E0089580E0089584
:10209000CF92DF92EF92FF920F931F93CF93DF9334
:1020A0001F92CDB7DEB7182F062FE42E862F880F8C
:1020B0008E5F99830E941A1083E00E941A10F12EFD
:1020C000C12E9981D92E8C2D8F19801798F4F60185
:1020D000E7FE02C0849101C080810E941A10182F6F
:1020E00080E00E941A108123FFEFCF1ADF0A8111CE
:1020F000EACF01C081E00F90DF91CF911F910F9146
:10210000FF90EF90DF90CF900895DF92EF92FF92D3
:102110000F931F93CF93DF93D82E8A017B01E40E98
:10212000F51EEB01CE15DF0571F0D7FE03C0FE01F1
:10213000849101C088810E941A1021968111F2CFEA
:102140008FEF9FEF01C0C801DF91CF911F910F91D9
:10215000FF90EF90DF900895615030F02091F100F2
:10216000FC0120830196F8CF289884E68093D8015B
:1021700008950F931F93CF93DF931F92CDB7DEB7D0
:1021800082E0898342E450E069E77BE080E80E94D6
:1021900085100E94940FDC0112960D911C911397EB
:1021A0000115110569F0D801ED91FC910280F381D0
:1021B000E02DBE016F5F7F4FC801099597FF07C0F3
:1021C00089810F90DF91CF911F910F910895F801B0
:1021D00000851185E5CF1F920F920FB60F92112443
:1021E000CF92DF92EF92FF920F931F932F933F9323
:1021F0004F935F936F937F938F939F93AF93BF930F
:10220000EF93FF93CF93DF93CDB7DEB76C97DEBF2D
:10221000CDBF1092E9008091E80083FFEDC168E036
:10222000CE0145960E94AC1082EF8093E8008D8924
:1022300087FF05C09091E80090FFFCCF03C09EEFA0
:102240009093E800982F907609F0C6C09E892F8958
:10225000188D91110CC0803829F48091C3078093A8
:10226000F10002C01092F1001092F10048C1422F1B
:1022700050E0512B913051F4811141C14130510551
:1022800009F03DC18091C3078D7F0BC0933061F48D
:10229000811135C14130510509F031C18091C30729
:1022A00082608093C3072BC1953041F48091E80090
:1022B00080FFFCCF20682093E30021C1963009F015
:1022C0005FC0EB8CFC8C1092E9001092C707109253
:1022D000C607123091F51092C5071092C4070E94EC
:1022E000B91099E0BE016F5F7F4FDB01E92F1D92AE
:1022F000EA95E9F799831A8391E09E8390EA98879B
:102300009AEF99872091C6073091C707275F3F4F03
:102310003C832B838D831092E9001092C7071092A3
:10232000C607F092C507E092C40749E050E080E09C
:102330000E9485100E94B910E2C0F092C507E09299
:10234000C4070E94940FDC011296ED90FC90139745
:10235000E114F10409F4C0C0D701ED91FC910480AF
:10236000F581E02DBE016B5E7F4FC7010995009797
:1023700019F00CF0C4C0C7C0F701E084F184E8CFC5
:10238000973009F4C0C0983021F481E08093F100C7
:10239000B6C0993009F0B3C0837009F0B4C0E6E369
:1023A000F1E081E021E036E39081992361F08093B0
:1023B000E9002093EB0091919093EC003093ED00B5
:1023C0008F5F873089F78EE78093EA001092EA00EA
:1023D0008F898093D90193C08B8D9C8D1092E900D9
:1023E0001092C7071092C6079093C5078093C40741
:1023F000898D811156C08E899D89913A59F4813217
:1024000009F081C047E050E067E071E080E00E94A1
:10241000851075C0913209F076C0833289F4888DB9
:1024200090E0982F88272F89822BA0E0B0E080933E
:102430000F0190931001A0931101B09312015FC09E
:10244000803269F48091E80082FFFCCF67E087E08A
:1024500091E00E94AC108BEF8093E80006C08232BE
:1024600009F04DC08F8980930E018091C2078823A7
:1024700019F0EEEFFAE002C0E0E0F8E08091070129
:1024800090910801A0910901B0910A01803B94400C
:10249000A105B10509F07BC080910E0180FF93C0BA
:1024A00076C00E94940FDC0112960D911C91139737
:1024B0000115110541F1D801ED91FC910190F081D8
:1024C000E02DBE016B5E7F4FC8010995811117C0D9
:1024D000F80100851185ECCF113009F44EC013309E
:1024E00091F48F89882309F445C0823081F440E853
:1024F00060E18DED9BE00E944810882321F08EEF73
:102500008093E80079C081E28093EB0075C0813050
:1025100029F440E86BE081ED9BE0EDCF833099F743
:102520000E94940FDC011296ED90FC9013978E019F
:102530000F5F1F4F6801E114F10479F0D701ED91AD
:10254000FC910680F781E02DB801C7010995080FBD
:10255000111DF701E084F184EECFD8011C92F60141
:1025600001900020E9F73197BF016C197D0940E027
:10257000C601C1CF6BEB7BE002C06FEB7BE0611566
:10258000710509F2FB01449150E080E840CF0FB69D
:10259000F894A89580916000886180936000109203
:1025A00060000FBEA895EE3F2AE0F20739F0809157
:1025B000FE0A9091FF0A91838083A1CF1092FF0AB7
:1025C0001092FE0A9CCFEE3F8AE0F80731F080813E
:1025D00091819093FF0A8093FE0A87E797E79183A2
:1025E00080839BE088E10FB6F894A8958093600003
:1025F0000FBE9093600083CF6C960FB6F894DEBF49
:102600000FBECDBFDF91CF91FF91EF91BF91AF9101
:102610009F918F917F916F915F914F913F912F91FA
:102620001F910F91FF90EF90DF90CF900F900FBE12
:102630000F901F901895CF93DF93CDB7DEB7E59736
:102640000FB6F894DEBF0FBECDBF789484B582601C
:1026500084BD84B5816084BD85B5826085BD85B546
:10266000816085BD80916E00816080936E001092C4
:10267000810080918100826080938100809181003F
:1026800081608093810080918000816080938000D0
:10269000809191008260809391008091910081608F
:1026A0008093910080919000816080939000809150
:1026B000C10084608093C1008091C10082608093DA
:1026C000C1008091C10081608093C1008091C300EE
:1026D00081608093C3008091C00082608093C000BD
:1026E0008091C20081608093C20080917A008460F2
:1026F00080937A0080917A00826080937A00809142
:102700007A00816080937A0080917A00806880935B
:102710007A001092D9011092C3071092D7018091CC
:10272000D70081608093D70080EA8093D80089B574
:10273000806189BD89B5826089BD09B400FEFDCF85
:1027400061E070E080E090E00E94AF078091D800E7
:102750008F7C80618093D8008091E000807F80939F
:10276000E0008091E1008E7E8093E1008DE0809317
:10277000E200559A209AEEEFFFE7859194918B3F06
:102780009C4D19F481E08093C2071FB7F8948091A3
:102790008F01811127C0E9E6FBE08491ECE3FBE0C7
:1027A0009491E82FF0E0EE0FFF1FE655FE4FA59144
:1027B000B491EC91E92321F461E081E10E94530698
:1027C00061E081E10E94B6068CB580618CBD8CB55C
:1027D00080648CBD61E08FE00E94B60661E080E11C
:1027E0000E94B60680918F018F5F80938F011FBF7B
:1027F00005EC11E0F80184910E5F1F4F3196649152
:10280000882319F00E94B606F5CF61E086E00E94A9
:10281000530661E070E080E090E00E94AF0760E066
:1028200086E00E9453066AE070E080E090E00E943B
:10283000AF0761E086E00E945306E4E6FBE0E49126
:10284000F0E0EE0FFF1FE65BF44F859194919093BB
:10285000950180939401E7E3FBE0E491E093930119
:10286000ECE5FBE0E491F0E0EE0FFF1FE65BF44FD8
:10287000859194919093920180939101EFE2FBE016
:10288000E491E09390018CB58C7F8CBD8DB5816017
:102890008DBDE0919401F09195019081809193011B
:1028A000982B9083A0919101B09192012C919091DD
:1028B0009001909592239C939081809589238083A9
:1028C000E8EBF1E001E0E53CF00749F084918EBDD2
:1028D00000000DB407FEFDCF8EB53196F3CFE09129
:1028E0009101F0919201908180919001892B8083D8
:1028F000E0919401F09195019081809193018095F0
:10290000892380838091640081608093640080913A
:10291000640082608093640080916400806880938A
:1029200064008091640080648093640080916500FD
:102930008160809365000E943F0887FF1AC080E095
:1029400094E01EBC00000DB407FEFDCF2EB501972C
:10295000C1F760E070E08AE00E94F20660E070E09B
:102960008BE00E94F20660E070E089E00E94F206CF
:10297000FFCF0EEE1FEF66246A94712C98E0A92E0B
:10298000B12C88E1801BB301681B71098AE00E94A9
:10299000F2066FEF70E08BE00E94F2066FEF70E0DE
:1029A00089E00E94F2060E94FB0E302E20EF0217F3
:1029B000A4F48DE593E00E945C086BE170E080E098
:1029C00090E00E94AF0730EF331264C06AEF70E00E
:1029D00080E090E00E94AF075DC0980117FF04C03F
:1029E00022273327201B310B27703327C80117FDFF
:1029F0000796B3E095958795BA95E1F717FF05C05F
:102A00000197A501421B530B9A017C01F694FE2C01
:102A1000EE24F794E79440E050E02501421A530A6F
:102A2000B70160587F4F4B018F3F7FEF970744F40A
:102A30000196485A5F4F7401403B510589F7B9CF61
:102A4000D701AF50BC4F60E070E08F3FEFEF9E07C3
:102A500009F4FFC5FB01E40FF51FE650FF4F24907A
:102A60006D01C818D908CE0CDF1CE22DF0E0022E53
:102A700002C0EE0FFF1F0A94E2F7FBA3EAA3F601E0
:102A80002080EAA1FBA1E229FBA3EAA32AA0F60188
:102A90002082DFC50F5F1F4F0931110509F071CF8B
:102AA0006EEE72E080E090E00E94AF076FEF70E0A2
:102AB0008AE00E94F2066FEF70E08BE00E94F2065F
:102AC0006FEF70E089E00E94F20685E00E941C0F23
:102AD0008DE00E941C0F1092840182E090E00E9421
:102AE000121C882369F080916400877F80936400C2
:102AF00080916500877F8093650081E080938E01DF
:102B00000E94CF0C0E94E9076093BE017093BF0141
:102B10008093C0019093C1010E94E90760939601E0
:102B200070939701809398019093990188E2809324
:102B30004F0389E180935203809164008E7F8093DC
:102B4000640087EC80937C0080E280937B0062E0ED
:102B500070E080E090E00E94AF0780917A0080648E
:102B600080937A0080917A0086FDFCCF00917800F6
:102B700010917900009510958EE580937C0062E0BD
:102B800070E080E090E00E94AF0780917A0080645E
:102B900080937A0080917A0086FDFCCFE0907800E7
:102BA000F09079000E948A079B01AC012095309536
:102BB00040955095E094F094E09ED001E19EB00DD8
:102BC000F09EB00D11240E94391C6B017C010E9403
:102BD0008A076C0D7D1D8E1D9F1D61157105810578
:102BE000910511F00E94091C80916400816080931E
:102BF00064008091C201811124C50E94E9079B01F4
:102C0000AB01BC0180915B03882389F08091530361
:102C1000022F081B00935C03809150039091510395
:102C20000196909351038093500310925B0380911F
:102C3000570390915803A0915903B0915A03481734
:102C400059076A077B077CF4821B823008F4F9C4B9
:102C500083B7817F83BF83B7816083BF889583B744
:102C60008E7F83BFEEC4809152038A019B01080FBF
:102C7000111D211D311D00935703109358032093FC
:102C8000590330935A034093530350935403609372
:102C900055037093560311E010935B030E94E907FC
:102CA0006093BE017093BF018093C0019093C101F6
:102CB0000E94FB0E10936107E12CF12C00E010E064
:102CC00021E0A801B70189E493E00E94470A0F5F61
:102CD0001F4F0A301105A1F71FEFE11AF10A2FE784
:102CE000E216F10459F700918C0110918D012BE04F
:102CF00030E060E070E0601771070CF043C02838E6
:102D0000310508F03AC0A90148505109F8E2AF2E48
:102D1000F2E0BF2ED901AB5ABC4F403851056CF5DB
:102D200057FF0AC04F5F5F4F8FEFA81AB80A11967E
:102D30004217530791F721C0F501849190E0880F65
:102D4000991F80959095EC90F12C8E219F218C936A
:102D5000849190E0880F892F881F990B4C018094F3
:102D600090947D01F0E8EF0EF11CF701C080D12CAA
:102D7000C4018C219D218083D5CF6F5F7F4F265F5B
:102D80003F4FB9CF88E490E090935E0780935D0752
:102D900081E090E09093600780935F0760E289E4B0
:102DA00093E00E946E0A63E589E493E00E946E0A54
:102DB00064E589E493E00E946E0A61E489E493E0AB
:102DC0000E946E0A67E489E493E00E946E0A65E45B
:102DD00089E493E00E946E0A60E289E493E00E9435
:102DE0006E0AC0900401D09005010D2C000CEE0875
:102DF000FF08F7FE28C0E0914903F0914A030190D3
:102E0000F081E02D6DE289E493E0099522273327D4
:102E1000A9012C193D094E095F0919A28E010F5D08
:102E20001F4FCA01B9012AE030E040E050E00E94A3
:102E30004C1C605DD8016E938D0121153105410553
:102E4000510579F717C0A701960119A28E010F5DF0
:102E50001F4FCA01B9012AE030E040E050E00E9473
:102E60004C1C605DF80162938F012115310541050D
:102E7000510579F7C8010E940A0F60E289E493E0E6
:102E80000E946E0A01EE11E01BA70AA70BEE11E0EB
:102E90001DA70CA70CEE11E01FA70EA71BA30AA3EA
:102EA0000BEE11E01DA30CA301EE11E019A618A66C
:102EB00080910301A82FB0E0BDABACABE8A5F9A5AC
:102EC000EA17FB070CF078C12AA13BA12250310977
:102ED0003BAB2AABD9018C91882309F459C1EAA1F3
:102EE000FBA18081882309F453C1ACA1BDA18C91C1
:102EF000873008F01082EAA1FBA13397F9ABE8AB69
:102F0000222423942082D8018D909D90AD90BC9076
:102F1000139714964D905D906D907C901797EAA151
:102F2000FBA18081803229F180F48031F1F520E02D
:102F300030E040E85FE3C301B2010E947E1CF8016B
:102F4000648375838683978330C0803409F1803829
:102F500061F520E030E040E85FE3C301B2010E9488
:102F60007D1CD80114966D937D938D939C93179738
:102F70001CC020E030E040E85FE3C501B4010E94DE
:102F80007D1CD8016D937D938D939C9313970DC0F9
:102F900020E030E040E85FE3C501B4010E947E1C00
:102FA000F801608371838283938321EE31E03FA334
:102FB0002EA3212C312C48A559A52416350609F439
:102FC000C5C0AEA1BFA119968C911997882309F4A9
:102FD000BDC0F80120813181428153816D917D9185
:102FE0008D919C910E947D1C6B017C0120E030E062
:102FF000A9010E94D71D181624F0F7FAF094F7F8EB
:10300000F09420E030E040E051E4C701B6010E94B6
:10301000EA1C87FF9BC0D80114962D913D914D91DC
:103020005C911797EEA1FFA16481758186819781DC
:103030000E947D1C6B017C0120E030E0A9010E9410
:10304000D71D181624F0F7FAF094F7F8F09420E062
:1030500030E040E051E4C701B6010E94EA1C87FF5E
:1030600075C0F1E0F0938B0180918100887F8160D1
:103070008093810027EB3FE4309389002093880000
:103080004EE350E060E070E0409387015093880188
:103090006093890170938A0180916F0082608093B0
:1030A0006F00AAA1BBA11C92E8A9F9A91082C501D1
:1030B000B4010E94EF1C072E000C880B990B0E9494
:1030C000271DD8016D937D938D939C931397C30116
:1030D000B2010E94EF1C072E000C880B990B0E9476
:1030E000271DF80164837583868397832CE0229DD6
:1030F000F001239DF00D1124EF51FE4F82858730A2
:1031000039F0ACA1BDA19C91983070F598132CC0FA
:10311000EAA9FBA910822CE0229DF001239DF00D6D
:103120001124EF51FE4F1186ACA1BDA19C919730A7
:1031300028F4909102019150909302018730A0F4FD
:10314000809102018150809302010EC0BFEF2B1AC3
:103150003B0AEEA1FFA13C96FFA3EEA32CA93DA93B
:10316000221633060CF427CF88A599A50E94760B6A
:103170008091020181110CC08091040190910501A0
:103180000196909305018093040131E03093BD01D5
:1031900048A559A54F5F5F4F59A748A7045F1F4F28
:1031A0006CA17DA1645F7F4F7DA36CA38AA19BA1CD
:1031B0000C969BA38AA37CCEB0908601A09085013B
:1031C0008A2D8B298770D1F50E943F08807880383E
:1031D00051F48093BC018093BB0180910001FA2DD2
:1031E000F81B8F2F0DC00E943F08982F907184FF0D
:1031F0000AC09093BC019093BB01809100018A0D9D
:103200008093850136C00E943F08982F907285FFF9
:103210000AC09093BC019093BB01809100012B2CBC
:10322000281A822D24C00E943F08982F907486FF90
:1032300020C09093BC019093BB0116C08091BC014B
:10324000803831F4809100010A2D081B802FD8CFDF
:10325000803199F2803231F4809100011B2D181BCE
:10326000812F05C0803429F4809100018B0D80935B
:1032700086010E943F0883FD04C00E943F0882FF30
:1032800025C00E94FB0E8DE593E00E945C0864EF70
:1032900071E080E090E00E94AF0780918C019091F6
:1032A0008D01019790938D0180938C01181619065A
:1032B0001CF081E08093BA0188E78093860188E35F
:1032C000809385018EE190E00E94F00B91EEE92E53
:1032D00091E0F92EC12CD12C9924939400910301F3
:1032E00010E0C016D1060CF08AC0EEA5FFA53297FB
:1032F0008081882309F476C06091860170E080E0C7
:1033000090E00E94271D9B01AC01D7016D917D913A
:103310008D919C910E947D1C2B013C0120E030E0AE
:10332000A9010E94D71D181624F077FA709477F837
:10333000709420E030E040E051E4C301B2010E940B
:10334000EA1C87FF4FC06091850170E080E090E04B
:103350000E94271D9B01AC01F70164817581868164
:1033600097810E947D1C2B013C0120E030E0A901E7
:103370000E94D71D181624F077FA709477F870948D
:1033800020E030E040E051E4C301B2010E94EA1CB9
:1033900087FF28C090928B0180918100887F816097
:1033A0008093810007EB1FE410938900009388004D
:1033B0002EE330E040E050E0209387013093880115
:1033C0004093890150938A0180916F0082608093BD
:1033D0006F008091BB01AEA5BFA58C93B092860112
:1033E000A0928501BFEFCB1ADB0A0EA51FA5045FD3
:1033F0001F4F1FA70EA71CE0E10EF11C6FCF80919D
:103400008601883018F488E08093860180918601D7
:1034100090E0813791051CF080E7809386018091D0
:103420008501803118F480E18093850180918501C8
:1034300090E0C9971CF088E3809385016091850135
:1034400070E0645071098091860140E252E090E0A2
:103450000E949E0E8CE0E82EF12C48E152E0B7016C
:1034600080E090E00E949E0E48E152E0B70188E7BC
:1034700090E00E949E0E28E0E20EF11C3CE3E31671
:10348000F10459F7E12CF12CE016F10609F456C0CD
:10349000ECA5FDA531978081882309F440C0AAA539
:1034A000BBA56D917D918D919C910E94EF1C4B016C
:1034B0005C0120E030E040E850E4EAA5FBA564812F
:1034C0007581868197810E947D1C0E94EF1CACA5AE
:1034D000BDA5EC914E2E512CF2013197E930F1054A
:1034E000C8F4EA5AFF4F0C94F01D40E152E014C0BA
:1034F00048E052E011C040E052E00EC048EF51E019
:103500000BC040EF51E008C048EE51E005C040EE6E
:1035100051E002C048ED51E0C4010E949E0EBFEF91
:10352000EB1AFB0AEAA5FBA53C96FBA7EAA72CA58C
:103530003DA5245F3F4F3DA72CA7A6CF8091BD019D
:10354000882309F441C01092BD0181E08093C2013B
:1035500080910401909105010A976CF06CE371E091
:103560008AE991E00E940F1E81E090E090930501AE
:103570008093040108C060E471E08AE991E00E9450
:103580000F1E0E94B30C0E94FB0E84E190E090930A
:103590005E0780935D0782E190E0909360078093DF
:1035A0005F0781E0809361078AE991E00E940A0F3A
:1035B0008DE593E00E945C0868EB7BE080E090E0A2
:1035C0000E94AF071092C2018091BA018823A9F12D
:1035D0001092BA0111E01093C20181E090E0909343
:1035E0000501809304010E94B30C60E571E08AE953
:1035F00091E00E940F1E0E94FB0E84E190E09093E8
:103600005E0780935D0782E190E09093600780936E
:103610005F07109361078AE991E00E940A0F8DE528
:1036200093E00E945C0868EB7BE080E090E00E9401
:10363000AF071092C2010E94CF0C8DE593E00E946B
:103640005C0880E090E0892B09F4D3CA0E94000056
:10365000D0CA2115310581F0FB01E40FF51FE650BA
:10366000FF4FE491F0E0042C02C0F595E7950A9431
:10367000E2F7DC90ED29EC936F5F7F4F1196683590
:10368000710509F0E2C9D4C90F931F931092750711
:103690001092740788EE93E0A0E0B0E08093760784
:1036A00090937707A0937807B09379078BE191E027
:1036B00090937307809372078FEF9FEF90937F072C
:1036C00080937E0710924C0310924B038DE291E0A1
:1036D00090934A03809349038CE380934F0380E1E6
:1036E000809352031092510310925003109257038B
:1036F000109258031092590310925A0310925B03D0
:1037000010925E0710925D071092600710925F079B
:1037100081E080936107E1EEF1E080E090E000E07D
:1037200010E020E832E440E050E060E871E400831B
:103730001183228333834483558366837783DC013B
:10374000AF51BE4F18961C92189719961C92199754
:103750001A961C921A971B961C920C963C968836C9
:10376000A1E09A0721F71F910F9108958F929F92E0
:10377000AF92BF92CF92DF92EF92FF92CF93DF93FF
:10378000EC01688179818A819B81611571058105D0
:10379000910521F464E279ED8BE597E02DE133EFBB
:1037A00041E050E00E941A1C49015A019B01AC0102
:1037B000A7EAB1E40E94391C6B017C01ACEEB4EFC6
:1037C000A50194010E94471CDC01CB018C0D9D1DBD
:1037D000AE1DBF1DB7FF03C00197A109B048888384
:1037E0009983AA83BB83BC01CD019F77DF91CF91E1
:1037F000FF90EF90DF90CF90BF90AF909F908F9011
:1038000008950E94B61B089583E191E00E94B61BC3
:1038100008956093130170931401809315019093A0
:1038200016010895F999FECF92BD81BDF89A9927A6
:1038300080B50895052E97FB1EF400940E94311C5C
:1038400057FD07D00E944C1C07FC03D04EF40C948B
:10385000311C50954095309521953F4F4F4F5F4F0C
:10386000089590958095709561957F4F8F4F9F4FEC
:1038700008950E946E1CA59F900DB49F900DA49F6B
:10388000800D911D11240895B7FF0C94391C0E94DE
:10389000391C821B930B0895A1E21A2EAA1BBB1B95
:1038A000FD010DC0AA1FBB1FEE1FFF1FA217B3070C
:1038B000E407F50720F0A21BB30BE40BF50B661F22
:1038C000771F881F991F1A9469F7609570958095E6
:1038D00090959B01AC01BD01CF010895A29FB0015D
:1038E000B39FC001A39F700D811D1124911DB29F34
:1038F000700D811D1124911D08955058BB27AA27D2
:103900000E94951C0C949D1D0E948F1D38F00E94F2
:10391000961D20F039F49F3F19F426F40C948C1D69
:103920000EF4E095E7FB0C94861DE92F0E94AE1D76
:1039300058F3BA17620773078407950720F079F4E4
:10394000A6F50C94D01D0EF4E0950B2EBA2FA02DE9
:103950000B01B90190010C01CA01A0011124FF273C
:10396000591B99F0593F50F4503E68F11A16F04037
:10397000A22F232F342F4427585FF3CF4695379536
:103980002795A795F0405395C9F77EF41F16BA0BFB
:10399000620B730B840BBAF09150A1F0FF0FBB1FA9
:1039A000661F771F881FC2F70EC0BA0F621F731FF2
:1039B000841F48F4879577956795B795F7959E3F4F
:1039C00008F0B0CF9395880F08F09927EE0F9795E0
:1039D000879508950E94621D08F481E008950E9471
:1039E000F61C6894B1110C94D11D08950E94B61D67
:1039F00088F09F5798F0B92F9927B751B0F0E1F0B0
:103A0000660F771F881F991F1AF0BA95C9F714C05F
:103A1000B13091F00E94D01DB1E008950C94D01DFA
:103A2000672F782F8827B85F39F0B93FCCF3869598
:103A300077956795B395D9F73EF4909580957095F5
:103A400061957F4F8F4F9F4F0895E89409C097FB72
:103A50003EF490958095709561957F4F8F4F9F4F65
:103A60009923A9F0F92F96E9BB279395F6958795A9
:103A700077956795B795F111F8CFFAF4BB0F11F46C
:103A800060FF1BC06F5F7F4F8F4F9F4F16C0882313
:103A900011F096E911C0772321F09EE8872F762F49
:103AA00005C0662371F096E8862F70E060E02AF08A
:103AB0009A95660F771F881FDAF7880F9695879576
:103AC00097F90895990F0008550FAA0BE0E8FEEF4B
:103AD00016161706E807F907C0F012161306E407D2
:103AE000F50798F0621B730B840B950B39F40A26CB
:103AF00061F0232B242B252B21F408950A2609F4A9
:103B0000A140A6958FEF811D811D089597F99F67AC
:103B100080E870E060E008959FEF80EC0895002455
:103B20000A941616170618060906089500240A9422
:103B300012161306140605060895092E0394000CA8
:103B400011F4882352F0BB0F40F4BF2B11F460FF37
:103B500004C06F5F7F4F8F4F9F4F089557FD905860
:103B6000440F551F59F05F3F71F04795880F97FB41
:103B7000991F61F09F3F79F08795089512161306FB
:103B80001406551FF2CF4695F1DF08C0161617062A
:103B90001806991FF1CF869571056105089408955F
:103BA000E894BB2766277727CB0197F908950E94F1
:103BB000621D08F48FEF089597FB072E16F400940A
:103BC00007D077FD09D00E94F61D07FC05D03EF412
:103BD000909581959F4F0895709561957F4F0895B9
:103BE000EE0FFF1F0590F491E02D0994AA1BBB1B5B
:103BF00051E107C0AA1FBB1FA617B70710F0A61BED
:103C0000B70B881F991F5A95A9F780959095BC010D
:103C1000CD01089581E090E0F8940C94161EFB010C
:103C2000DC0101900D920020E1F70895F894FFCF98
:103C30000100001E01000100E1000000000000FF83
:103C4000FFFFFF0100000000000000980D190EB9F1
:103C50000DAE0DFF0DBD0DDB0D000000006E0A2244
:103C6000064E064D0600C18081000000416C6C20AC
:103C7000537461676520436C6561722121212100C5
:103C800047616D65204F76657221212121004E75B7
:103C90006D6265720050757A7A6C65007665722087
:103CA000312E302E310050726573732041206F72B7
:043CB00020420000AE
:00000001FF
