:100000000C94D1050C94F9050C94F9050C94F905A0
:100010000C94F9050C94F9050C94F9050C94F90568
:100020000C94F9050C94F9050C946C0F0C94AF101A
:100030000C94F9050C94F9050C94F9050C94F90548
:100040000C94F9050C94BB080C94F9050C94F90573
:100050000C94F9050C94F9050C94F9050C94CE0751
:100060000C94F9050C94F9050C94F9050C94F90518
:100070000C94F9050C94F9050C94F9050C94F90508
:100080000C9459090C94F9050C94F9050C94F90594
:100090000C94F9050C94F9050C94F9050C94F905E8
:1000A0000C94F9050C94F9050C94F905391A3C1ACD
:1000B0003F1A421A4E1A4E1A451A481A4B1A570638
:1000C0005A0649064D0651067B067B067B065E06F0
:1000D000620666066C0670067B067606F206F70672
:1000E000FC06060710075A075A075A071A0724077B
:1000F0002E07380745075A074D07F0F89C8E87836F
:10010000878E9CF8F00000FEFF0303030303070E35
:10011000FCF80000FEFF0303030303070EFCF800D6
:1001200000FFFF00000000000000FFFF0000FEFFD6
:100130008383838383C7EE7C380000F8FC0E0703BB
:100140000303070EFCF800003F7FE0C08080C0E0A2
:100150007F3FFFFF01010101010101FFFF0000FFDF
:10016000FF0C0C0C0C1C3E77E3C100007FFFC0C0ED
:10017000C0C0C0E0703F1F00001F3F70E0C0C0C0A3
:10018000E0703F1F00007FFFC1C1C1C1C1E3773EE6
:100190001C00001F3F70E0C0C0C0E0703F1F0000A7
:1001A00000000001FFFF010000000000000024002B
:1001B00027002A002D003000D5F08D14A1C881CF72
:1001C000D9F1AF200014021302120215020702082F
:1001D0000204010C010601001824424A524224186C
:1001E000007E7E7E7E7E7E00FF81BDA5ADA1BF80AC
:1001F000FF81B9F3E7FFE7FFFFF3EBDBBB81FBFF19
:10020000FFC1FDE1FDFDC1FFFFC3DBFBC3DFC3FF9A
:10021000FFE7F7F7F7F7F7FFFF81A995A99581FFAA
:100220007E81A5817E3C24661E3F7EFCFC7E3F1EB7
:1002300000000000000000000000000000000100BD
:1002400000000000000000000100000200000000AB
:100250000000000000020000030000000000000099
:100260000000030000040000000000000000000483
:10027000000000000000000000000000000000007E
:10028000090000000000000000000000010901005A
:100290000000000000000000000003000200000059
:1002A0000000000000000000020003000000000049
:1002B000000000000000040904000000000000002D
:1002C0000000000009000000000000000000000025
:1002D0000000000000000000000009000100040010
:1002E00009000400000000000900000009000300EC
:1002F00000000000090009000900010000000000E2
:1003000000000000090000000200000000000900D9
:1003100002000300000000000000000001000001D6
:1003200000000200000000000001000001000002C7
:1003300000000000020204010302030203040200A1
:1003400000000002000001000001000000000000A9
:100350000100000300000200000000000000000097
:10036000020000000000000000000000000000008B
:100370000000000000000001030100010301000073
:100380000000000000010002000100000000000069
:10039000000000010001000000000000000000005B
:1003A000000200000000000000000000000000004B
:1003B000000000000000000009000000000009002B
:1003C0000000000001000000000000000400000028
:1003D0000000020000000000030000000000000018
:1003E0000300000002000000000000000000040004
:1003F00001000000000000000000090000000900EA
:1004000009000000000000000900000000000000DA
:1004100000000001020102020000000000000000D4
:1004200002000000020000000000000000020000C6
:1004300000020000000000000000020102010200B2
:1004400000000000000000000009000000000000A3
:10045000000000000000000000000000000000009C
:100460000100000900000009000001000002000076
:10047000000007000000000200000200000000076A
:100480000000000003000001000009000000090056
:10049000000100000000000000000000000000005B
:1004A0000000000000020001000000000007000042
:1004B0000004000300000000000000000002000132
:1004C0000000000000000000000003000400000025
:1004D0000000000007000000010003000000000011
:1004E0000000000000000300010000000000000008
:1004F0000000003E5B4F5B3E3E6B4F6B3E1C3E7C04
:100500003E1C183C7E3C181C577D571C1C5E7F5EB1
:100510001C00183C1800FFE7C3E7FF001824180070
:10052000FFE7DBE7FF30483A060E26297929264007
:100530007F050507407F05253F5A3CE73C5A7F3E33
:100540001C1C08081C1C3E7F14227F22145F5F00C5
:100550005F5F06097F017F006689956A6060606061
:100560006094A2FFA29408047E040810207E20104C
:1005700008082A1C08081C2A08081E101010100C55
:100580001E0C1E0C30383E3830060E3E0E060000A3
:1005900000000000005F00000007000700147F1447
:1005A0007F14242A7F2A12231308646236495620B6
:1005B000500008070300001C2241000041221C00DB
:1005C0002A1C7F1C2A08083E08080080703000089A
:1005D00008080808000060600020100804023E516E
:1005E00049453E00427F4000724949494621414900
:1005F0004D331814127F1027454545393C4A494967
:100600003141211109073649494936464949291ED0
:1006100000001400000040340000000814224114BF
:1006200014141414004122140802015909063E4111
:100630005D594E7C1211127C7F494949363E414139
:1006400041227F4141413E7F494949417F09090992
:10065000013E414151737F0808087F00417F4100FE
:100660002040413F017F081422417F404040407FAD
:10067000021C027F7F0408107F3E4141413E7F09FA
:100680000909063E4151215E7F091929462649493B
:10069000493203017F01033F4040403F1F2040207B
:1006A0001F3F4038403F6314081463030478040379
:1006B0006159494D43007F41414102040810200027
:1006C0004141417F04020102044040404040000398
:1006D00007080020545478407F2844443838444464
:1006E0004428384444287F385454541800087E095C
:1006F0000218A4A49C787F0804047800447D40007C
:100700002040403D007F1028440000417F40007C95
:10071000047804787C080404783844444438FC188D
:1007200024241818242418FC7C0804040848545471
:10073000542404043F44243C4040207C1C2040209E
:100740001C3C4030403C44281028444C9090907C05
:100750004464544C44000836410000007700000017
:100760004136080002010204023C2623263C1EA159
:10077000A161123A4040207A3854545559215555B8
:100780007941215454784121555478402054557969
:10079000400C1E52721239555555593954545459FA
:1007A00039555454580000457C410002457D4200B3
:1007B00001457C40F0292429F0F0282528F07C54BC
:1007C0005545002054547C547C0A097F49324949DC
:1007D00049323248484832324A4848303A41412149
:1007E0007A3A42402078009DA0A07D3944444439A3
:1007F0003D4040403D3C24FF2424487E4943662B35
:100800002FFC2F2BFF0929F620C0887E09032054D6
:100810005479410000447D413048484A32384040D4
:10082000227A007A0A0A727D0D19317D2629292F34
:1008300028262929292630484D402038080808084C
:1008400008080808382F10C8ACBA2F102834FA004E
:10085000007B000008142A142222142A1408950090
:10086000220095AA005500AAAA55AA55AA00000080
:10087000FF00101010FF00141414FF001010FF00F0
:10088000FF1010F010F0141414FC001414F700FF03
:100890000000FF00FF1414F404FC141417101F10C0
:1008A000101F101F1414141F00101010F00000006F
:1008B000001F101010101F10101010F0100000007A
:1008C000FF101010101010101010FF10000000FF8B
:1008D000140000FF00FF00001F10170000FC04F4CC
:1008E00014141710171414F404F40000FF00F71484
:1008F000141414141414F700F7141414171410100B
:100900001F101F141414F4141010F010F000001F26
:10091000101F0000001F14000000FC140000F01065
:10092000F01010FF10FF141414FF141010101F000B
:10093000000000F010FFFFFFFFFFF0F0F0F0F0FF0D
:10094000FFFF0000000000FFFF0F0F0F0F0F3844E4
:100950004438447C2A2A3E147E02020606027E02A5
:100960007E0263554941633844443C04407E201E66
:100970002006027E020299A5E7A5991C2A492A1C95
:100980004C7201724C304A4D4D303048784830BC82
:10099000625A463D3E494949007E0101017E2A2AAC
:1009A0002A2A2A44445F444440514A444040444A2D
:1009B00051400000FF0103E080FF000008086B6B5E
:1009C000083612362436060F090F060000181800E4
:1009D00000001010003040FF0101001F01011E0047
:1009E000191D1712003C3C3C3C00000000000601B1
:1009F0001501260137014A015D01720188019F013D
:100A0000B801D201EE010B022A024B026E029302E0
:100A1000BA02E40210033F037003A403DC031704CB
:100A200055049704DD0427057505C80520067D06D5
:100A3000E0064907B8072D08A9082D09B9094D0A8C
:100A4000EA0A900B400CFA0CC00D910E6F0F5A1071
:100A500053115B1272139A14D41520178018F519CC
:100A6000801B231DDE1EB420A622B524E4263429D3
:100A7000A72B402E0031EA330037453ABC3D684190
:100A80004C456B49C84D68524F57805C006210114D
:100A90001213151617181A1C1D1F21232527292C80
:100AA0002E3134373A3E4145494E52575C62686EAA
:100AB000757B838B939CA5AFB9C4D0DCE9F70000AC
:100AC000000200090F0000030401000C00000000F8
:100AD0000000000000000000000000000004080208
:100AE00001104080401020408040800802040180B6
:100AF0004020100201108010204040200000000023
:100B0000250028002B002E003100040404040403F7
:100B1000040502020202040302020202060606069D
:100B20000606040402020204040301080B00020288
:100B30000201000904000001020200000524001067
:100B40000105240101010424020605240600010711
:100B500005810310004009040100020A000000079B
:100B6000050202400000070583024000000403095B
:100B70000412010002EF020140412336800001010E
:100B800002030141726475696E6F204C4C43004151
:100B9000726475696E6F204C656F6E6172646F0070
:100BA000081B11241FBECFEFDAE0DEBFCDBF11E07E
:100BB000A0E0B1E0E8EBFBE302C005900D92AA379C
:100BC000B107D9F727E0AAE7B1E001C01D92AE3B1B
:100BD000B207E1F715E0C1EDD5E004C02197FE01B1
:100BE0000E94B41DC03DD107C9F70E94DF120C94CA
:100BF000DA1D0C940000CF92DF92EF92FF920F93D8
:100C00001F93CF93DF936C017A018B01C0E0D0E09A
:100C1000CE15DF0589F0D8016D918D01D601ED91DA
:100C2000FC910190F081E02DC6010995892B11F40A
:100C30007E0102C02196ECCFC701DF91CF911F91B9
:100C40000F91FF90EF90DF90CF900895089580E08E
:100C500090E008950E94CE1D362F90E0FC01E254F2
:100C6000F54F4491FC01E352F54F2491FC01E65FFE
:100C7000F44F8491882309F451C04423E1F150E0FA
:100C8000FA013197EF30F105B0F5E15AFF4F0C94BE
:100C9000B41D909180009F7707C0909180009F7D48
:100CA00003C090918000977F9093800024C094B5FA
:100CB0009F7702C094B59F7D94BD1DC09091900018
:100CC0009F7707C0909190009F7D03C09091900006
:100CD000977F909390000FC09091C0009F7703C0C2
:100CE0009091C0009F7D9093C00005C09091C2007C
:100CF000977F9093C200E82FF0E0EE0FFF1FE450C3
:100D0000F54FA591B4918FB7F894EC91311103C0D0
:100D100020952E2301C02E2B2C938FBF0895CF93A7
:100D2000DF9390E0FC01E352F54F2491FC01E65F74
:100D3000F44F8491882361F190E0880F991FFC01A2
:100D4000E655FE4FC591D491FC01E450F54FA591B5
:100D5000B491611109C09FB7F894888120958223CE
:100D60008883EC912E230BC0623061F49FB7F89416
:100D70003881822F809583238883EC912E2B2C93AE
:100D80009FBF06C08FB7F894E8812E2B28838FBFB2
:100D9000DF91CF9108951F93CF93DF93182FEB012D
:100DA00061E00E948F06209711F460E004C0CF3FFD
:100DB000D10539F461E0812FDF91CF911F910C941F
:100DC0002C06E12FF0E0E254F54FE4914E2F50E075
:100DD000FA013197EF30F10508F06CC0E259FF4F8E
:100DE0000C94B41D84B5806884BDC7BD68C084B54B
:100DF000806284BDC8BD63C080918000806880939C
:100E00008000D0938900C093880059C080918000F1
:100E1000806280938000D0938B00C0938A004FC083
:100E200080918000886080938000D0938D00C09373
:100E30008C0045C080919000806880939000D09392
:100E40009900C09398003BC080919000806280938D
:100E50009000D0939B00C0939A0031C08091900085
:100E6000886080939000D0939D00C0939C0027C021
:100E70008091C00080688093C0008091C0008F7B0B
:100E80008093C000C093CF001AC08091C0008062E0
:100E90008093C000C093D00012C08091C2008860CF
:100EA0008093C2008091C2008B7F8093C200C09368
:100EB000D20005C0C038D1050CF07CCF76CFDF91D1
:100EC000CF911F9108953FB7F8948091C9019091F7
:100ED000CA01A091CB01B091CC0126B5A89B05C059
:100EE0002F3F19F00196A11DB11D3FBFBA2FA92FA9
:100EF000982F8827820F911DA11DB11DBC01CD0126
:100F000042E0660F771F881F991F4A95D1F7089511
:100F10008F929F92AF92BF92CF92DF92EF92FF9209
:100F20006B017C010E9463074B015C01C114D10479
:100F3000E104F104F1F00E946307DC01CB018819A0
:100F40009909AA09BB09883E9340A105B10570F330
:100F500021E0C21AD108E108F10888EE880E83E08A
:100F6000981EA11CB11CC114D104E104F10419F7AD
:100F7000DDCFFF90EF90DF90CF90BF90AF909F902C
:100F80008F9008952FB7F8946091C5017091C601B4
:100F90008091C7019091C8012FBF08951F920F92B1
:100FA0000FB60F9211242F933F938F939F93AF937C
:100FB000BF938091C5019091C601A091C701B091E6
:100FC000C8013091C40123E0230F2D3720F401968E
:100FD000A11DB11D05C026E8230F0296A11DB11D5C
:100FE0002093C4018093C5019093C601A093C701CB
:100FF000B093C8018091C9019091CA01A091CB0121
:10100000B091CC010196A11DB11D8093C9019093AF
:10101000CA01A093CB01B093CC01BF91AF919F9136
:101020008F913F912F910F900FBE0F901F901895A9
:101030008FB12CB193B130E02095309520743327D7
:10104000A90123E0559547952A95E1F7292F30E02E
:10105000209530952071332735952795359527951F
:10106000242B8095807F822B0895FC0121912EBD39
:101070009C5F21910DB407FEFDCF2EBDE817F90747
:10108000C1F70DB407FEFDCF0895CF92DF92EF9226
:10109000FF920F931F93CF93E82FF0E0E75DF44F9B
:1010A000C491E62FF0E0603330F4E257F54FE4915D
:1010B0000E2F10E006C0EE0FFF1FE257F64F05910E
:1010C00014916801E12CF12C60E074E284EF90E06F
:1010D000A70196010E94DE1BBA01A90141505109E6
:1010E000610971094115510581E06807710580F0BA
:1010F00060E970ED83E090E0A70196010E94DE1B9D
:10110000BA01A901415051096109710983E001C087
:1011100081E0C130C9F0C33031F590919100987FE2
:10112000892B8093910050939900409398001093DD
:10113000C3010093C20181E08093C10180917100DD
:101140008260809371000FC090918100987F892BFD
:1011500080938100509389004093880080916F00B4
:10116000826080936F00CF911F910F91FF90EF905D
:10117000DF90CF9008951F920F920FB60F92112417
:101180002F933F938F939F93AF93BF93EF93FF93CF
:1011900080918101882309F44DC080917D01909157
:1011A0007E01A0917F01B0918001892B8A2B8B2B2E
:1011B00051F18091D301E091D401F091D50190815A
:1011C0008927808380917D0190917E01A0917F018C
:1011D000B0918001181619061A061B06A4F5809115
:1011E0007D0190917E01A0917F01B09180010197D6
:1011F000A109B10980937D0190937E01A0937F01A5
:10120000B093800120C01092810180916F008D7F8A
:1012100080936F009091D301E091D401F091D501BA
:101220008081282F30E0892F90E08095909582234F
:10123000932308C08091D301E091D401F091D501AE
:10124000908189278083FF91EF91BF91AF919F910A
:101250008F913F912F910F900FBE0F901F90189577
:10126000E82FF0E0E75DF44FE491E13019F0E3306E
:1012700069F0089580916F008D7F80936F00909149
:10128000D301E091D401F091D50108C01092C101C1
:101290009091D001E091D101F091D2018081282F6D
:1012A00030E0892F90E0809590958223932380836E
:1012B00008951F920F920FB60F9211242F933F9310
:1012C0004F935F936F937F938F939F93AF93BF934E
:1012D000EF93FF938091C101882349F08091D00161
:1012E000E091D101F091D201908189278083809192
:1012F0007A01882309F493C08091BD019091BE01C9
:10130000A091BF01B091C001892B8A2B8B2B09F4CE
:1013100086C08091BD019091BE01A091BF01B091A6
:10132000C0010197A109B1098093BD019093BE014D
:10133000A093BF01B093C001892B8A2B8B2B09F09E
:101340006EC0E091BB01F091BC01BF016F5F7F4FA8
:101350007093BC016093BB014491942F907F842FC4
:101360008F70903819F40E943009EBCF903981F4D6
:101370003296F093BC01E093BB01FB016491909124
:10138000D6018917F0F667FDDCCF0E944508D9CF5A
:10139000903E29F41092BC011092BB01D2CF903F35
:1013A00019F410927A013BC097FDCBCF3296F0939F
:1013B000BC01E093BB01FB01249130E0342BA091F0
:1013C000C201B091C3010E94321C6C507E4F8F4FFE
:1013D0009F4F28EE33E040E050E00E94101C209325
:1013E000BD013093BE014093BF015093C001809175
:1013F000BD019091BE01A091BF01B091C001892BA8
:101400008A2B8B2B61F481E090E0A0E0B0E0809328
:10141000BD019093BE01A093BF01B093C001FF91A5
:10142000EF91BF91AF919F918F917F916F915F915C
:101430004F913F912F910F900FBE0F901F901895D5
:101440006038710518F54034510500F5A42FA695B4
:10145000A695A695B0E047705527B695BA2FAA274E
:10146000B795A7956A0F7B1FFC01E60FF71F81E078
:1014700090E001C0880F4A95EAF7222319F0948979
:10148000892B03C0809594898923848B08952F929A
:101490003F924F925F926F927F928F929F92AF9204
:1014A000BF92CF92DF92EF92FF920F931F93CF9351
:1014B000DF93CDB7DEB72A970FB6F894DEBF0FBE25
:1014C000CDBF6A3091F4FC01E85EFB4F408132975A
:1014D0002081318158E0459F200D311D1124318339
:1014E0002083329711821082C1C06D3009F4BEC0D2
:1014F0009A878987885E9B4F9C838B83DC012C9025
:10150000E985FA85EA5EFB4F60807180E985FA859E
:10151000EC5EFB4FFA83E9830081118100381105ED
:10152000D4F0AB81BC812C91422F50E0E981FA814B
:1015300080819181F6E02F9F800D911D1124A9815A
:10154000BA818D939C93E985FA85E75EFB4F2081F4
:1015500021115EC08BC0B0E46B16710414F7C80192
:10156000E5E02E9E800D911D112418161906CCF66B
:10157000422C512CC301F8E02F9E800D911D1124A7
:101580001816190674F655E0659F900111243F83E3
:101590002E83E12CF12C85E0E816F10441F0EE8178
:1015A000FF81EE0DFF1DE251FB4F349001C0312C45
:1015B000630138E0932D91709D834801882D801B35
:1015C0008215B0F456018A2D8C19821568F42D818C
:1015D000A501B40189859A8538870E94200AAFEF5A
:1015E000AA1ABA0A3885EFCFBFEF8B1A9B0AE6CF4B
:1015F00036943150C40CD51C3111DCCFEFEFEE1A0C
:10160000FE0A040D151DF6E0EF16F10421F689CF50
:101610006AEF64039001659F300D112420583F4FFD
:10162000281739071CF5A985BA85ED91FC9111970A
:101630000190F081E02D6AE0CD012A960FB6F89472
:10164000DEBF0FBECDBFDF91CF911F910F91FF90F5
:10165000EF90DF90CF90BF90AF909F908F907F9052
:101660006F905F904F903F902F9009942A960FB6FD
:10167000F894DEBF0FBECDBFDF91CF911F910F91C8
:10168000FF90EF90DF90CF90BF90AF909F908F90A2
:101690007F906F905F904F903F902F9008950F93A1
:1016A0001F93CF93DF938C018CE0809FE001819F9B
:1016B000D00D1124C952DE4F20E030E040E051E46B
:1016C000688179818A819B810E94AE1C87FF08C056
:1016D00080E090E0A0E0B1E488839983AA83BB8393
:1016E0008CE0809FE001819FD00D1124C952DE4F14
:1016F00020E030E040EE52E4688179818A819B816C
:101700000E949B1D181644F480E090E0A0EEB2E425
:1017100088839983AA83BB838CE0809FE001819FAB
:10172000D00D1124C952DE4F20E030E040E851E4F2
:101730006C817D818E819F810E94AE1C87FF08C0D5
:1017400080E090E0A0E8B1E48C839D83AE83BF830A
:101750008CE0809FE001819FD00D1124C952DE4FA3
:1017600020E030E040E452E46C817D818E819F81F5
:101770000E949B1D181644F480E090E0A0E6B2E4BD
:101780008C839D83AE83BF83DF91CF911F910F9197
:1017900008952F923F924F925F926F927F928F9215
:1017A0009F92AF92BF92CF92DF92EF92FF920F93F0
:1017B0001F93CF93DF9300D000D000D0CDB7DEB71A
:1017C00010920101109202018F31910514F08EE107
:1017D00090E080930301E0EEF1E020E030E0992713
:1017E000281739072CF410822F5F3F4F3C96F8CF13
:1017F00080910401909105012EE4289F1001299FFA
:10180000300C112490E1A92EB12CE12CF12CC12C2B
:10181000D12C51E088E0882E912C00E010E0970157
:10182000220D331D2E54310925010B2C000C6608A6
:101830007708F901E00FF11FE05DFD4F4491842F1F
:1018400090E00097E1F107972CF4809102018F5FFF
:10185000809302018CE08C9DB0018D9D700D112450
:10186000FB01E952FE4FFE83ED83B401092C000C0D
:10187000880B990B2A833B8349835C830E94EB1C72
:10188000ED81FE816083718382839383C301B20102
:101890000E94EB1CED81FE816483758386839783B0
:1018A000C6010E944F0B4981ED81FE81428713865C
:1018B0005C815187FFEFCF1ADF0A3B812A810F5FDE
:1018C0001F4F88E0880E911C0D30110509F0B1CF33
:1018D0009DE0E90EF11CE8E0AE0EB11CFEE4EF164F
:1018E000F10409F097CF26960FB6F894DEBF0FBE2D
:1018F000CDBFDF91CF911F910F91FF90EF90DF90BF
:10190000CF90BF90AF909F908F907F906F905F909F
:101910004F903F902F90089583E090E09093830143
:101920008093820181E08093000188E780937C01AD
:1019300088E380937B0180E88093BA0180E2809302
:10194000B90182E0809306018EE190E00C94C90B0E
:101950006F927F928F929F92AF92BF92CF92DF92BF
:10196000EF92FF920F931F93CF93DF930E948C0C03
:10197000C0E0D0E004E110E0EE24E394F12C92E02A
:10198000792E22E3C22ED12C3EE1A32EB12C46E3C8
:10199000842E912C662463946EE170E080E090E0E8
:1019A0000E9488070E94BF0E1093540700935307AC
:1019B000F0925607E0925507709257078EE591E036
:1019C0000E94CE0E109354070093530710935607AE
:1019D000009355077092570785E691E00E94CE0E5E
:1019E000CE010196B6010E94A01DEC01499774F446
:1019F000B0925407A09253079092560780925507D1
:101A0000609257078CE691E00E94CE0E83E593E04A
:101A10000E9435080E94180883FD04C00E9418081F
:101A200082FFBACFDF91CF911F910F91FF90EF907E
:101A3000DF90CF90BF90AF909F908F907F906F90EE
:101A40000895FC018091CF01811103C08FEF9FEFBA
:101A500008959FB7F89482E08093E9002091F20006
:101A600030E01216130614F421E030E021153105A0
:101A700059F0289884E68093CE018091F10080830C
:101A80008091F200882319F09FBFC90108958BE669
:101A90008093E800F9CF2FB7F89483E08093E900B2
:101AA0009091E800892F807295FF04C09091F20018
:101AB00080E4891B2FBF0895CF93DF931F92CDB78A
:101AC000DEB76983DC01ED91FC910280F381E02DAA
:101AD00041E050E0BE016F5F7F4F09950F90DF91AD
:101AE000CF91089583E08093E9008091F2008823EC
:101AF00019F08AE38093E80008950E944B0D90E06E
:101B00000895CF93DF931F92CDB7DEB7FC01848594
:101B1000958597FD05C02FEF3FEF358724870BC0D4
:101B2000CE0101960E94210D019719F4898190E060
:101B300002C08FEF9FEF0F90DF91CF9108950F9329
:101B40001F93CF93DF931F92CDB7DEB78C01FC01BB
:101B50008485958597FF0EC0CE0101960E94210DC8
:101B6000019719F4298130E002C02FEF3FEFF8010F
:101B700035872487F801848595850F90DF91CF9173
:101B80001F910F910895FC018485958597FD0BC0E9
:101B90009FB7F89482E08093E9008091F2009FBFA4
:101BA00090E0019608959FB7F89482E08093E90051
:101BB0008091F2009FBF90E008958F929F92AF9224
:101BC000BF92CF92DF92EF92FF920F931F93CF932A
:101BD000DF935C016B017A0180910E01882309F487
:101BE0005BC08091CF01882309F456C08091CD015C
:101BF00080FF05C08091E00082608093E000E701F3
:101C000010E00AEF83E0882E9AE3992E2097D9F10D
:101C10000E944B0D81110AC0015009F43DC061E0E2
:101C200070E080E090E00E948807F0CF282F30E03D
:101C3000C217D3070CF48C2F4FB7F8948092E900A9
:101C40009091E80095FF1DC0282F30E0C21BD30BF8
:101C5000F601982F915020F081918093F100FACFF6
:101C6000C20ED31E112319F09092E80009C0809192
:101C7000E80085FD06C09092E80011E0209709F089
:101C800010E04FBFC3CF1111C3CF5D9884E680939E
:101C900059071E141F0444F081E090E0F50193837E
:101CA000828380E090E001C0C701DF91CF911F9156
:101CB0000F91FF90EF90DF90CF90BF90AF909F90EB
:101CC0008F9008954F925F926F927F928F929F9222
:101CD000AF92BF92CF92DF92EF92FF920F931F933A
:101CE000CF93DF939C01285F3F4F28383105B0F533
:101CF0009B01285F3F4F2834310580F55A017B0155
:101D00006C01C0E0D0E080E8882E912C00E010E06B
:101D100025014C0E5D1E3E016E0C7F1CF20184916C
:101D200090E09401002E02C0359527950A94E2F7C1
:101D300082239323892B49F021E0A301B8016C0D84
:101D40007D1D8FE393E00E94200A0F5F1F4F083034
:101D5000110521F72196C830D105C1F6DF91CF9149
:101D60001F910F91FF90EF90DF90CF90BF90AF90B9
:101D70009F908F907F906F905F904F90089520E09C
:101D800083E593E0B22FB111BFEFFC010024B193C2
:101D9000B193B193B1930394D1F70895009769F08B
:101DA000FC0101900020E9F73197AF01481B590B66
:101DB000BC018FE393E00C94FB0580E090E0089574
:101DC000CF93DF939091D601923009F46EC0C82F63
:101DD000292F30E0F901E75DF44FD491F901EA5978
:101DE000F84F80839F5F9093D60161E00E948F0639
:101DF000D13019F0D33039F158C0109280001092D0
:101E000081008091810088608093810080918100B1
:101E10008160809381008C2F90E0FC01E65FF44F9D
:101E2000E491F0E0EE0FFF1FE450F54F259134915F
:101E30003093D5012093D401FC01E352F54F8491F6
:101E40008093D30132C01092900010929100809143
:101E500091008860809391008091910081608093CF
:101E600091008C2F90E0FC01E65FF44FE491F0E0EC
:101E7000EE0FFF1FE450F54F259134913093D201BE
:101E80002093D101FC01E352F54F84918093D0015E
:101E90008091D601882321F06CE380E00E94450800
:101EA00080E0DF91CF910C943009DF91CF910895BC
:101EB00080915E0781110DC082E080935A0784E013
:101EC00080935B0710925D0710925C0781E080931E
:101ED0005E078AE597E008951F920F920FB60F9262
:101EE00011248F939F938091E1009091E100937F63
:101EF0009093E10083FF0FC01092E90091E090936E
:101F0000EB001092EC0092E39093ED001092CF0161
:101F100098E09093F00082FF20C093E09093E90056
:101F20009091F200992319F09AE39093E800909130
:101F30005907992339F09091590791509093590777
:101F4000992389F19091CE01992339F09091CE0196
:101F500091509093CE01992341F184FF10C080915C
:101F6000E2008E7E81608093E2008091E1008F7EAE
:101F70008093E1008091CD018E7E806111C080FF51
:101F800016C08091E2008E7E80618093E200809195
:101F9000E1008E7E8093E1008091CD018E7E816094
:101FA0008093CD0104C05D9ACDCF289AD6CF9F9162
:101FB0008F910F900FBE0F901F9018954091BC0706
:101FC0005091BD072091BA073091BB0742175307C4
:101FD000B4F49091E8009570E1F39091E80092FDDF
:101FE00019C08093F1008091BC079091BD070196C4
:101FF0008F739927892B19F48EEF8093E8008091D5
:10200000BC079091BD0701969093BD078093BC07D4
:1020100081E0089580E00895CF92DF92EF92FF92E1
:102020000F931F93CF93DF931F92CDB7DEB7182F77
:10203000062FE42E862F880F8E5F99830E94DE0F75
:1020400083E00E94DE0FF12EC12E9981D92E8C2DB6
:102050008F19801798F4F601E7FE02C0849101C041
:1020600080810E94DE0F182F80E00E94DE0F812306
:10207000FFEFCF1ADF0A8111EACF01C081E00F9094
:10208000DF91CF911F910F91FF90EF90DF90CF9054
:102090000895DF92EF92FF920F931F93CF93DF93F8
:1020A000D82E8A017B01E40EF51EEB01CE15DF056B
:1020B00071F0D7FE03C0FE01849101C088810E94A7
:1020C000DE0F21968111F2CF8FEF9FEF01C0C80183
:1020D000DF91CF911F910F91FF90EF90DF900895C6
:1020E000615030F02091F100FC0120830196F8CF7F
:1020F000289884E68093CE0108950F931F93CF9381
:10210000DF931F92CDB7DEB782E0898342E450E0CF
:102110006BE27BE080E80E9449100E94580FDC01CE
:1021200012960D911C9113970115110569F0D801B4
:10213000ED91FC910280F381E02DBE016F5F7F4F36
:10214000C801099597FF07C089810F90DF91CF9152
:102150001F910F910895F80100851185E5CF1F9219
:102160000F920FB60F921124CF92DF92EF92FF924F
:102170000F931F932F933F934F935F936F937F938F
:102180008F939F93AF93BF93EF93FF93CF93DF937F
:10219000CDB7DEB76C97DEBFCDBF1092E90080915E
:1021A000E80083FFEDC168E0CE0145960E94701003
:1021B00082EF8093E8008D8987FF05C09091E80049
:1021C00090FFFCCF03C09EEF9093E800982F90768D
:1021D00009F0C6C09E892F89188D91110CC08038D6
:1021E00029F48091B9078093F10002C01092F100A8
:1021F0001092F10048C1422F50E0512B913051F420
:10220000811141C14130510509F03DC18091B907AB
:102210008D7F0BC0933061F4811135C14130510580
:1022200009F031C18091B90782608093B9072BC151
:10223000953041F48091E80080FFFCCF2068209326
:10224000E30021C1963009F05FC0EB8CFC8C10924A
:10225000E9001092BD071092BC07123091F5109260
:10226000BB071092BA070E947D1099E0BE016F5F14
:102270007F4FDB01E92F1D92EA95E9F799831A83D5
:1022800091E09E8390EA98879AEF99872091BC0706
:102290003091BD07275F3F4F3C832B838D83109286
:1022A000E9001092BD071092BC07F092BB07E092C4
:1022B000BA0749E050E080E00E9449100E947D107A
:1022C000E2C0F092BB07E092BA070E94580FDC010F
:1022D0001296ED90FC901397E114F10409F4C0C03C
:1022E000D701ED91FC910480F581E02DBE016B5E7C
:1022F0007F4FC7010995009719F00CF0C4C0C7C003
:10230000F701E084F184E8CF973009F4C0C0983039
:1023100021F481E08093F100B6C0993009F0B3C098
:10232000837009F0B4C0E6E3F1E081E021E036E338
:102330009081992361F08093E9002093EB009191C3
:102340009093EC003093ED008F5F873089F78EE734
:102350008093EA001092EA008F898093CF0193C0A6
:102360008B8D9C8D1092E9001092BD071092BC07D6
:102370009093BB078093BA07898D811156C08E89CF
:102380009D89913A59F4813209F081C047E050E0CB
:1023900067E071E080E00E94491075C0913209F059
:1023A00076C0833289F4888D90E0982F88272F8912
:1023B000822BA0E0B0E080930F0190931001A093D6
:1023C0001101B09312015FC0803269F48091E8007E
:1023D00082FFFCCF67E087E091E00E9470108BEFF6
:1023E0008093E80006C0823209F04DC08F89809347
:1023F0000E018091B807882319F0EEEFFAE002C0D1
:10240000E0E0F8E08091070190910801A0910901B6
:10241000B0910A01803B9440A105B10509F07BC051
:1024200080910E0180FF93C076C00E94580FDC019E
:1024300012960D911C9113970115110541F1D801C8
:10244000ED91FC910190F081E02DBE016B5E7F4F1C
:10245000C8010995811117C0F80100851185ECCFDD
:10246000113009F44EC0133091F48F89882309F498
:1024700045C0823081F440E860E18FE89BE00E9433
:102480000C10882321F08EEF8093E80079C081E260
:102490008093EB0075C0813029F440E86BE083E85D
:1024A0009BE0EDCF833099F70E94580FDC01129624
:1024B000ED90FC9013978E010F5F1F4F6801E114A0
:1024C000F10479F0D701ED91FC910680F781E02DC0
:1024D000B801C7010995080F111DF701E084F184C7
:1024E000EECFD8011C92F60101900020E9F7319758
:1024F000BF016C197D0940E0C601C1CF6DE67BE0EC
:1025000002C061E77BE06115710509F2FB014491AE
:1025100050E080E840CF0FB6F894A8958091600015
:10252000886180936000109260000FBEA895EE3F16
:102530002AE0F20739F08091FE0A9091FF0A918318
:102540008083A1CF1092FF0A1092FE0A9CCFEE3F2B
:102550008AE0F80731F0808191819093FF0A80939F
:10256000FE0A87E797E7918380839BE088E10FB6B7
:10257000F894A895809360000FBE9093600083CF7D
:102580006C960FB6F894DEBF0FBECDBFDF91CF9132
:10259000FF91EF91BF91AF919F918F917F916F913B
:1025A0005F914F913F912F911F910F91FF90EF906D
:1025B000DF90CF900F900FBE0F901F901895CF9384
:1025C000DF93CDB7DEB7E5970FB6F894DEBF0FBE49
:1025D000CDBF789484B5826084BD84B5816084BDAC
:1025E00085B5826085BD85B5816085BD80916E00B1
:1025F000816080936E0010928100809181008260E2
:10260000809381008091810081608093810080911E
:10261000800081608093800080919100826080932F
:102620009100809191008160809391008091900051
:102630008160809390008091C10084608093C1008C
:102640008091C10082608093C1008091C10081604F
:102650008093C1008091C30081608093C30080910A
:10266000C00082608093C0008091C200816080932E
:10267000C20080917A00846080937A0080917A0011
:10268000826080937A0080917A00816080937A00E2
:1026900080917A00806880937A001092CF01109226
:1026A000B9071092CD018091D70081608093D70047
:1026B00080EA8093D80089B5806189BD89B5826040
:1026C00089BD09B400FEFDCF61E070E080E090E0DC
:1026D0000E9488078091D8008F7C80618093D80009
:1026E0008091E000807F8093E0008091E1008E7E09
:1026F0008093E1008DE08093E200559A209AEEEFFE
:10270000FFE7859194918B3F9C4D19F481E0809374
:10271000B8071FB7F89480918501811127C0EBE1BC
:10272000FBE08491EEEEFAE09491E82FF0E0EE0FFA
:10273000FF1FE655FE4FA591B491EC91E92321F4DA
:1027400061E081E10E942C0661E081E10E948F0638
:102750008CB580618CBD8CB580648CBD61E08FE0F0
:102760000E948F0661E080E10E948F0680918501C2
:102770008F5F809385011FBF05EC11E0F801849104
:102780000E5F1F4F31966491882319F00E948F06C7
:10279000F5CF61E086E00E942C0661E070E080E009
:1027A00090E00E94880760E086E00E942C066AE0C4
:1027B00070E080E090E00E94880761E086E00E947F
:1027C0002C06E6E1FBE0E491F0E0EE0FFF1FE450A1
:1027D000F54F8591949190938B0180938A01E9EE56
:1027E000FAE0E491E0938901EEE0FBE0E491F0E0AF
:1027F000EE0FFF1FE450F54F85919491909388015F
:1028000080938701E1EEFAE0E491E09386018CB5D4
:102810008C7F8CBD8DB581608DBDE0918A01F0917A
:102820008B01908180918901982B9083A0918701E1
:10283000B09188012C9190918601909592239C9360
:102840009081809589238083E8EBF1E001E0E53C0D
:10285000F00749F084918EBD00000DB407FEFDCF56
:102860008EB53196F3CFE0918701F0918801908188
:1028700080918601892B8083E0918A01F0918B0100
:102880009081809189018095892380838091640063
:102890008160809364008091640082608093640012
:1028A00080916400806880936400809164008064FB
:1028B00080936400809165008160809365000E9430
:1028C000180887FF1AC080E094E01EBC00000DB419
:1028D00007FEFDCF2EB50197C1F760E070E08AE0FA
:1028E0000E94CB0660E070E08BE00E94CB0660E0C7
:1028F00070E089E00E94CB06FFCF0EEE1FEF66244A
:102900006A94712C98E0A92EB12C88E1801BB30148
:10291000681B71098AE00E94CB066FEF70E08BE0C4
:102920000E94CB066FEF70E089E00E94CB060E9408
:10293000BF0E302E20EF0217A4F483E593E00E942F
:1029400035086BE170E080E090E00E94880730EF8E
:10295000331264C06AEF70E080E090E00E94880764
:102960005DC0980117FF04C022273327201B310BBD
:1029700027703327C80117FD0796B3E09595879513
:10298000BA95E1F717FF05C00197A501421B530B4C
:102990009A017C01F694FE2CEE24F794E79440E033
:1029A00050E02501421A530AB70160587F4F4B018E
:1029B0008F3F7FEF970744F40196485A5F4F7401A9
:1029C000403B510589F7B9CFD701A951BC4F60E011
:1029D00070E08F3FEFEF9E0709F4FFC5FB01E40FA6
:1029E000F51FE650FF4F24906D01C818D908CE0C92
:1029F000DF1CE22DF0E0022E02C0EE0FFF1F0A9452
:102A0000E2F7FBA3EAA3F6012080EAA1FBA1E229F9
:102A1000FBA3EAA32AA0F6012082DFC50F5F1F4FA8
:102A20000931110509F071CF6EEE72E080E090E09F
:102A30000E9488076FEF70E08AE00E94CB066FEF7C
:102A400070E08BE00E94CB066FEF70E089E00E949F
:102A5000CB0685E00E94E00E8DE00E94E00E109211
:102A60007A0182E090E00E94D61B882369F0809171
:102A70006400877F8093640080916500877F8093E6
:102A8000650081E0809384010E94A80C0E94C20727
:102A90006093B4017093B5018093B6019093B70130
:102AA0000E94C20760938C0170938D0180938E0108
:102AB00090938F0188E28093450389E180934803D6
:102AC000809164008E7F8093640087EC80937C000B
:102AD00080E280937B0062E070E080E090E00E9402
:102AE000880780917A00806480937A0080917A00D0
:102AF00086FDFCCF0091780010917900009510952B
:102B00008EE580937C0062E070E080E090E00E94BF
:102B1000880780917A00806480937A0080917A009F
:102B200086FDFCCFE0907800F09079000E9463076A
:102B30009B01AC012095309540955095E094F09420
:102B4000E09ED001E19EB00DF09EB00D11240E94D8
:102B5000FD1B6B017C010E9463076C0D7D1D8E1DAA
:102B60009F1D611571058105910511F00E94CD1B16
:102B7000809164008160809364008091B80181112C
:102B800024C50E94C2079B01AB01BC018091510387
:102B9000882389F080914903022F081B0093520378
:102BA0008091460390914703019690934703809349
:102BB00046031092510380914D0390914E03A091D2
:102BC0004F03B0915003481759076A077B077CF4FD
:102BD000821B823008F4F9C483B7817F83BF83B737
:102BE000816083BF889583B78E7F83BFEEC4809159
:102BF00048038A019B01080F111D211D311D0093FF
:102C00004D0310934E0320934F0330935003409392
:102C1000490350934A0360934B0370934C0311E0B4
:102C2000109351030E94C2076093B4017093B501E1
:102C30008093B6019093B7010E94BF0E109357077F
:102C4000E12CF12C00E010E021E0A801B7018FE3B6
:102C500093E00E94200A0F5F1F4F0A301105A1F771
:102C60001FEFE11AF10A2FE7E216F10459F700917C
:102C70008201109183012BE030E060E070E060178A
:102C800071070CF043C02838310508F03AC0A9019B
:102C900048505109F8E2AF2EF2E0BF2ED901A55BF2
:102CA000BC4F403851056CF557FF0AC04F5F5F4F6E
:102CB0008FEFA81AB80A11964217530791F721C04F
:102CC000F501849190E0880F991F80959095EC9084
:102CD000F12C8E219F218C93849190E0880F892F75
:102CE000881F990B4C01809490947D01F0E8EF0EC1
:102CF000F11CF701C080D12CC4018C219D2180835F
:102D0000D5CF6F5F7F4F265F3F4FB9CF88E490E00C
:102D1000909354078093530781E090E09093560777
:102D20008093550760E28FE393E00E94470A63E5D2
:102D30008FE393E00E94470A64E58FE393E00E94EB
:102D4000470A61E48FE393E00E94470A67E48FE358
:102D500093E00E94470A65E48FE393E00E94470AEC
:102D600060E28FE393E00E94470AC0900401D09094
:102D700005010D2C000CEE08FF08F7FE28C0E091BD
:102D80003F03F09140030190F081E02D6DE28FE36D
:102D900093E0099522273327A9012C193D094E09F3
:102DA0005F0919A28E010F5D1F4FCA01B9012AE008
:102DB00030E040E050E00E94101C605DD8016E934E
:102DC0008D01211531054105510579F717C0A7017E
:102DD000960119A28E010F5D1F4FCA01B9012AE0A9
:102DE00030E040E050E00E94101C605DF80162930A
:102DF0008F01211531054105510579F7C8010E9460
:102E0000CE0E60E28FE393E00E94470A07ED11E0E7
:102E10001BA70AA701EE11E01DA70CA702EE11E007
:102E20001FA70EA71BA30AA301EE11E01DA30CA36D
:102E300007ED11E019A618A680910301A82FB0E0B4
:102E4000BDABACABE8A5F9A5EA17FB070CF078C160
:102E50002AA13BA1225031093BAB2AABD9018C916D
:102E6000882309F459C1EAA1FBA18081882309F4D0
:102E700053C1ACA1BDA18C91873008F01082EAA1AA
:102E8000FBA13397F9ABE8AB222423942082D8012D
:102E90008D909D90AD90BC90139714964D905D9041
:102EA0006D907C901797EAA1FBA18081803229F177
:102EB00080F48031F1F520E030E040E85FE3C301C9
:102EC000B2010E94421CF801648375838683978354
:102ED00030C0803409F1803861F520E030E040E80E
:102EE0005FE3C301B2010E94411CD80114966D93A7
:102EF0007D938D939C9317971CC020E030E040E8B1
:102F00005FE3C501B4010E94411CD8016D937D931C
:102F10008D939C9313970DC020E030E040E85FE371
:102F2000C501B4010E94421CF80160837183828351
:102F3000938327ED31E03FA32EA3212C312C48A50C
:102F400059A52416350609F4C5C0AEA1BFA119962E
:102F50008C911997882309F4BDC0F8012081318133
:102F6000428153816D917D918D919C910E94411C74
:102F70006B017C0120E030E0A9010E949B1D181626
:102F800024F0F7FAF094F7F8F09420E030E040E015
:102F900051E4C701B6010E94AE1C87FF9BC0D80157
:102FA00014962D913D914D915C911797EEA1FFA143
:102FB00064817581868197810E94411C6B017C012F
:102FC00020E030E0A9010E949B1D181624F0F7FABA
:102FD000F094F7F8F09420E030E040E051E4C701CD
:102FE000B6010E94AE1C87FF75C0F1E0F09381012D
:102FF00080918100887F81608093810027EB3FE48E
:1030000030938900209388004EE350E060E070E048
:1030100040937D0150937E0160937F017093800106
:1030200080916F00826080936F00AAA1BBA11C9267
:10303000E8A9F9A91082C501B4010E94B31C072EAA
:10304000000C880B990B0E94EB1CD8016D937D93AB
:103050008D939C931397C301B2010E94B31C072E5A
:10306000000C880B990B0E94EB1CF801648375839C
:10307000868397832CE0229DF001239DF00D11247F
:10308000E952FE4F8285873039F0ACA1BDA19C91F9
:10309000983070F598132CC0EAA9FBA910822CE097
:1030A000229DF001239DF00D1124E952FE4F11865F
:1030B000ACA1BDA19C91973028F490910201915050
:1030C000909302018730A0F4809102018150809397
:1030D00002010EC0BFEF2B1A3B0AEEA1FFA13C96E6
:1030E000FFA3EEA32CA93DA9221633060CF427CF8B
:1030F00088A599A50E944F0B8091020181110CC0F7
:1031000080910401909105010196909305018093AF
:10311000040131E03093B30148A559A54F5F5F4FDB
:1031200059A748A7045F1F4F6CA17DA1645F7F4F23
:103130007DA36CA38AA19BA10C969BA38AA37CCEA2
:10314000B0907C01A0907B018A2D8B298770D1F5EE
:103150000E9418088078803851F48093B2018093DF
:10316000B10180910001FA2DF81B8F2F0DC00E9434
:103170001808982F907184FF0AC09093B201909321
:10318000B101809100018A0D80937B0136C00E94BD
:103190001808982F907285FF0AC09093B2019093FF
:1031A000B101809100012B2C281A822D24C00E948D
:1031B0001808982F907486FF20C09093B2019093C6
:1031C000B10116C08091B201803831F480910001C4
:1031D0000A2D081B802FD8CF803199F2803231F42C
:1031E000809100011B2D181B812F05C0803429F40C
:1031F000809100018B0D80937C010E94180883FD53
:1032000004C00E94180882FF25C00E94BF0E83E5FB
:1032100093E00E94350864EF71E080E090E00E9446
:103220008807809182019091830101979093830197
:1032300080938201181619061CF081E08093B0017A
:1032400088E780937C0188E380937B018EE190E0A6
:103250000E94C90B97EDE92E91E0F92EC12CD12CDB
:10326000992493940091030110E0C016D1060CF04C
:103270008AC0EEA5FFA532978081882309F476C025
:1032800060917C0170E080E090E00E94EB1C9B016B
:10329000AC01D7016D917D918D919C910E94411C53
:1032A0002B013C0120E030E0A9010E949B1D181673
:1032B00024F077FA709477F8709420E030E040E0E2
:1032C00051E4C301B2010E94AE1C87FF4FC0609160
:1032D0007B0170E080E090E00E94EB1C9B01AC0160
:1032E000F70164817581868197810E94411C2B01C1
:1032F0003C0120E030E0A9010E949B1D181624F03B
:1033000077FA709477F8709420E030E040E051E470
:10331000C301B2010E94AE1C87FF28C090928101B8
:1033200080918100887F81608093810007EB1FE49A
:1033300010938900009388002EE330E040E050E0D5
:1033400020937D0130937E0140937F015093800153
:1033500080916F00826080936F008091B101AEA573
:10336000BFA58C93B0927C01A0927B01BFEFCB1ADA
:10337000DB0A0EA51FA5045F1F4F1FA70EA71CE0A9
:10338000E10EF11C6FCF80917C01883018F488E049
:1033900080937C0180917C0190E0813791051CF045
:1033A00080E780937C0180917B01803118F480E17B
:1033B00080937B0180917B0190E0C9971CF088E3AA
:1033C00080937B0160917B0170E064507109809172
:1033D0007C0140E252E090E00E94620E8CE0E82E18
:1033E000F12C48E152E0B70180E090E00E94620ECB
:1033F00048E152E0B70188E790E00E94620E28E0C1
:10340000E20EF11C3CE3E316F10459F7E12CF12C38
:10341000E016F10609F456C0ECA5FDA531978081B0
:10342000882309F440C0AAA5BBA56D917D918D911B
:103430009C910E94B31C4B015C0120E030E040E80D
:1034400050E4EAA5FBA564817581868197810E947D
:10345000411C0E94B31CACA5BDA5EC914E2E512C75
:10346000F2013197E930F105C8F4EA5AFF4F0C94A4
:10347000B41D40E152E014C048E052E011C040E009
:1034800052E00EC048EF51E00BC040EF51E008C0E1
:1034900048EE51E005C040EE51E002C048ED51E079
:1034A000C4010E94620EBFEFEB1AFB0AEAA5FBA55E
:1034B0003C96FBA7EAA72CA53DA5245F3F4F3DA75F
:1034C0002CA7A6CF8091B301882309F441C01092A4
:1034D000B30181E08093B8018091040190910501CE
:1034E00009976CF06CE371E080E991E00E94D31DD4
:1034F00081E090E0909305018093040108C060E4AE
:1035000071E080E991E00E94D31D0E948C0C0E9422
:10351000BF0E84E190E0909354078093530782E1BB
:1035200090E0909356078093550781E0809357076A
:1035300080E991E00E94CE0E83E593E00E94350879
:1035400068EB7BE080E090E00E9488071092B80171
:103550008091B0018823A9F11092B00111E010937D
:10356000B80181E090E090930501809304010E94EE
:103570008C0C60E571E080E991E00E94D31D0E940F
:10358000BF0E84E190E0909354078093530782E14B
:1035900090E090935607809355071093570780E962
:1035A00091E00E94CE0E83E593E00E94350868EB1F
:1035B0007BE080E090E00E9488071092B8010E94B2
:1035C000A80C83E593E00E94350880E090E0892B09
:1035D00009F4D3CA0E940000D0CA2115310581F038
:1035E000FB01E40FF51FE650FF4FE491F0E0042CDF
:1035F00002C0F595E7950A94E2F7DC90ED29EC938B
:103600006F5F7F4F11966835710509F0E2C9D4C923
:103610000F931F9310926B0710926A0788EE93E046
:10362000A0E0B0E080936C0790936D07A0936E07C5
:10363000B0936F078BE191E09093690780936807DF
:103640008FEF9FEF9093750780937407109242035A
:10365000109241038DE291E09093400380933F03E9
:103660008CE38093450380E18093480310924703E5
:103670001092460310924D0310924E0310924F0386
:103680001092500310925103109254071092530756
:10369000109256071092550781E080935707E7ED87
:1036A000F1E080E090E000E010E020E832E440E06B
:1036B00050E060E871E40083118322833383448304
:1036C000558366837783DC01A952BE4F18961C92FE
:1036D000189719961C9219971A961C921A971B966E
:1036E0001C920C963C968836A1E09A0721F71F9110
:1036F0000F9108958F929F92AF92BF92CF92DF92D7
:10370000EF92FF92CF93DF93EC01688179818A81F8
:103710009B81611571058105910521F464E279EDC4
:103720008BE597E02DE133EF41E050E00E94DE1B96
:1037300049015A019B01AC01A7EAB1E40E94FD1BBB
:103740006B017C01ACEEB4EFA50194010E940B1C4F
:10375000DC01CB018C0D9D1DAE1DBF1DB7FF03C04D
:103760000197A109B04888839983AA83BB83BC01D0
:10377000CD019F77DF91CF91FF90EF90DF90CF90B9
:10378000BF90AF909F908F9008950E947A1B0895EC
:1037900083E191E00E947A1B089560931301709376
:1037A000140180931501909316010895F999FECFA5
:1037B00092BD81BDF89A992780B50895052E97FB93
:1037C0001EF400940E94F51B57FD07D00E94101CA8
:1037D00007FC03D04EF40C94F51B509540953095A2
:1037E00021953F4F4F4F5F4F08959095809570956D
:1037F00061957F4F8F4F9F4F08950E94321CA59F68
:10380000900DB49F900DA49F800D911D11240895DB
:10381000B7FF0C94FD1B0E94FD1B821B930B0895A8
:10382000A1E21A2EAA1BBB1BFD010DC0AA1FBB1FC4
:10383000EE1FFF1FA217B307E407F50720F0A21B36
:10384000B30BE40BF50B661F771F881F991F1A94A3
:1038500069F760957095809590959B01AC01BD01CD
:10386000CF010895A29FB001B39FC001A39F700D27
:10387000811D1124911DB29F700D811D1124911D78
:1038800008955058BB27AA270E94591C0C94611D0B
:103890000E94531D38F00E945A1D20F039F49F3FBA
:1038A00019F426F40C94501D0EF4E095E7FB0C94EB
:1038B0004A1DE92F0E94721D58F3BA176207730759
:1038C0008407950720F079F4A6F50C94941D0EF466
:1038D000E0950B2EBA2FA02D0B01B90190010C0120
:1038E000CA01A0011124FF27591B99F0593F50F438
:1038F000503E68F11A16F040A22F232F342F442790
:10390000585FF3CF469537952795A795F040539587
:10391000C9F77EF41F16BA0B620B730B840BBAF057
:103920009150A1F0FF0FBB1F661F771F881FC2F7C2
:103930000EC0BA0F621F731F841F48F487957795D6
:103940006795B795F7959E3F08F0B0CF9395880F90
:1039500008F09927EE0F9795879508950E94261DE8
:1039600008F481E008950E94BA1C6894B1110C9487
:10397000951D08950E947A1D88F09F5798F0B92FE1
:103980009927B751B0F0E1F0660F771F881F991F94
:103990001AF0BA95C9F714C0B13091F00E94941D85
:1039A000B1E008950C94941D672F782F8827B85F95
:1039B00039F0B93FCCF3869577956795B395D9F7EC
:1039C0003EF490958095709561957F4F8F4F9F4FF6
:1039D0000895E89409C097FB3EF490958095709502
:1039E00061957F4F8F4F9F4F9923A9F0F92F96E94B
:1039F000BB279395F695879577956795B795F111C0
:103A0000F8CFFAF4BB0F11F460FF1BC06F5F7F4F5C
:103A10008F4F9F4F16C0882311F096E911C077236E
:103A200021F09EE8872F762F05C0662371F096E877
:103A3000862F70E060E02AF09A95660F771F881F46
:103A4000DAF7880F9695879597F90895990F0008EA
:103A5000550FAA0BE0E8FEEF16161706E807F90760
:103A6000C0F012161306E407F50798F0621B730BFB
:103A7000840B950B39F40A2661F0232B242B252B7C
:103A800021F408950A2609F4A140A6958FEF811D1F
:103A9000811D089597F99F6780E870E060E00895C0
:103AA0009FEF80EC089500240A9416161706180656
:103AB0000906089500240A94121613061406050632
:103AC0000895092E0394000C11F4882352F0BB0FC3
:103AD00040F4BF2B11F460FF04C06F5F7F4F8F4F26
:103AE0009F4F089557FD9058440F551F59F05F3F61
:103AF00071F04795880F97FB991F61F09F3F79F010
:103B000087950895121613061406551FF2CF469591
:103B1000F1DF08C0161617061806991FF1CF869513
:103B20007105610508940895E894BB2766277727F7
:103B3000CB0197F908950E94261D08F48FEF089590
:103B400097FB072E16F4009407D077FD09D00E944A
:103B5000BA1D07FC05D03EF4909581959F4F0895BE
:103B6000709561957F4F0895EE0FFF1F0590F491BA
:103B7000E02D0994AA1BBB1B51E107C0AA1FBB1F64
:103B8000A617B70710F0A61BB70B881F991F5A95E9
:103B9000A9F780959095BC01CD01089581E090E052
:103BA000F8940C94DA1DFB01DC0101900D920020C9
:083BB000E1F70895F894FFCF3E
:103BB8000100001E01000100E1000000000000FFFC
:103BC800FFFFFF01000000000000005C0DDD0D7D1F
:103BD8000D720DC30D810D9F0D00000000470AFBFB
:103BE800052706260600C18081000000416C6C2074
:103BF800537461676520436C65617221212121003E
:103C080047616D65204F76657221212121004E752F
:103C18006D6265720050757A7A6C650050726573D2
:0A3C2800732041206F72204200005B
:00000001FF
