:100000000C9463060C948B060C948B060C948B0654
:100010000C948B060C948B060C948B060C948B061C
:100020000C948B060C948B060C94720F0C94E10FBD
:100030000C948B060C948B060C948B060C948B06FC
:100040000C948B060C9424130C948B060C948B0646
:100050000C948B060C948B060C948B060C94131248
:100060000C948B060C948B060C948B060C948B06CC
:100070000C948B060C948B060C948B060C948B06BC
:100080000C945D120C948B060C948B060C948B06CE
:100090000C948B060C948B060C948B060C948B069C
:1000A0000C948B060C948B060C948B0600000000BD
:1000B000000000000000000000000000000100003F
:1000C000000000000000000100000000020000002D
:1000D000000000000000020000000003000000001B
:1000E0000000000000030000000004000000000009
:1000F00000000000040000000000000000000000FC
:1001000000000000000000000009000000000000E6
:1001100000000000000000010901000000000000D4
:1001200000000000000000030002000000000000CA
:1001300000000000000000020003000000000000BA
:10014000000000000000000409040000000000009E
:100150000000000000000009000000000000000096
:10016000000000000000000000000000000000008F
:100170000009000100040009000400000000000064
:100180000009000000090003000000000000000951
:10019000000900090001000000000000000000004C
:1001A0000009000000020000000000000009000239
:1001B000000300000000000000000000000100003B
:1001C000010000020000000000000000010000012A
:1001D000000002000000000000020204010302030C
:1001E0000203040200000000000002000001000001
:1001F00001000000000000000001000003000002F8
:1002000000000000000000000000000200000000EC
:1002100000000000000000000000000000000000DE
:1002200000000000000001030100010301000000C4
:1002300000000000000001000200010000000000BA
:1002400000000000000001000100000000000000AC
:10025000000000000000020000000000000000009C
:10026000000000000000000000000000000000008E
:10027000000900000000000900000000000000016B
:100280000000000000000004000000000000000268
:100290000000000000030000000000000000000358
:1002A0000000000200000000000000000000000448
:1002B0000001000000000000000000000009000034
:1002C0000009000900000000000000000009000013
:1002D0000000000000000000000001020102020016
:1002E000000000000000000000020000000200000A
:1002F00000000000000000000200000002000000FA
:1003000000000000000000020102010200000000E5
:1003100000000000000000000900000000000000D4
:1003200000000000000000000000000000000000CD
:1003300000000001000009000000090000010000A9
:1003400000000200000000060000000002000000A3
:100350000002000000000600000000030000000092
:100360000100000900000009000001000000000079
:10037000000000000000000000000000000000007D
:100380000000020001000000000000000600000064
:100390000400030000000000000000000000020054
:1003A0000100000000000000000000000003000445
:1003B0000000000000000000000600000001000333
:1003C0000000000000000000000000000003000129
:1003D0000000000000000900000000000000010211
:1003E00003020100000906090000000000020000ED
:1003F00000020000090000000000000003000102EC
:1004000003000009000000000000000200020000DC
:1004100000000906090000000000010003020100BD
:1004200000090000000000000000000000000000C3
:1004300000020001000400030002000100000003AC
:10044000000200010004000300020000000000039D
:10045000000200010004000300000000000400038B
:10046000000200010004000000000000000400037E
:10047000000200010004000000000001000400036D
:10048000000200010000000000000900000500005B
:100490000000000000000000000000050000000057
:1004A0000400000005000000000200050002000139
:1004B0000200000500000000030500000103000425
:1004C0000000050000000000000500000200000020
:1004D0000005000000090005000000000000000009
:1004E0000000000000000000003E5B4F5B3E3E6BE2
:1004F0004F6B3E1C3E7C3E1C183C7E3C181C577DBE
:10050000571C1C5E7F5E1C00183C1800FFE7C3E709
:10051000FF0018241800FFE7DBE7FF30483A060E1B
:100520002629792926407F050507407F05253F5A62
:100530003CE73C5A7F3E1C1C08081C1C3E7F1422D2
:100540007F22145F5F005F5F06097F017F0066897D
:10055000956A606060606094A2FFA29408047E04C3
:100560000810207E201008082A1C08081C2A0808E9
:100570001E101010100C1E0C1E0C30383E383006A9
:100580000E3E0E06000000000000005F00000007A5
:10059000000700147F147F14242A7F2A12231308D3
:1005A000646236495620500008070300001C2241AF
:1005B000000041221C002A1C7F1C2A08083E080853
:1005C0000080703000080808080800006060002003
:1005D000100804023E5149453E00427F40007249E6
:1005E0004949462141494D331814127F102745458A
:1005F00045393C4A494931412111090736494949A0
:1006000036464949291E000014000000403400000D
:100610000008142241141414141400412214080276
:10062000015909063E415D594E7C1211127C7F49E9
:100630004949363E414141227F4141413E7F49493E
:1006400049417F090909013E414151737F0808086A
:100650007F00417F41002040413F017F081422413B
:100660007F404040407F021C027F7F0408107F3E95
:100670004141413E7F090909063E4151215E7F0902
:10068000192946264949493203017F01033F404069
:10069000403F1F2040201F3F4038403F6314081454
:1006A0006303047804036159494D43007F4141418C
:1006B0000204081020004141417F0402010204406D
:1006C00040404040000307080020545478407F28F1
:1006D0004444383844444428384444287F385454E7
:1006E000541800087E090218A4A49C787F0804040A
:1006F0007800447D40002040403D007F10284400A9
:1007000000417F40007C047804787C080404783839
:1007100044444438FC1824241818242418FC7C0869
:10072000040408485454542404043F44243C4040E6
:10073000207C1C2040201C3C4030403C4428102899
:10074000444C9090907C4464544C440008364100E2
:100750000000770000004136080002010204023C5C
:100760002623263C1EA1A161123A4040207A38542B
:1007700054555921555579412154547841215554A6
:10078000784020545579400C1E52721239555555F7
:1007900059395454545939555454580000457C41E2
:1007A0000002457D420001457C40F0292429F0F0FB
:1007B000282528F07C545545002054547C547C0A4C
:1007C000097F4932494949323248484832324A4819
:1007D00048303A4141217A3A42402078009DA0A019
:1007E0007D39444444393D4040403D3C24FF24246D
:1007F000487E4943662B2FFC2F2BFF0929F620C08A
:10080000887E090320545479410000447D413048DA
:10081000484A32384040227A007A0A0A727D0D191D
:10082000317D2629292F28262929292630484D407F
:1008300020380808080808080808382F10C8ACBA7B
:100840002F102834FA00007B000008142A142222FA
:10085000142A14089500220095AA005500AAAA554A
:10086000AA55AA000000FF00101010FF0014141475
:10087000FF001010FF00FF1010F010F0141414FC13
:10088000001414F700FF0000FF00FF1414F404FC30
:10089000141417101F10101F101F1414141F001011
:1008A0001010F0000000001F101010101F1010108A
:1008B00010F010000000FF10101010101010101099
:1008C000FF10000000FF140000FF00FF00001F10D9
:1008D000170000FC04F414141710171414F404F493
:1008E0000000FF00F714141414141414F700F71484
:1008F0001414171410101F101F141414F4141010D3
:10090000F010F000001F101F0000001F1400000076
:10091000FC140000F010F01010FF10FF141414FF6E
:10092000141010101F00000000F010FFFFFFFFFF69
:10093000F0F0F0F0F0FFFFFF0000000000FFFF0FFD
:100940000F0F0F0F38444438447C2A2A3E147E028D
:10095000020606027E027E02635549416338444422
:100960003C04407E201E2006027E020299A5E7A5D7
:10097000991C2A492A1C4C7201724C304A4D4D3048
:100980003048784830BC625A463D3E494949007E6D
:100990000101017E2A2A2A2A2A44445F4444405104
:1009A0004A444040444A51400000FF0103E080FFB8
:1009B000000008086B6B083612362436060F090F44
:1009C00006000018180000001010003040FF010160
:1009D000001F01011E00191D1712003C3C3C3C0089
:1009E0000000000006011501260137014A015D01E2
:1009F000720188019F01B801D201EE010B022A02A7
:100A00004B026E029302BA02E40210033F0370032A
:100A1000A403DC03170455049704DD0427057505BA
:100A2000C80520067D06E0064907B8072D08A90875
:100A30002D09B9094D0AEA0A900B400CFA0CC00DB9
:100A4000910E6F0F5A1053115B1272139A14D41532
:100A500020178018F519801B231DDE1EB420A62246
:100A6000B524E4263429A72B402E0031EA33003781
:100A7000453ABC3D68414C456B49C84D68524F579B
:100A8000805C006210111213151617181A1C1D1F16
:100A900021232527292C2E3134373A3E4145494E12
:100AA00052575C62686E757B838B939CA5AFB9C40B
:100AB000D0DCE9F70000000200090F000003040188
:100AC000000C00000000000000000000000000001A
:100AD000000000F0F89C8E8783878E9CF8F0000061
:100AE000FEFF0303030303070EFCF80000FEFF03F1
:100AF00003030303070EFCF80000FFFF00000000E3
:100B0000000000FFFF0000FEFF8383838383C7EEA6
:100B10007C380000F8FC0E07030303070EFCF80006
:100B2000003F7FE0C08080C0E07F3FFFFF01010108
:100B300001010101FFFF0000FFFF0C0C0C0C1C3E2B
:100B400077E3C100007FFFC0C0C0C0C0E0703F1F9E
:100B500000001F3F70E0C0C0C0E0703F1F00007F7A
:100B6000FFC1C1C1C1C1E3773E1C00001F3F70E05F
:100B7000C0C0C0E0703F1F000000000001FFFF0187
:100B800000000000000000240027002A002D003093
:100B900000D5F08D14A1C881CFD9F1AF2000140287
:100BA0001302120215020702080204010C010601D9
:100BB00000007E7E7E7E7E7E00FF81BDA5ADA1BF52
:100BC00080FF81B9F3E7FFE7FFFF81A995A9958130
:100BD000FFFFF3EBDBBB81FBFFFFC1FDE1FDFDC1CF
:100BE000FFFFC3DBFBC3DFC3FFFFE7F7F7F7F7F751
:100BF000FF7E81A5817E3C24661E3F7EFCFC7E3FFD
:100C00001E080B000202020000090400000102029B
:100C1000000005240010010524010101042402063E
:100C200005240600010705810310004009040100A6
:100C3000020A0000000705020240000007058302C7
:100C40004000000403090412010002EF02014041C8
:100C500023368000010102030141726475696E6FE1
:100C6000204C4C430041726475696E6F204C656F77
:100C70006E6172646F000408020110408040102011
:100C80004080408008020401804020100201108052
:100C9000102040402000000000250028002B002EDE
:100CA00000310004040404040304050202020204E7
:100CB00003020202020606060606060404020202F7
:100CC000040403018F1311241FBECFEFDAE0DEBF4F
:100CD000CDBF13E0A0E0B1E0EAE3F7E302C0059086
:100CE0000D92A43AB107D9F728E0A4EAB3E001C015
:100CF0001D92A337B207E1F716E0C3E6D6E004C0C1
:100D00002197FE010E94751BC236D107C9F70E94C8
:100D1000C2130C949B1B0C9400008DE694E020E021
:100D2000B22FB111BFEFFC010024B193B193B19385
:100D3000B1930394D1F70895FC01809101048823B5
:100D400011F13FB7F89482E08093E9002091F2001E
:100D5000822F90E01816190614F481E090E08823A1
:100D600039F0289844E6409300044091F100408314
:100D7000222339F02091F200211103C02BE62093A9
:100D8000E8003FBF08958FEF9FEF08952FB7F894C5
:100D900083E08093E9009091E800892F807295FFAD
:100DA00004C09091F20080E4891B2FBF08958091C8
:100DB000F80381110DC082E08093F40384E08093F6
:100DC000F5031092F7031092F60381E08093F80385
:100DD00084EF93E00895CF93DF931F92CDB7DEB7F2
:100DE0006983DC01ED91FC910280F381E02D41E00B
:100DF00050E0BE016F5F7F4F09950F90DF91CF915B
:100E0000089583E08093E9008091F200882319F02F
:100E10008AE38093E80008950E94C60690E0089552
:100E2000CF93DF931F92CDB7DEB7FC018485958504
:100E300097FD08C02FEF3FEF358724870F90DF9194
:100E4000CF910895CE0101960E949C06019719F456
:100E5000898190E0F3CF8FEF9FEFF0CF0F931F9337
:100E6000CF93DF931F92CDB7DEB78C01FC01848551
:100E7000958597FF0BC0CE0101960E949C060197B5
:100E800071F4898190E0F80195878487F801848561
:100E900095850F90DF91CF911F910F9108958FEF5E
:100EA0009FEFF1CFFC018485958597FD0BC09FB71F
:100EB000F89482E08093E9008091F2009FBF90E077
:100EC000019608959FB7F89482E08093E90080919D
:100ED000F2009FBF90E008954091EE035091EF0320
:100EE0002091EC033091ED0342175307B4F4909135
:100EF000E8009570E1F39091E80092FD19C08093AD
:100F0000F1008091EE039091EF0301968F73992782
:100F1000892B19F48EEF8093E8008091EE03909175
:100F2000EF0301969093EF038093EE0381E0089521
:100F300080E00895EF92FF920F931F93CF93DF937A
:100F4000F82E192FE62E042F81E0860F880F0E94BD
:100F50006C0783E00E946C07CF2DD12FEC0EFD2E85
:100F6000F11CCE15DF05B9F007FF13C0FE01849117
:100F70000E946C07182F80E00E946C078123219645
:100F80008111EFCFDF91CF911F910F91FF90EF90E3
:100F900008958881EDCF81E0F5CFDF92EF92FF9247
:100FA0000F931F93CF93DF93D82E8A01EB017B0120
:100FB000E40EF51ECE15DF0559F0D7FE12C0FE0176
:100FC00084910E946C0721968111F4CF0FEF1FEFDF
:100FD000C801DF91CF911F910F91FF90EF90DF90AB
:100FE00008958881EECF0F931F93CF93DF931F92C5
:100FF000CDB7DEB782E0898342E450E061E07CE077
:1010000080E80E94CD070E94D706DC0112960D9160
:101010001C910115110589F0D801ED91FC91028018
:10102000F381E02DBE016F5F7F4FC801099597FDE9
:1010300004C0F80100851185ECCF89810F90DF9104
:10104000CF911F910F910895615030F02091F100E0
:10105000FC0120830196F8CF289884E68093000451
:101060000895AF92BF92CF92DF92EF92FF920F93CB
:101070001F93CF93DF936C017B018B01040F151F2E
:10108000EB015E01AE18BF08C017D10759F0699196
:10109000D601ED91FC910190F081E02DC6010995FA
:1010A000892B79F7C501DF91CF911F910F91FF90A7
:1010B000EF90DF90CF90BF90AF900895282F30E051
:1010C000F901EC54F54F9491F901EA58F34F8491EA
:1010D0002D55334FF9012491222309F430C099236F
:1010E000E9F091509F30D0F4E92FF0E0E658F74F47
:1010F0000C94751BA808AC088908A008A4088E08E1
:101100008E088E08AF08B508B908BD08C3088E0858
:10111000C708909180009F7790938000E22FF0E0C5
:10112000EE0FFF1FEB56F34FA591B4919FB7F894C4
:10113000EC91611132C080958E238C939FBF0895EE
:10114000909180009F7DE8CF90918000977FE4CFC1
:1011500094B59F7794BDE2CF94B59F7DFBCF9091DE
:1011600090009F7790939000D9CF909190009F7DB1
:10117000F9CF90919000977FF5CF9091C0009F7725
:101180009093C000CBCF9091C0009F7DF9CF9091FC
:10119000C200977F9093C200C1CF8E2BCECFCF934A
:1011A000DF9390E0FC01EA58F34F24918D55934F63
:1011B000FC0184918823C9F090E0880F991FFC01FD
:1011C000ED57F44FA591B491FC01EB56F34FC59147
:1011D000D49161110DC09FB7F8948C912095822312
:1011E0008C938881282328839FBFDF91CF91089516
:1011F000623051F49FB7F8943C91822F80958323FD
:101200008C93E8812E2BEFCF8FB7F894EC912E2B97
:101210002C938FBFEACF1F93CF93DF93182FEB014F
:1012200061E00E94CF08209739F460E0812FDF91C0
:10123000CF911F910C945E08CF3FD10511F461E06E
:10124000F5CFE12FF0E0EC54F54FE491E150EF30B1
:1012500008F07FC0F0E0E15DF64F0C94751B3E098D
:1012600046094B0955095F09A909A909A90969098D
:1012700073097D0987099409A9099C0984B58068C7
:1012800084BDC7BDDF91CF911F91089584B5806261
:1012900084BDC8BDF7CF80918000806880938000B6
:1012A000D0938900C0938800EDCF80918000806248
:1012B00080938000D0938B00C0938A00E3CF80910D
:1012C0008000886080938000D0938D00C0938C0054
:1012D000D9CF80919000806880939000D09399003E
:1012E000C0939800CFCF809190008062809390004F
:1012F000D0939B00C0939A00C5CF809190008860E6
:1013000080939000D0939D00C0939C00BBCF8091B0
:10131000C00080688093C0008091C0008F7B809364
:10132000C000C093CF00AECF8091C0008062809398
:10133000C000C093D000A6CF8091C2008860809387
:10134000C2008091C2008B7F8093C200C093D20004
:1013500099CFC038D1050CF072CF67CF3FB7F89462
:101360008091AE039091AF03A091B003B091B1030F
:1013700026B5A89B05C02F3F19F00196A11DB11DF0
:101380003FBFBA2FA92F982F8827BC01CD01620F2C
:10139000711D811D911D42E0660F771F881F991FE7
:1013A0004A95D1F708958F929F92AF92BF92CF92B4
:1013B000DF92EF92FF924B015C010E94AE096B013C
:1013C0007C010E94AE096C197D098E099F09683E57
:1013D000734081059105A8F321E0821A9108A108C4
:1013E000B10888EEC80E83E0D81EE11CF11C811400
:1013F0009104A104B10429F7FF90EF90DF90CF9002
:10140000BF90AF909F908F9008958F929F92AF92D0
:10141000BF92CF92DF92EF92FF920F931F93CF93E1
:10142000DF936C017B018A0180912D03882309F4ED
:101430005CC080910104882309F457C08091F303B4
:1014400080FF05C08091E00082608093E000E801A9
:10145000B12C8AEFA82E93E0892E2AE3922E2097B2
:1014600011F4BB20D9F10E94C60681110AC0AA94CA
:10147000AA20D9F161E070E080E090E00E94D309F9
:10148000EECF8C171D0611F00CF08C2F9FB7F8943F
:101490008092E9002091E80025FD02C09FBFDFCFC8
:1014A000282F30E0C21BD30BF701815020F041916F
:1014B0004093F100FACFE20EF31EBB2021F0909290
:1014C000E800B12CEBCF8091E80085FDE7CF90924A
:1014D000E800BB24B394209709F3F3CF5D9884E62A
:1014E0008093F203101611063CF081E090E0F601C3
:1014F0009383828310E000E0C801DF91CF911F91B8
:101500000F91FF90EF90DF90CF90BF90AF909F90A2
:101510008F9008954FB18CB123B190E08095909554
:1015200033E0959587953A95E1F7887030E02095FE
:10153000309535952795359527952470822B942FD6
:101540009095907F892B0895FC0121912EBD9C5F81
:1015500021910DB407FEFDCF2EBDE817F907C1F7A5
:101560000DB407FEFDCF0895CF92DF92EF92FF9268
:101570000F931F93CF93E82FF0E0EE53F34FC491F6
:10158000E62FF0E0603398F5EC57F54FE4910E2F1D
:1015900010E0F12CE12C60E074E284EF90E0A70110
:1015A00098010E94FE1A215031094109510991E028
:1015B0002115310581E0480751056CF060E970EDB7
:1015C00083E090E0A70198010E94FE1A21503109A2
:1015D0004109510993E0C13089F0C330F9F0CF914E
:1015E0001F910F91FF90EF90DF90CF900895EE0F35
:1015F000FF1FEC57F64F05911491CBCF80918100DE
:10160000887F892B80938100309389002093880004
:1016100080916F00826080936F00E1CF8091910094
:10162000887F892B809391003093990020939800B4
:101630001093AC030093AB0381E08093AA038091E5
:101640007100826080937100CACFE82FF0E0EE5302
:10165000F34FE491E13019F0E33089F0089580917F
:101660006F008D7F80936F0080910504E0910604E8
:10167000F0910704908180958923808308951092CA
:10168000AA0380910204E0910304F0910404F2CFD4
:10169000CF93DF9390910804923081F0C82FE92F07
:1016A000F0E0EE53F34FD4919F5F9093080461E014
:1016B0000E94CF08D13029F0D33049F1DF91CF918A
:1016C00008951092800010928100809181008860BE
:1016D00080938100809181008160809381008C2FB4
:1016E00090E0FC01ED55F34FE491F0E0EE0FFF1FA9
:1016F000EB56F34F25913491309307042093060461
:101700008A58934FFC01849180930504D7CF10929F
:1017100090001092910080919100886080939100D8
:10172000809191008160809391008C2F90E0FC016A
:10173000ED55F34FE491F0E0EE0FFF1FEB56F34F42
:101740002591349130930404209303048A58934FD5
:10175000FC0184918093020480910804882321F085
:101760006CE380E00E94B40A80E0DF91CF910C949A
:10177000250B60387105E8F440345105D0F4342F5E
:10178000369536953695A0E83A9FF0011124E60F7C
:10179000F71FE80FF91F3489CA018770992741E0C4
:1017A00050E001C0440F8A95EAF7222319F0432B39
:1017B000448B089540954323FBCF8F929F92AF9225
:1017C000BF92CF92DF92EF92FF920F931F93CF932E
:1017D000DF93883F2FEF9207BCF18B019B01285FBD
:1017E0003F4F2834310580F56C01EA015A0188E049
:1017F000A80EB11C80E8882E912CF12CE12CFE0162
:101800008491282F30E0C4010E2C02C09595879555
:101810000A94E2F782239323892B49F021E0A8015F
:10182000B7016C0D7D1D89E594E00E94B90BFFEFB7
:10183000EF1AFF0A28E0E216F10409F721960F5F7C
:101840001F4FCA15DB05C9F6DF91CF911F910F918C
:10185000FF90EF90DF90CF90BF90AF909F908F90D0
:1018600008952F923F924F925F926F927F928F9244
:101870009F92AF92BF92CF92DF92EF92FF920F931F
:101880001F93CF93DF93CDB7DEB72D970FB6F894A4
:10189000DEBF0FBECDBF6A3069F5FC01EA5EFB4FCB
:1018A000DC01A85EBB4F2C9148E0249F90011124DD
:1018B00040815181240F351F3183208314971D925D
:1018C0001C922D960FB6F894DEBF0FBECDBFDF91F0
:1018D000CF911F910F91FF90EF90DF90CF90BF902D
:1018E000AF909F908F907F906F905F904F903F90C0
:1018F0002F9008956D3029F39D878C878C5E9B4FC8
:101900009A838983FC01808091802C853D85285EA7
:101910003B4F3C832B8330E8831691040CF071C05D
:10192000EC85FD85EA5EFB4F6080718040E46416C3
:1019300071040CF066C0AB81BC814C9045E0940111
:10194000449E200D311D1124121613060CF059C0AF
:10195000242C312C910153E0220F331F5A95E1F7CB
:10196000260D371D121613060CF04BC0649FB001F4
:10197000112410E000E0FB01EC51FB4FFB87EA87EC
:10198000E0E0053029F0EA85FB85E00FF11FE491E6
:10199000530198E0592E2E2F30E03E832D83E170C5
:1019A000EF83F12CE12CE414D8F4C4018E0D9F1DBB
:1019B00099878887D12CC12CC41470F4A6014A0DD4
:1019C0005B1D2F81688579858C859D850E94B90B6B
:1019D0009FEFC91AD90AF0CFAFEFEA1AFA0AE3CF9C
:1019E000ED81FE81F595E7955A94A20CB31C511038
:1019F000D2CF0F5F1F4F820C931C0630110509F0E8
:101A0000BFCFEB81FC812081422F50E0A981BA81B8
:101A10008D919C91B6E02B9F800D911D1124E98141
:101A2000FA8191838083EC85FD85E75EFB4F208101
:101A3000222309F446CF6AEF64039001659F300DBD
:101A4000112420583F4F281739070CF03ACFAC85A6
:101A5000BD85ED91FC9111970190F081E02D6AE038
:101A6000CD012D960FB6F894DEBF0FBECDBFDF912E
:101A7000CF911F910F91FF90EF90DF90CF90BF908B
:101A8000AF909F908F907F906F905F904F903F901E
:101A90002F900994089590E080E0089526E0289F13
:101AA000F001299FF00D1124EF5FFE4F208127FDEB
:101AB000108226E0289FF001299FF00D1124EF5F8E
:101AC000FE4F2081293714F028E7208326E0289F45
:101AD000F001299FF00D1124EF5FFE4F218120318D
:101AE00014F420E1218326E0289FF001299FF00DC6
:101AF0001124EF5FFE4F8181893314F088E38183E5
:101B000008955F926F927F928F929F92AF92BF9251
:101B1000CF92DF92EF92FF920F931F93CF93DF93B9
:101B200010921D0310921E038B35910514F08AE567
:101B300090E080931F03E1E0F1E030E020E08217C5
:101B4000930729F013822F5F3F4F3696F8CF80918D
:101B500020039091210301972AE5289F6001299F86
:101B6000D00C112410E1F12CE12C86E0682E5524D4
:101B7000539408E0912C812CC60184559F4F5C0141
:101B8000F501E80DF91D7490872D90E00097C9F0DC
:101B900005972CF480911E038F5F80931E036E9C2B
:101BA000E0016F9CD00D1124CF5FDE4F08831983B5
:101BB000C7010E944E0D7C821D825B829FEFE91A55
:101BC000F90A8FEF881A980A085F0038C9F69FE073
:101BD000C90ED11C185F103461F6DF91CF911F91AF
:101BE0000F91FF90EF90DF90CF90BF90AF909F90BC
:101BF0008F907F906F905F90089583E090E0909336
:101C0000E6038093E50381E08093000188E78093F9
:101C1000DE0388E38093DD038AE590E00C94810D78
:101C20008F929F92AF92BF920F931F93CF93DF93A8
:101C3000CDB7DEB7A1970FB6F894DEBF0FBECDBF0C
:101C400019A2423008F44AE08E010F5D1F4F842E26
:101C5000912CB12CA12CA50194010E94301BE62FE0
:101C6000B901CA01EA3044F5E05DD801EE938D0177
:101C7000232B242B252B79F790E080E0109769F037
:101C8000FD0101900020E9F73197AF014A1B5B0B82
:101C9000BD0189E594E00E943108A1960FB6F89441
:101CA000DEBF0FBECDBFDF91CF911F910F91BF90CF
:101CB000AF909F908F900895E95CD7CFCF92DF923D
:101CC000EF92FF92CF93DF936B017C016DE289E588
:101CD00094E00E94310CEC0166277727CB016C1948
:101CE0007D098E099F094AE00E94100E8C0F9D1FEE
:101CF000DF91CF91FF90EF90DF90CF900895FC019E
:101D000001900020E9F73197AF01481B590BBC0146
:101D100089E594E00C9431082F923F924F925F92A4
:101D20006F927F928F929F92AF92BF92CF92DF92EB
:101D3000EF92FF920F931F93CF93DF930E94FD0DBD
:101D4000D0E0C0E004E110E082E0282E9AE2E92E23
:101D5000F12C3324339426E4422E512C32E3632EAB
:101D6000712C4EE1C42ED12C56E3A52EB12C6EE180
:101D700070E080E090E00E94D3090E948D061093ED
:101D80006E0800936D0881E090E090937008809356
:101D90006F082092710887E593E00E947F0E1093F0
:101DA0006E0800936D081093700800936F082092DE
:101DB00071088EE593E00E947F0E10936E080093E9
:101DC0006D08F0927008E0926F083092710885E615
:101DD00093E00E947F0E3092710850926E084092FC
:101DE0006D08F0927008E0926F088DE693E00E9413
:101DF0007F0E6091200370912103072E000C880B49
:101E0000990B97FF69C00E945E0ECE010196B30147
:101E10000E94611BEC01499774F4D0926E08C09245
:101E20006D08B0927008A0926F083092710884E734
:101E300093E00E947F0E80902003909021039CE00D
:101E4000891691048CF40E948A0A87FF0DC08FEFD7
:101E5000881A980A909221038092200364EF71E01F
:101E600080E090E00E94D3098090200390902103AD
:101E700092E0891691048CF00E948A0A84FF0DC0BA
:101E800081E0881A9108909221038092200364EFE8
:101E900071E080E090E00E94D3098DE694E00E941A
:101EA000A40A0E948A0A83FD04C00E948A0A82FF53
:101EB0005ECFDF91CF911F910F91FF90EF90DF9058
:101EC000CF90BF90AF909F908F907F906F905F90DA
:101ED0004F903F902F9008954AE00E94100E95CFAA
:101EE0000E948F1B1F920F920FB60F9211248F9397
:101EF0009F938091E1009091E100937F9093E100A6
:101F000083FF0FC01092E90091E09093EB001092D4
:101F1000EC0092E39093ED001092010498E090930E
:101F2000F00082FF22C093E09093E9009091F200CC
:101F3000992319F09AE39093E8009091F203992382
:101F400041F09091F20391509093F203911101C0EE
:101F50005D9A90910004992341F090910004915072
:101F600090930004911101C0289A84FF18C08091B9
:101F7000E2008E7E81608093E2008091E1008F7E9E
:101F80008093E1008091F3038E7E80618093F30360
:101F90009F918F910F900FBE0F901F90189580FF0B
:101FA000F7CF8091E2008E7E80618093E200809185
:101FB000E1008E7E8093E1008091F3038E7E81604C
:101FC000E5CF1F920F920FB60F921124CF92DF929E
:101FD000EF92FF920F931F932F933F934F935F9333
:101FE0006F937F938F939F93AF93BF93EF93FF93E1
:101FF000CF93DF93CDB7DEB76C97DEBFCDBF109226
:10200000E9008091E80083FF25C068E0CE01459695
:102010000E94240882EF8093E8008D8987FF39C0F1
:102020009091E80090FFFCCF982F907609F034C192
:102030009E894F89588D2F89F88C911131C0803835
:1020400061F58091F1038093F1001092F1008EEF21
:102050008093E8006C960FB6F894DEBF0FBECDBF3C
:10206000DF91CF91FF91EF91BF91AF919F918F91B0
:102070007F916F915F914F913F912F911F910F91A0
:10208000FF90EF90DF90CF900F900FBE0F901F90BA
:1020900018959EEF9093E800C7CF1092F100D5CF2E
:1020A000913059F48111D3CF4130510581F680919F
:1020B000F1038D7F8093F103CACF933049F48111EE
:1020C000C6CF4130510519F68091F1038260F2CFFD
:1020D000953041F48091E80080FFFCCF2068209388
:1020E000E300B5CF963009F0A9C00B8D1C8D22E01E
:1020F0001092E9001092EF031092EE03F2122EC03C
:102100001092ED031092EC030E94F3071F8299E0F6
:102110009983FA8291E09E8390EA98879AEF998753
:102120002091EE033091EF03275F3F4F3C832B83D9
:102130008D831092E9001092EF031092EE0310933A
:10214000ED030093EC0349E050E0BE016F5F7F4F69
:1021500080E00E94CD070E94F30779CF1093ED0332
:102160000093EC030E94D706DC0112960D911C919E
:102170000115110509F451C1D801ED91FC910480BC
:10218000F581E02DBE016B5E7F4FC8010995009778
:1021900009F03EC1F80100851185EACFF3E0FF1296
:1021A0000EC08F89882309F440C0823061F440E872
:1021B00060E185E69CE00E949A07811148CF81E2A8
:1021C0008093EB0047CF813029F440E86BE089E54C
:1021D0009CE0F1CF833099F70E94D706DC0112967C
:1021E000ED90FC908E010F5F1F4F6801E114F10428
:1021F00079F0D701ED91FC910680F781E02DB801CF
:10220000C7010995080F111DF701E084F184EECF95
:10221000D8011C92F60101900020E9F73197BF0127
:102220006C197D0940E0C601C6CF63E47CE0FB0188
:10223000449150E080E80E94CD0709CF973009F41F
:10224000BECF983021F481E08093F10000CF993027
:1022500009F0FDCE837009F0B2CFE3E3F3E081E053
:1022600031E096E32191222371F08093E9003093CD
:10227000EB00DF0111972C912093EC009093ED007F
:102280008F5F873079F78EE78093EA001092EA003B
:102290008F8980930104DBCE8B8D9C8D1092E90099
:1022A0001092EF031092EE039093ED038093EC03F2
:1022B000898D811192C08E899D89913A49F481322C
:1022C00009F07DCF47E050E066E273E080E0B3CFF5
:1022D000913209F074CF833269F48F89988DB0E020
:1022E000A0E08093220390932303A0932403B09350
:1022F0002503ADCE803269F48091E80082FFFCCFE7
:1023000067E086E293E00E9424088BEF8093E80068
:102310009ECE823209F09BCE8F8980932D03EEEF03
:10232000FFE7859194918B3F9C4D51F1E0E0F8E0FF
:102330008091260390912703A0912803B09129034F
:10234000803B9440A105B105F1F480912D0380FDFF
:102350001AC0EE3F8AE0F80789F587E797E791838F
:102360008083809160008093F00388E19BE00FB64A
:10237000F894A895809360000FBE9093600067CE9C
:10238000EEEFFAE0D5CF808191818737974709F04A
:102390005ECEA895809160008861809360008091F6
:1023A000F00380936000EE3F2AE0F20789F080910D
:1023B000FE0A9091FF0A9183808349CE80819181AA
:1023C0008737980751F29093FF0A8093FE0AC5CF92
:1023D0001092FF0A1092FE0A3ACE0E94D706DC0144
:1023E00012960D911C910115110509F4E8CED80142
:1023F000ED91FC910190F081E02DBE016B5E7F4F6D
:10240000C8010995811123CEF80100851185EBCF14
:10241000181619060CF41BCED2CEF1E0FF12BECE78
:1024200067E47CE004CF1F920F920FB60F92112445
:102430002F933F938F939F93AF93BF938091E70325
:102440009091E803A091E903B091EA033091AD03C4
:1024500023E0230F2D3758F50196A11DB11D2093C0
:10246000AD038093E7039093E803A093E903B0934F
:10247000EA038091AE039091AF03A091B003B091B5
:10248000B1030196A11DB11D8093AE039093AF03DC
:10249000A093B003B093B103BF91AF919F918F917F
:1024A0003F912F910F900FBE0F901F90189526E827
:1024B000230F0296A11DB11DD2CF1F920F920FB60E
:1024C0000F9211242F933F934F935F936F937F93BA
:1024D0008F939F93AF93BF93EF93FF938091AA0342
:1024E000882349F080910204E0910304F0910404F0
:1024F0009081892780838091B203882309F456C094
:102500008091A6039091A703A091A803B091A9037D
:10251000892B8A2B8B2B09F449C08091A6039091BB
:10252000A703A091A803B091A9030197A109B1093C
:102530008093A6039093A703A093A803B093A90345
:10254000892B8A2B8B2B91F5E091A403F091A503A5
:10255000BF016F5F7F4F7093A5036093A403249125
:10256000922F907F822F8F70903819F40E94250B44
:10257000EBCF903981F43296F093A503E093A40356
:10258000FB016491909108048917F0F667FDDCCF98
:102590000E94B40AD9CF903E29F41092A50310925C
:1025A000A403D2CF903F99F41092B203FF91EF9120
:1025B000BF91AF919F918F917F916F915F914F915B
:1025C0003F912F910F900FBE0F901F90189597FD80
:1025D000BBCF3296F093A503E093A403FB01649173
:1025E000A091AB03B091AC03322F262F0E94521B57
:1025F0006C507E4F8F4F9F4F28EE33E040E050E00D
:102600000E94301B2093A6033093A7034093A80396
:102610005093A9038091A6039091A703A091A803CA
:10262000B091A903892B8A2B8B2B09F0BFCF81E0B6
:1026300090E0A0E0B0E08093A6039093A703A0935E
:10264000A803B093A903B2CF1F920F920FB60F92B7
:1026500011248F939F93AF93BF93EF93FF93809138
:10266000E303882309F452C08091DF039091E003D3
:10267000A091E103B091E203892B8A2B8B2BA1F16E
:1026800090910504E0910604F09107048081892768
:1026900080838091DF039091E003A091E103B091EA
:1026A000E203181619061A061B069CF48091DF0334
:1026B0009091E003A091E103B091E2030197A10999
:1026C000B1098093DF039093E003A093E103B093FB
:1026D000E203FF91EF91BF91AF919F918F910F9086
:1026E0000FBE0F901F9018951092E30380916F001A
:1026F0008D7F80936F0080910504E0910604F09136
:1027000007049081809589238083E3CF909105040D
:10271000E0910604F091070480818927F5CFE9E074
:10272000F4E01382128288EE93E0A0E0B0E08483AC
:102730009583A683B7838DE393E0918380838FEFA6
:102740009FEF95878487E9E5F4E0138212828FE496
:1027500093E0918380838CE3868380E18187108678
:10276000178216861786108A118A128A10926E08AE
:1027700010926D081092700810926F0881E080939B
:1027800071080895789484B5826084BD84B58160B1
:1027900084BD85B5826085BD85B5816085BD80912C
:1027A0006E00816080936E001092810080918100A4
:1027B000826080938100809181008160809381009C
:1027C0008091800081608093800080919100826080
:1027D000809391008091910081608093910080911D
:1027E00090008160809390008091C100846080930C
:1027F000C1008091C10082608093C1008091C100BE
:1028000081608093C1008091C30081608093C30088
:102810008091C00082608093C0008091C20081607E
:102820008093C20080917A00846080937A008091C6
:102830007A00826080937A0080917A008160809330
:102840007A0080917A00806880937A001092010467
:102850001092F1031092F3038091D700816080936E
:10286000D70080EA8093D80089B5806189BD89B599
:10287000826089BD09B400FEFDCF61E070E080E0B8
:1028800090E00E94D3098091D8008F7C8061809372
:10289000D8008091E000807F8093E0008091E1008B
:1028A0008E7E8093E1008DE08093E200559A209A1D
:1028B000CFB7F8948091B303811127C0E4EBFCE01B
:1028C0008491E7E8FCE09491E82FF0E0EE0FFF1F21
:1028D000ED57F44FA591B491EC91E92321F461E017
:1028E00081E10E945E0861E081E10E94CF088CB521
:1028F00080618CBD8CB580648CBD61E08FE00E94EE
:10290000CF0861E080E10E94CF088091B3038F5F20
:102910008093B303CFBFCEE9DBE0BE01FE0184911B
:102920006F5F7F4F2296FB016491882319F00E940C
:10293000CF08F3CF61E086E00E945E0861E070E0BE
:1029400080E090E00E94D30960E086E00E945E088B
:102950006AE070E080E090E00E94D30961E086E0E8
:102960000E945E08EFEAFCE0E491F0E0EE0FFF1F4A
:10297000EB56F34F859194919093B9038093B803EC
:10298000E2E8FCE0E491E093B703E7EAFCE0E491DD
:10299000F0E0EE0FFF1FEB56F34F8591949190936B
:1029A000B6038093B503EAE7FCE0E491E093B40357
:1029B0008CB58C7F8CBD8DB581608DBDE091B803E9
:1029C000F091B90390818091B703982B9083A091E7
:1029D000B503B091B6032C919091B40390959223D6
:1029E0009C939081809589238083E1E9FBE03BE023
:1029F000EE39F30749F084918EBD00000DB407FE57
:102A0000FDCF8EB53196F3CFE091B503F091B603CB
:102A100080819091B403892B8083E091B803F09179
:102A2000B90390818091B703809589238083809139
:102A30006400816080936400809164008260809370
:102A400064008091640080688093640080916400D9
:102A5000806480936400809165008160809365004C
:102A60000E948A0A87FF1AC080E094E01EBC000022
:102A70000DB407FEFDCF2EB50197C1F770E060E001
:102A80008AE00E940B0970E060E08BE00E940B0975
:102A900070E060E089E00E940B09FFCFCEEEDFEF2F
:102AA00008E010E0BE0169517F4F8AE00E940B09E7
:102AB0006FEF70E08BE00E940B096FEF70E089E030
:102AC0000E940B090E948D065C2E40EFC4170CF487
:102AD0006EC09E01D7FF04C0222733272C1B3D0B5D
:102AE00027703327CE01D7FD079673E0959587951C
:102AF0007A95E1F7D7FF05C00197D801A21BB30B68
:102B00009D01AC015695542F442757954795475A38
:102B10005B4FB0E0A0E03801621A730A8F3FEFEF1D
:102B20009E070CF43BC07A0170E060E0FD01ED52BD
:102B3000F54F5F014A01F0E88F0E911C8F3F980717
:102B400079F0F501E60FF71FE491F0E06F01022E36
:102B500001C0CC0C0A94EAF7F701D0A4CD28C0A696
:102B60002115310599F0F501E60FF71FE491640195
:102B7000C60ED71EF0E01F01062C02C03594279424
:102B80000A94E2F7F60140A4242820A66F5F7F4F45
:102B9000FFEFEF1AFF0A6835710581F60196A85A12
:102BA000BF4F40585F4FA03BB10509F0B7CF8DE64E
:102BB00094E00E94A40A6BE170E080E090E00E9443
:102BC000D30930EF531206C06AEF70E080E090E066
:102BD0000E94D3092196C931D10509F063CF6EEE69
:102BE00072E080E090E00E94D3096FEF70E08AE02D
:102BF0000E940B096FEF70E08BE00E940B096FEFF2
:102C000070E089E00E940B0985E00E94480B8DE08E
:102C10000E94480B1092B20382E090E00E94F61AE4
:102C2000882351F080916400877F809364008091B5
:102C30006500877F809365000E948C0E8FB7F894A3
:102C40004091E7035091E8036091E9037091EA0332
:102C50008FBF8FB7F8944091E7035091E8036091DC
:102C6000E9037091EA038FBF88E280935F0489E1F2
:102C700080936204809164008E7F8093640087EC6F
:102C800080937C0080E280937B0062E070E080E0D3
:102C900090E00E94D30980917A00806480937A004A
:102CA00080917A0086FDFCCFC0917800D0917900A8
:102CB000C095D0958EE580937C0062E070E080E066
:102CC00090E00E94D30980917A00806480937A001A
:102CD00080917A0086FDFCCF0091780010917900F8
:102CE0000E94AE09009510950C9FD0010D9FB00D6C
:102CF0001C9FB00D11249B01AC012095309540958F
:102D000050950E941D1B6B017C010E94AE096C0D49
:102D10007D1D8E1D9F1D611571058105910511F0A9
:102D20000E94ED1A8091640081608093640087EBBB
:102D3000682E8FE4782E44244394512C24E1222ED3
:102D4000312C3EE3832E912CA12CB12C8091EB03EE
:102D500081113BC02FB7F8948091E7039091E8036D
:102D6000A091E903B091EA032FBF20916B042223C5
:102D700091F020916304482F421B40936C042091F2
:102D80006004309161042F5F3F4F309361042093C2
:102D9000600410926B044091670450916804609144
:102DA000690470916A0484179507A607B707ACF405
:102DB000481B423050F083B7817F83BF83B7816067
:102DC00083BF889583B78E7F83BFA0E0B0E0AB2B35
:102DD00009F4BCCF0E940000B9CF20916204AC017D
:102DE000BD01420F511D611D711D40936704509339
:102DF00068046093690470936A04809363049093F9
:102E00006404A0936504B093660451E050936B048E
:102E10008FB7F8944091E7035091E8036091E9037C
:102E20007091EA038FBF0E948D0661E06093710884
:102E300010E000E0F12CE12C21E0A701B80189E5C8
:102E400094E00E94B90B8FEFE81AF80A9AE0E916AD
:102E5000F10491F70F5F1F4F0F37110559F70091DC
:102E6000E5031091E6038BE090E070E060E060170E
:102E700071070CF03BC088389105A8F4AC014850AC
:102E80005109DC01A25BBB4F30E020E04038510526
:102E900054F457FF0CC02F5F3F4F4F5F5F4F1196A9
:102EA0002830310599F76F5F7F4F0A96E0CFF9011F
:102EB000E750F44FE490F12CEE0CFF1CE094F094FA
:102EC0005796DC915797ED225796EC925797E491DD
:102ED000ED01C956DF4FF0E0EE0FEF2FEE1FFF0BB5
:102EE000E095F095F881EF23E883D5CFACE3B0E02F
:102EF000B0936E08A0936D085092700840926F08CE
:102F000060E289E594E00E94310C63E589E594E094
:102F10000E94310C64E589E594E00E94310C61E483
:102F200089E594E00E94310C67E489E594E00E9411
:102F3000310C65E489E594E00E94310C60E289E59A
:102F400094E00E94310C6091200370912103072EC0
:102F5000000C880B990B97FFB9C00E945E0E60E2CF
:102F600089E594E00E94310C01E011E0E801D12CE8
:102F7000C12C40911F0350E0C416D5060CF0C3C00D
:102F80008B81882309F49DC08D81882309F499C021
:102F90008C81863008F01D82B1E0BA836881798126
:102FA0008D81803209F4A1C008F094C0803109F409
:102FB0009AC0E1E0F1E030E020E02C153D0509F495
:102FC0009AC08381882309F496C08081082E000C62
:102FD000990BA8818A1B9109A7FD939597FF03C0C0
:102FE00091958195910908970CF085C08181082EF3
:102FF000000C990BA9818A1B9109A7FD939597FF56
:1030000003C091958195910908970CF074C0E1E097
:10301000E093E30380918100887F81608093810049
:1030200070928900609288008092DF039092E003A2
:10303000A092E103B092E20380916F0082608093DE
:103040006F001D821A826883798346E0429FF001F7
:10305000439FF00D1124EF5FFE4F8481863029F0ED
:103060009C819530D8F4891319C01B8256E0529F79
:10307000F001539FF00D1124EF5FFE4F13829C81EE
:10308000953028F490911E03915090931E03853043
:1030900028F480911E03815080931E03C6010E9474
:1030A0004E0D80911E0381110CC0809120039091E0
:1030B00021030196909321038093200361E06093A4
:1030C000E4038FEFC81AD80A269653CF4AE00E942D
:1030D000100E45CF803469F0803809F06ACF8FEF49
:1030E000870F898366CF81E0FBCF8FEF860F8883C0
:1030F00060CF81E0FBCF2F5F3F4F36962417350717
:103100000CF45BCFCBCFD091DE03F090DD038D2F9D
:103110008F29877009F06BC00E948A0A87FF3CC024
:1031200080E88093DC038093DB03809100019F2D76
:10313000981B892F8093DD038091DE0387FF6EC08B
:103140001092DE030E948A0A83FF7BC00E948D06D4
:103150008DE694E00E94A40A64EF71E080E090E0C4
:103160000E94D3098091E5039091E6030197909323
:10317000E6038093E503181619061CF031E030933E
:10318000DA0348E74093DE0388E38093DD038AE5B2
:1031900090E00E94810D59C00E948A0A84FF09C0F4
:1031A00080E18093DC038093DB03809100018F0D2D
:1031B000C1CF0E948A0A85FF0DC080E28093DC03A4
:1031C0008093DB0380910001AD2FA81B8A2F809391
:1031D000DE03B2CF0E948A0A86FFAECF80E48093DE
:1031E000DC038093DB03809100018D0FF0CF809191
:1031F000DC03803831F480910001BF2DB81B8B2F88
:1032000099CF803191F2803231F480910001ED2F1D
:10321000E81B8E2FDCCF803431F38ECF893724F03A
:10322000F8E7F093DE038ECF8091DD03803124F444
:1032300080E18093DD0386CF89330CF483CF88E36C
:10324000F8CF0E948A0A82FD81CFE1E0F1E050E0F0
:1032500040E0C0901F03D12C8091DE03082E000CAB
:10326000990B6091DD03062E000C770B4C155D0564
:103270000CF043C023812223E1F12081022E000CB7
:10328000330B281B390B37FF03C0319521953109CA
:103290002830310574F58181082E000C990B861BAE
:1032A000970B97FF03C091958195910908970CF5AD
:1032B00061E06093E30380918100887F8160809367
:1032C000810070928900609288008092DF03909262
:1032D000E003A092E103B092E20380916F0082606C
:1032E00080936F008091DB038583D093DE03F0929F
:1032F000DD034F5F5F4F3696ACCF6450710941EFED
:103300005BE00E94DD0BF12CE12CEC14FD0409F4D0
:1033100044C0D80113968C911397882319F18C918E
:10332000082E000C990B11966C911197062E000C2B
:10333000770B645071091496EC91E150E93050F527
:10334000F0E0EB55F64E0C94751BAE19B819BB198D
:10335000BE19CA19C119CA19C419C71949EE5BE0C7
:103360000E94DD0BBFEFEB1AFB0A0A5F1F4FCDCFA8
:1033700041EE5BE0F5CF49ED5BE0F2CF41ED5BE084
:10338000EFCF41EC5BE0ECCF49EB5BE0E9CF41EB09
:103390005BE0E6CF49EC5BE0E3CF8091E403882378
:1033A000E9F11092E403E1E0E093EB038091200364
:1033B000909121030C970CF46CC062E873E08AEBE7
:1033C00093E00E94941B0E948D0630926E0820921A
:1033D0006D0842E150E05093700840936F0851E04F
:1033E000509371088AEB93E00E947F0E8DE694E083
:1033F0000E94A40A68EB7BE080E090E00E94D30981
:103400001092EB0380912003909121030C9734F0EC
:1034100050922103409220030E948C0E8091DA0387
:10342000882391F11092DA0361E06093EB035092EC
:103430002103409220030E94FD0D66E973E08AEBB0
:1034400093E00E94941B0E948D0630926E08209299
:103450006D0882E190E09093700880936F0891E08E
:10346000909371088AEB93E00E947F0E8DE694E0C2
:103470000E94A40A68EB7BE080E090E00E94D30900
:103480001092EB030E948C0E8DE694E00E94A40A39
:103490009CCC66E873E08AEB93E00E94941B0E9448
:1034A000FD0D91CF8F929F92AF92BF92CF92DF92FC
:1034B000EF92FF92CF93DF93EC01688179818A814B
:1034C0009B81611571058105910521F464E279ED17
:1034D0008BE597E02DE133EF41E050E00E94FE1ACA
:1034E00049015A019B01AC01A7EAB1E40E941D1BEE
:1034F0006B017C01ACEEB4EFA50194010E942B1B83
:10350000C60ED71EE81EF91EF7FE06C081E0C81AD7
:10351000D108E10880E8F80AC882D982EA82FB82F1
:10352000C701B6019F77DF91CF91FF90EF90DF90B9
:10353000CF90BF90AF909F908F9008958F929F9261
:10354000AF92BF92CF92DF92EF92FF9260912E03E3
:1035500070912F03809130039091310361157105B3
:103560008105910521F464E279ED8BE597E02DE189
:1035700033EF41E050E00E94FE1A49015A019B01DD
:10358000AC01A7EAB1E40E941D1B6B017C01ACEE0B
:10359000B4EFA50194010E942B1BC60ED71EE81E96
:1035A000F91EF7FE06C081E0C81AD108E10880E8DC
:1035B000F80AC0922E03D0922F03E0923003F092CB
:1035C0003103C701B6019F77FF90EF90DF90CF9056
:1035D000BF90AF909F908F90089560932E0370934B
:1035E0002F0380933003909331030895F999FECF10
:1035F00092BD81BDF89A992780B50895052E97FB55
:103600001EF400940E94151B57FD07D00E94301B2A
:1036100007FC03D04EF40C94151B50954095309543
:1036200021953F4F4F4F5F4F08959095809570952E
:1036300061957F4F8F4F9F4F08950E94521BA59F0A
:10364000900DB49F900DA49F800D911D112408959D
:10365000B7FF0C941D1B0E941D1B821B930B08952A
:10366000A1E21A2EAA1BBB1BFD010DC0AA1FBB1F86
:10367000EE1FFF1FA217B307E407F50720F0A21BF8
:10368000B30BE40BF50B661F771F881F991F1A9465
:1036900069F760957095809590959B01AC01BD018F
:1036A000CF010895A29FB001B39FC001A39F700DE9
:1036B000811D1124911DB29F700D811D1124911D3A
:1036C000089597FB072E16F4009407D077FD09D0D4
:1036D0000E947B1B07FC05D03EF4909581959F4F7F
:1036E0000895709561957F4F0895EE0FFF1F059027
:1036F000F491E02D0994AA1BBB1B51E107C0AA1F3E
:10370000BB1FA617B70710F0A61BB70B881F991F82
:103710005A95A9F780959095BC01CD01089581E057
:1037200090E0F8940C949B1BFB01DC0101900D923E
:0A3730000020E1F70895F894FFCFA0
:10373A00014010000000004010000000004010008E
:10374A00000000401000000000401000000000408F
:10375A0010000000004010000000004010000000AF
:10376A00004010000000004010000000004010005F
:10377A00000000401000000000401000000000405F
:10378A00100000000040100000000040100000007F
:10379A00004010000000004010000000004010002F
:1037AA00000000401000000000401000000000402F
:1037BA00100000000040100000000040100000004F
:1037CA0000401000000000401000000000401000FF
:1037DA0000000040100000000040100000000040FF
:1037EA00100000000040100000000040100000001F
:1037FA0000401000000000401000000000401000CF
:10380A0000000040100000000040100000000040CE
:10381A0010000000004010000000004010000000EE
:10382A00004010000000004010000000004010009E
:10383A00000000401000000000401000000000409E
:10384A0010000000004010000000004010000000BE
:10385A00004010000000004010000000004010006E
:10386A00000000401000000000401000000000406E
:10387A00100000000040100000000040100000008E
:10388A00004010000000004010000000004010003E
:10389A00000000401000000000401000000000403E
:1038AA00100000000040100000000040100000005E
:1038BA00004010000000004010000000004010000E
:1038CA00000000401000000000401000000000400E
:1038DA00100000000040100000000040100000002E
:1038EA0000401000000000401000000000401000DE
:1038FA0000000040100000000040100000000040DE
:10390A0010000000004010000000004010000000FD
:10391A0000401000000000401000000000401000AD
:10392A0000000040100000000040100000000040AD
:10393A0010000000004010000000004010000000CD
:10394A000040100000000040100000000000005A73
:10395A000100FFFFFFFF00E100000000000001007E
:10396A00000000C1808100000000000000EB060595
:10397A000A0C070107520710072E07000000003142
:10398A000C31084B0D4A0D4E756D6265720050750B
:10399A007A7A6C650076657220312E310073746113
:1039AA006765200050726573732041206F72204250
:1039BA002000416C6C20537461676520436C65611B
:1039CA0072212121210047616D65204F76657221A0
:0439DA002121210086
:00000001FF
